{
	"Day 5/AdminOnly.sol": {
		"AdminOnly": {
			"abi": [
				{
					"inputs": [],
					"stateMutability": "nonpayable",
					"type": "constructor"
				},
				{
					"inputs": [
						{
							"internalType": "uint256",
							"name": "_chest",
							"type": "uint256"
						}
					],
					"name": "addTreasure",
					"outputs": [],
					"stateMutability": "nonpayable",
					"type": "function"
				},
				{
					"inputs": [],
					"name": "admin",
					"outputs": [
						{
							"internalType": "address",
							"name": "",
							"type": "address"
						}
					],
					"stateMutability": "view",
					"type": "function"
				},
				{
					"inputs": [
						{
							"internalType": "address",
							"name": "_user",
							"type": "address"
						}
					],
					"name": "allowedUsers",
					"outputs": [],
					"stateMutability": "nonpayable",
					"type": "function"
				},
				{
					"inputs": [],
					"name": "amt",
					"outputs": [
						{
							"internalType": "uint256",
							"name": "",
							"type": "uint256"
						}
					],
					"stateMutability": "view",
					"type": "function"
				},
				{
					"inputs": [],
					"name": "chest",
					"outputs": [
						{
							"internalType": "uint256",
							"name": "",
							"type": "uint256"
						}
					],
					"stateMutability": "view",
					"type": "function"
				},
				{
					"inputs": [],
					"name": "reset",
					"outputs": [],
					"stateMutability": "nonpayable",
					"type": "function"
				},
				{
					"inputs": [
						{
							"internalType": "address",
							"name": "_user",
							"type": "address"
						}
					],
					"name": "transferAdmin",
					"outputs": [],
					"stateMutability": "nonpayable",
					"type": "function"
				},
				{
					"inputs": [
						{
							"internalType": "uint256",
							"name": "",
							"type": "uint256"
						}
					],
					"name": "users",
					"outputs": [
						{
							"internalType": "address",
							"name": "",
							"type": "address"
						}
					],
					"stateMutability": "view",
					"type": "function"
				},
				{
					"inputs": [
						{
							"internalType": "uint256",
							"name": "_amt",
							"type": "uint256"
						}
					],
					"name": "withdrawal",
					"outputs": [],
					"stateMutability": "nonpayable",
					"type": "function"
				}
			],
			"devdoc": {
				"kind": "dev",
				"methods": {},
				"version": 1
			},
			"evm": {
				"assembly": "    /* \"Day 5/AdminOnly.sol\":62:1346  contract AdminOnly{... */\n  mstore(0x40, 0x80)\n    /* \"Day 5/AdminOnly.sol\":239:290  constructor() {... */\n  callvalue\n  dup1\n  iszero\n  tag_1\n  jumpi\n  revert(0x00, 0x00)\ntag_1:\n  pop\n    /* \"Day 5/AdminOnly.sol\":272:282  msg.sender */\n  caller\n    /* \"Day 5/AdminOnly.sol\":264:269  admin */\n  0x00\n  0x00\n    /* \"Day 5/AdminOnly.sol\":264:282  admin = msg.sender */\n  0x0100\n  exp\n  dup2\n  sload\n  dup2\n  0xffffffffffffffffffffffffffffffffffffffff\n  mul\n  not\n  and\n  swap1\n  dup4\n  0xffffffffffffffffffffffffffffffffffffffff\n  and\n  mul\n  or\n  swap1\n  sstore\n  pop\n    /* \"Day 5/AdminOnly.sol\":62:1346  contract AdminOnly{... */\n  dataSize(sub_0)\n  dup1\n  dataOffset(sub_0)\n  0x00\n  codecopy\n  0x00\n  return\nstop\n\nsub_0: assembly {\n        /* \"Day 5/AdminOnly.sol\":62:1346  contract AdminOnly{... */\n      mstore(0x40, 0x80)\n      callvalue\n      dup1\n      iszero\n      tag_1\n      jumpi\n      revert(0x00, 0x00)\n    tag_1:\n      pop\n      jumpi(tag_2, lt(calldatasize, 0x04))\n      shr(0xe0, calldataload(0x00))\n      dup1\n      0x835fc6ca\n      gt\n      tag_12\n      jumpi\n      dup1\n      0x835fc6ca\n      eq\n      tag_7\n      jumpi\n      dup1\n      0xd826f88f\n      eq\n      tag_8\n      jumpi\n      dup1\n      0xe0147005\n      eq\n      tag_9\n      jumpi\n      dup1\n      0xf3d1306d\n      eq\n      tag_10\n      jumpi\n      dup1\n      0xf851a440\n      eq\n      tag_11\n      jumpi\n      jump(tag_2)\n    tag_12:\n      dup1\n      0x16eab96b\n      eq\n      tag_3\n      jumpi\n      dup1\n      0x365b98b2\n      eq\n      tag_4\n      jumpi\n      dup1\n      0x64026ac0\n      eq\n      tag_5\n      jumpi\n      dup1\n      0x75829def\n      eq\n      tag_6\n      jumpi\n    tag_2:\n      revert(0x00, 0x00)\n        /* \"Day 5/AdminOnly.sol\":167:182  uint public amt */\n    tag_3:\n      tag_13\n      tag_14\n      jump\t// in\n    tag_13:\n      mload(0x40)\n      tag_15\n      swap2\n      swap1\n      tag_16\n      jump\t// in\n    tag_15:\n      mload(0x40)\n      dup1\n      swap2\n      sub\n      swap1\n      return\n        /* \"Day 5/AdminOnly.sol\":138:160  address[] public users */\n    tag_4:\n      tag_17\n      0x04\n      dup1\n      calldatasize\n      sub\n      dup2\n      add\n      swap1\n      tag_18\n      swap2\n      swap1\n      tag_19\n      jump\t// in\n    tag_18:\n      tag_20\n      jump\t// in\n    tag_17:\n      mload(0x40)\n      tag_21\n      swap2\n      swap1\n      tag_22\n      jump\t// in\n    tag_21:\n      mload(0x40)\n      dup1\n      swap2\n      sub\n      swap1\n      return\n        /* \"Day 5/AdminOnly.sol\":114:131  uint public chest */\n    tag_5:\n      tag_23\n      tag_24\n      jump\t// in\n    tag_23:\n      mload(0x40)\n      tag_25\n      swap2\n      swap1\n      tag_16\n      jump\t// in\n    tag_25:\n      mload(0x40)\n      dup1\n      swap2\n      sub\n      swap1\n      return\n        /* \"Day 5/AdminOnly.sol\":1252:1339  function transferAdmin (address _user) public adminOnly{... */\n    tag_6:\n      tag_26\n      0x04\n      dup1\n      calldatasize\n      sub\n      dup2\n      add\n      swap1\n      tag_27\n      swap2\n      swap1\n      tag_28\n      jump\t// in\n    tag_27:\n      tag_29\n      jump\t// in\n    tag_26:\n      stop\n        /* \"Day 5/AdminOnly.sol\":948:1175  function withdrawal( uint _amt) public hasWithdrawnYet {... */\n    tag_7:\n      tag_30\n      0x04\n      dup1\n      calldatasize\n      sub\n      dup2\n      add\n      swap1\n      tag_31\n      swap2\n      swap1\n      tag_19\n      jump\t// in\n    tag_31:\n      tag_32\n      jump\t// in\n    tag_30:\n      stop\n        /* \"Day 5/AdminOnly.sol\":1183:1244  function reset() public adminOnly{... */\n    tag_8:\n      tag_33\n      tag_34\n      jump\t// in\n    tag_33:\n      stop\n        /* \"Day 5/AdminOnly.sol\":523:607  function addTreasure(uint _chest) public adminOnly {... */\n    tag_9:\n      tag_35\n      0x04\n      dup1\n      calldatasize\n      sub\n      dup2\n      add\n      swap1\n      tag_36\n      swap2\n      swap1\n      tag_19\n      jump\t// in\n    tag_36:\n      tag_37\n      jump\t// in\n    tag_35:\n      stop\n        /* \"Day 5/AdminOnly.sol\":615:704  function allowedUsers(address _user) public adminOnly{... */\n    tag_10:\n      tag_38\n      0x04\n      dup1\n      calldatasize\n      sub\n      dup2\n      add\n      swap1\n      tag_39\n      swap2\n      swap1\n      tag_28\n      jump\t// in\n    tag_39:\n      tag_40\n      jump\t// in\n    tag_38:\n      stop\n        /* \"Day 5/AdminOnly.sol\":87:107  address public admin */\n    tag_11:\n      tag_41\n      tag_42\n      jump\t// in\n    tag_41:\n      mload(0x40)\n      tag_43\n      swap2\n      swap1\n      tag_22\n      jump\t// in\n    tag_43:\n      mload(0x40)\n      dup1\n      swap2\n      sub\n      swap1\n      return\n        /* \"Day 5/AdminOnly.sol\":167:182  uint public amt */\n    tag_14:\n      sload(0x03)\n      dup2\n      jump\t// out\n        /* \"Day 5/AdminOnly.sol\":138:160  address[] public users */\n    tag_20:\n      0x02\n      dup2\n      dup2\n      sload\n      dup2\n      lt\n      tag_44\n      jumpi\n      0x00\n      dup1\n      revert\n    tag_44:\n      swap1\n      0x00\n      mstore\n      keccak256(0x00, 0x20)\n      add\n      0x00\n      swap2\n      pop\n      sload\n      swap1\n      0x0100\n      exp\n      swap1\n      div\n      0xffffffffffffffffffffffffffffffffffffffff\n      and\n      dup2\n      jump\t// out\n        /* \"Day 5/AdminOnly.sol\":114:131  uint public chest */\n    tag_24:\n      sload(0x01)\n      dup2\n      jump\t// out\n        /* \"Day 5/AdminOnly.sol\":1252:1339  function transferAdmin (address _user) public adminOnly{... */\n    tag_29:\n        /* \"Day 5/AdminOnly.sol\":350:360  msg.sender */\n      caller\n        /* \"Day 5/AdminOnly.sol\":341:360  admin == msg.sender */\n      0xffffffffffffffffffffffffffffffffffffffff\n      and\n        /* \"Day 5/AdminOnly.sol\":341:346  admin */\n      0x00\n      0x00\n      swap1\n      sload\n      swap1\n      0x0100\n      exp\n      swap1\n      div\n      0xffffffffffffffffffffffffffffffffffffffff\n      and\n        /* \"Day 5/AdminOnly.sol\":341:360  admin == msg.sender */\n      0xffffffffffffffffffffffffffffffffffffffff\n      and\n      eq\n        /* \"Day 5/AdminOnly.sol\":333:361  require(admin == msg.sender) */\n      tag_47\n      jumpi\n      revert(0x00, 0x00)\n    tag_47:\n        /* \"Day 5/AdminOnly.sol\":1326:1331  _user */\n      dup1\n        /* \"Day 5/AdminOnly.sol\":1318:1323  admin */\n      0x00\n      0x00\n        /* \"Day 5/AdminOnly.sol\":1318:1331  admin = _user */\n      0x0100\n      exp\n      dup2\n      sload\n      dup2\n      0xffffffffffffffffffffffffffffffffffffffff\n      mul\n      not\n      and\n      swap1\n      dup4\n      0xffffffffffffffffffffffffffffffffffffffff\n      and\n      mul\n      or\n      swap1\n      sstore\n      pop\n        /* \"Day 5/AdminOnly.sol\":1252:1339  function transferAdmin (address _user) public adminOnly{... */\n      pop\n      jump\t// out\n        /* \"Day 5/AdminOnly.sol\":948:1175  function withdrawal( uint _amt) public hasWithdrawnYet {... */\n    tag_32:\n        /* \"Day 5/AdminOnly.sol\":434:446  hasWithdrawn */\n      0x04\n        /* \"Day 5/AdminOnly.sol\":434:458  hasWithdrawn[msg.sender] */\n      0x00\n        /* \"Day 5/AdminOnly.sol\":447:457  msg.sender */\n      caller\n        /* \"Day 5/AdminOnly.sol\":434:458  hasWithdrawn[msg.sender] */\n      0xffffffffffffffffffffffffffffffffffffffff\n      and\n      0xffffffffffffffffffffffffffffffffffffffff\n      and\n      dup2\n      mstore\n      0x20\n      add\n      swap1\n      dup2\n      mstore\n      0x20\n      add\n      0x00\n      keccak256\n      0x00\n      swap1\n      sload\n      swap1\n      0x0100\n      exp\n      swap1\n      div\n      0xff\n      and\n        /* \"Day 5/AdminOnly.sol\":433:458  !hasWithdrawn[msg.sender] */\n      iszero\n        /* \"Day 5/AdminOnly.sol\":425:495  require(!hasWithdrawn[msg.sender], \"You have already withdraw amount\") */\n      tag_50\n      jumpi\n      mload(0x40)\n      0x08c379a000000000000000000000000000000000000000000000000000000000\n      dup2\n      mstore\n      0x04\n      add\n      tag_51\n      swap1\n      tag_52\n      jump\t// in\n    tag_51:\n      mload(0x40)\n      dup1\n      swap2\n      sub\n      swap1\n      revert\n    tag_50:\n        /* \"Day 5/AdminOnly.sol\":1022:1033  checkUser() */\n      tag_54\n        /* \"Day 5/AdminOnly.sol\":1022:1031  checkUser */\n      tag_55\n        /* \"Day 5/AdminOnly.sol\":1022:1033  checkUser() */\n      jump\t// in\n    tag_54:\n        /* \"Day 5/AdminOnly.sol\":1014:1069  require(checkUser(), \"You are not allowed to withdraw\") */\n      tag_56\n      jumpi\n      mload(0x40)\n      0x08c379a000000000000000000000000000000000000000000000000000000000\n      dup2\n      mstore\n      0x04\n      add\n      tag_57\n      swap1\n      tag_58\n      jump\t// in\n    tag_57:\n      mload(0x40)\n      dup1\n      swap2\n      sub\n      swap1\n      revert\n    tag_56:\n        /* \"Day 5/AdminOnly.sol\":1088:1092  _amt */\n      dup1\n        /* \"Day 5/AdminOnly.sol\":1082:1085  amt */\n      0x03\n        /* \"Day 5/AdminOnly.sol\":1082:1092  amt = _amt */\n      dup2\n      swap1\n      sstore\n      pop\n        /* \"Day 5/AdminOnly.sol\":1120:1124  _amt */\n      dup1\n        /* \"Day 5/AdminOnly.sol\":1112:1117  chest */\n      sload(0x01)\n        /* \"Day 5/AdminOnly.sol\":1112:1124  chest - _amt */\n      tag_59\n      swap2\n      swap1\n      tag_60\n      jump\t// in\n    tag_59:\n        /* \"Day 5/AdminOnly.sol\":1103:1108  chest */\n      0x01\n        /* \"Day 5/AdminOnly.sol\":1103:1125  chest = (chest - _amt) */\n      dup2\n      swap1\n      sstore\n      pop\n        /* \"Day 5/AdminOnly.sol\":1163:1167  true */\n      0x01\n        /* \"Day 5/AdminOnly.sol\":1136:1148  hasWithdrawn */\n      0x04\n        /* \"Day 5/AdminOnly.sol\":1136:1160  hasWithdrawn[msg.sender] */\n      0x00\n        /* \"Day 5/AdminOnly.sol\":1149:1159  msg.sender */\n      caller\n        /* \"Day 5/AdminOnly.sol\":1136:1160  hasWithdrawn[msg.sender] */\n      0xffffffffffffffffffffffffffffffffffffffff\n      and\n      0xffffffffffffffffffffffffffffffffffffffff\n      and\n      dup2\n      mstore\n      0x20\n      add\n      swap1\n      dup2\n      mstore\n      0x20\n      add\n      0x00\n      keccak256\n      0x00\n        /* \"Day 5/AdminOnly.sol\":1136:1167  hasWithdrawn[msg.sender] = true */\n      0x0100\n      exp\n      dup2\n      sload\n      dup2\n      0xff\n      mul\n      not\n      and\n      swap1\n      dup4\n      iszero\n      iszero\n      mul\n      or\n      swap1\n      sstore\n      pop\n        /* \"Day 5/AdminOnly.sol\":948:1175  function withdrawal( uint _amt) public hasWithdrawnYet {... */\n      pop\n      jump\t// out\n        /* \"Day 5/AdminOnly.sol\":1183:1244  function reset() public adminOnly{... */\n    tag_34:\n        /* \"Day 5/AdminOnly.sol\":350:360  msg.sender */\n      caller\n        /* \"Day 5/AdminOnly.sol\":341:360  admin == msg.sender */\n      0xffffffffffffffffffffffffffffffffffffffff\n      and\n        /* \"Day 5/AdminOnly.sol\":341:346  admin */\n      0x00\n      0x00\n      swap1\n      sload\n      swap1\n      0x0100\n      exp\n      swap1\n      div\n      0xffffffffffffffffffffffffffffffffffffffff\n      and\n        /* \"Day 5/AdminOnly.sol\":341:360  admin == msg.sender */\n      0xffffffffffffffffffffffffffffffffffffffff\n      and\n      eq\n        /* \"Day 5/AdminOnly.sol\":333:361  require(admin == msg.sender) */\n      tag_62\n      jumpi\n      revert(0x00, 0x00)\n    tag_62:\n        /* \"Day 5/AdminOnly.sol\":1235:1236  0 */\n      0x00\n        /* \"Day 5/AdminOnly.sol\":1227:1232  chest */\n      0x01\n        /* \"Day 5/AdminOnly.sol\":1227:1236  chest = 0 */\n      dup2\n      swap1\n      sstore\n      pop\n        /* \"Day 5/AdminOnly.sol\":1183:1244  function reset() public adminOnly{... */\n      jump\t// out\n        /* \"Day 5/AdminOnly.sol\":523:607  function addTreasure(uint _chest) public adminOnly {... */\n    tag_37:\n        /* \"Day 5/AdminOnly.sol\":350:360  msg.sender */\n      caller\n        /* \"Day 5/AdminOnly.sol\":341:360  admin == msg.sender */\n      0xffffffffffffffffffffffffffffffffffffffff\n      and\n        /* \"Day 5/AdminOnly.sol\":341:346  admin */\n      0x00\n      0x00\n      swap1\n      sload\n      swap1\n      0x0100\n      exp\n      swap1\n      div\n      0xffffffffffffffffffffffffffffffffffffffff\n      and\n        /* \"Day 5/AdminOnly.sol\":341:360  admin == msg.sender */\n      0xffffffffffffffffffffffffffffffffffffffff\n      and\n      eq\n        /* \"Day 5/AdminOnly.sol\":333:361  require(admin == msg.sender) */\n      tag_65\n      jumpi\n      revert(0x00, 0x00)\n    tag_65:\n        /* \"Day 5/AdminOnly.sol\":593:599  _chest */\n      dup1\n        /* \"Day 5/AdminOnly.sol\":585:590  chest */\n      0x01\n        /* \"Day 5/AdminOnly.sol\":585:599  chest = _chest */\n      dup2\n      swap1\n      sstore\n      pop\n        /* \"Day 5/AdminOnly.sol\":523:607  function addTreasure(uint _chest) public adminOnly {... */\n      pop\n      jump\t// out\n        /* \"Day 5/AdminOnly.sol\":615:704  function allowedUsers(address _user) public adminOnly{... */\n    tag_40:\n        /* \"Day 5/AdminOnly.sol\":350:360  msg.sender */\n      caller\n        /* \"Day 5/AdminOnly.sol\":341:360  admin == msg.sender */\n      0xffffffffffffffffffffffffffffffffffffffff\n      and\n        /* \"Day 5/AdminOnly.sol\":341:346  admin */\n      0x00\n      0x00\n      swap1\n      sload\n      swap1\n      0x0100\n      exp\n      swap1\n      div\n      0xffffffffffffffffffffffffffffffffffffffff\n      and\n        /* \"Day 5/AdminOnly.sol\":341:360  admin == msg.sender */\n      0xffffffffffffffffffffffffffffffffffffffff\n      and\n      eq\n        /* \"Day 5/AdminOnly.sol\":333:361  require(admin == msg.sender) */\n      tag_68\n      jumpi\n      revert(0x00, 0x00)\n    tag_68:\n        /* \"Day 5/AdminOnly.sol\":679:684  users */\n      0x02\n        /* \"Day 5/AdminOnly.sol\":690:695  _user */\n      dup2\n        /* \"Day 5/AdminOnly.sol\":679:696  users.push(_user) */\n      swap1\n      dup1\n      0x01\n      dup2\n      sload\n      add\n      dup1\n      dup3\n      sstore\n      dup1\n      swap2\n      pop\n      pop\n      0x01\n      swap1\n      sub\n      swap1\n      0x00\n      mstore\n      keccak256(0x00, 0x20)\n      add\n      0x00\n      swap1\n      swap2\n      swap1\n      swap2\n      swap1\n      swap2\n      0x0100\n      exp\n      dup2\n      sload\n      dup2\n      0xffffffffffffffffffffffffffffffffffffffff\n      mul\n      not\n      and\n      swap1\n      dup4\n      0xffffffffffffffffffffffffffffffffffffffff\n      and\n      mul\n      or\n      swap1\n      sstore\n      pop\n        /* \"Day 5/AdminOnly.sol\":615:704  function allowedUsers(address _user) public adminOnly{... */\n      pop\n      jump\t// out\n        /* \"Day 5/AdminOnly.sol\":87:107  address public admin */\n    tag_42:\n      0x00\n      0x00\n      swap1\n      sload\n      swap1\n      0x0100\n      exp\n      swap1\n      div\n      0xffffffffffffffffffffffffffffffffffffffff\n      and\n      dup2\n      jump\t// out\n        /* \"Day 5/AdminOnly.sol\":712:940  function checkUser () internal view returns (bool){... */\n    tag_55:\n        /* \"Day 5/AdminOnly.sol\":757:761  bool */\n      0x00\n        /* \"Day 5/AdminOnly.sol\":778:784  uint i */\n      0x00\n        /* \"Day 5/AdminOnly.sol\":787:788  0 */\n      0x00\n        /* \"Day 5/AdminOnly.sol\":778:788  uint i = 0 */\n      swap1\n      pop\n        /* \"Day 5/AdminOnly.sol\":773:910  for (uint i = 0; i < users.length; i++){... */\n    tag_72:\n        /* \"Day 5/AdminOnly.sol\":794:799  users */\n      0x02\n        /* \"Day 5/AdminOnly.sol\":794:806  users.length */\n      dup1\n      sload\n      swap1\n      pop\n        /* \"Day 5/AdminOnly.sol\":790:791  i */\n      dup2\n        /* \"Day 5/AdminOnly.sol\":790:806  i < users.length */\n      lt\n        /* \"Day 5/AdminOnly.sol\":773:910  for (uint i = 0; i < users.length; i++){... */\n      iszero\n      tag_73\n      jumpi\n        /* \"Day 5/AdminOnly.sol\":842:852  msg.sender */\n      caller\n        /* \"Day 5/AdminOnly.sol\":830:852  users[i] == msg.sender */\n      0xffffffffffffffffffffffffffffffffffffffff\n      and\n        /* \"Day 5/AdminOnly.sol\":830:835  users */\n      0x02\n        /* \"Day 5/AdminOnly.sol\":836:837  i */\n      dup3\n        /* \"Day 5/AdminOnly.sol\":830:838  users[i] */\n      dup2\n      sload\n      dup2\n      lt\n      tag_75\n      jumpi\n      tag_76\n      tag_77\n      jump\t// in\n    tag_76:\n    tag_75:\n      swap1\n      0x00\n      mstore\n      keccak256(0x00, 0x20)\n      add\n      0x00\n      swap1\n      sload\n      swap1\n      0x0100\n      exp\n      swap1\n      div\n      0xffffffffffffffffffffffffffffffffffffffff\n      and\n        /* \"Day 5/AdminOnly.sol\":830:852  users[i] == msg.sender */\n      0xffffffffffffffffffffffffffffffffffffffff\n      and\n      sub\n        /* \"Day 5/AdminOnly.sol\":827:899  if(users[i] == msg.sender){... */\n      tag_79\n      jumpi\n        /* \"Day 5/AdminOnly.sol\":879:883  true */\n      0x01\n        /* \"Day 5/AdminOnly.sol\":872:883  return true */\n      swap2\n      pop\n      pop\n      jump(tag_71)\n        /* \"Day 5/AdminOnly.sol\":827:899  if(users[i] == msg.sender){... */\n    tag_79:\n        /* \"Day 5/AdminOnly.sol\":808:811  i++ */\n      dup1\n      dup1\n      0x01\n      add\n      swap2\n      pop\n      pop\n        /* \"Day 5/AdminOnly.sol\":773:910  for (uint i = 0; i < users.length; i++){... */\n      jump(tag_72)\n    tag_73:\n      pop\n        /* \"Day 5/AdminOnly.sol\":927:932  false */\n      0x00\n        /* \"Day 5/AdminOnly.sol\":920:932  return false */\n      swap1\n      pop\n        /* \"Day 5/AdminOnly.sol\":712:940  function checkUser () internal view returns (bool){... */\n    tag_71:\n      swap1\n      jump\t// out\n        /* \"#utility.yul\":7:84   */\n    tag_80:\n        /* \"#utility.yul\":44:51   */\n      0x00\n        /* \"#utility.yul\":73:78   */\n      dup2\n        /* \"#utility.yul\":62:78   */\n      swap1\n      pop\n        /* \"#utility.yul\":7:84   */\n      swap2\n      swap1\n      pop\n      jump\t// out\n        /* \"#utility.yul\":90:208   */\n    tag_81:\n        /* \"#utility.yul\":177:201   */\n      tag_101\n        /* \"#utility.yul\":195:200   */\n      dup2\n        /* \"#utility.yul\":177:201   */\n      tag_80\n      jump\t// in\n    tag_101:\n        /* \"#utility.yul\":172:175   */\n      dup3\n        /* \"#utility.yul\":165:202   */\n      mstore\n        /* \"#utility.yul\":90:208   */\n      pop\n      pop\n      jump\t// out\n        /* \"#utility.yul\":214:436   */\n    tag_16:\n        /* \"#utility.yul\":307:311   */\n      0x00\n        /* \"#utility.yul\":345:347   */\n      0x20\n        /* \"#utility.yul\":334:343   */\n      dup3\n        /* \"#utility.yul\":330:348   */\n      add\n        /* \"#utility.yul\":322:348   */\n      swap1\n      pop\n        /* \"#utility.yul\":358:429   */\n      tag_103\n        /* \"#utility.yul\":426:427   */\n      0x00\n        /* \"#utility.yul\":415:424   */\n      dup4\n        /* \"#utility.yul\":411:428   */\n      add\n        /* \"#utility.yul\":402:408   */\n      dup5\n        /* \"#utility.yul\":358:429   */\n      tag_81\n      jump\t// in\n    tag_103:\n        /* \"#utility.yul\":214:436   */\n      swap3\n      swap2\n      pop\n      pop\n      jump\t// out\n        /* \"#utility.yul\":523:640   */\n    tag_83:\n        /* \"#utility.yul\":632:633   */\n      0x00\n        /* \"#utility.yul\":629:630   */\n      0x00\n        /* \"#utility.yul\":622:634   */\n      revert\n        /* \"#utility.yul\":769:891   */\n    tag_85:\n        /* \"#utility.yul\":842:866   */\n      tag_108\n        /* \"#utility.yul\":860:865   */\n      dup2\n        /* \"#utility.yul\":842:866   */\n      tag_80\n      jump\t// in\n    tag_108:\n        /* \"#utility.yul\":835:840   */\n      dup2\n        /* \"#utility.yul\":832:867   */\n      eq\n        /* \"#utility.yul\":822:885   */\n      tag_109\n      jumpi\n        /* \"#utility.yul\":881:882   */\n      0x00\n        /* \"#utility.yul\":878:879   */\n      0x00\n        /* \"#utility.yul\":871:883   */\n      revert\n        /* \"#utility.yul\":822:885   */\n    tag_109:\n        /* \"#utility.yul\":769:891   */\n      pop\n      jump\t// out\n        /* \"#utility.yul\":897:1036   */\n    tag_86:\n        /* \"#utility.yul\":943:948   */\n      0x00\n        /* \"#utility.yul\":981:987   */\n      dup2\n        /* \"#utility.yul\":968:988   */\n      calldataload\n        /* \"#utility.yul\":959:988   */\n      swap1\n      pop\n        /* \"#utility.yul\":997:1030   */\n      tag_111\n        /* \"#utility.yul\":1024:1029   */\n      dup2\n        /* \"#utility.yul\":997:1030   */\n      tag_85\n      jump\t// in\n    tag_111:\n        /* \"#utility.yul\":897:1036   */\n      swap3\n      swap2\n      pop\n      pop\n      jump\t// out\n        /* \"#utility.yul\":1042:1371   */\n    tag_19:\n        /* \"#utility.yul\":1101:1107   */\n      0x00\n        /* \"#utility.yul\":1150:1152   */\n      0x20\n        /* \"#utility.yul\":1138:1147   */\n      dup3\n        /* \"#utility.yul\":1129:1136   */\n      dup5\n        /* \"#utility.yul\":1125:1148   */\n      sub\n        /* \"#utility.yul\":1121:1153   */\n      slt\n        /* \"#utility.yul\":1118:1237   */\n      iszero\n      tag_113\n      jumpi\n        /* \"#utility.yul\":1156:1235   */\n      tag_114\n      tag_83\n      jump\t// in\n    tag_114:\n        /* \"#utility.yul\":1118:1237   */\n    tag_113:\n        /* \"#utility.yul\":1276:1277   */\n      0x00\n        /* \"#utility.yul\":1301:1354   */\n      tag_115\n        /* \"#utility.yul\":1346:1353   */\n      dup5\n        /* \"#utility.yul\":1337:1343   */\n      dup3\n        /* \"#utility.yul\":1326:1335   */\n      dup6\n        /* \"#utility.yul\":1322:1344   */\n      add\n        /* \"#utility.yul\":1301:1354   */\n      tag_86\n      jump\t// in\n    tag_115:\n        /* \"#utility.yul\":1291:1354   */\n      swap2\n      pop\n        /* \"#utility.yul\":1247:1364   */\n      pop\n        /* \"#utility.yul\":1042:1371   */\n      swap3\n      swap2\n      pop\n      pop\n      jump\t// out\n        /* \"#utility.yul\":1377:1503   */\n    tag_87:\n        /* \"#utility.yul\":1414:1421   */\n      0x00\n        /* \"#utility.yul\":1454:1496   */\n      0xffffffffffffffffffffffffffffffffffffffff\n        /* \"#utility.yul\":1447:1452   */\n      dup3\n        /* \"#utility.yul\":1443:1497   */\n      and\n        /* \"#utility.yul\":1432:1497   */\n      swap1\n      pop\n        /* \"#utility.yul\":1377:1503   */\n      swap2\n      swap1\n      pop\n      jump\t// out\n        /* \"#utility.yul\":1509:1605   */\n    tag_88:\n        /* \"#utility.yul\":1546:1553   */\n      0x00\n        /* \"#utility.yul\":1575:1599   */\n      tag_118\n        /* \"#utility.yul\":1593:1598   */\n      dup3\n        /* \"#utility.yul\":1575:1599   */\n      tag_87\n      jump\t// in\n    tag_118:\n        /* \"#utility.yul\":1564:1599   */\n      swap1\n      pop\n        /* \"#utility.yul\":1509:1605   */\n      swap2\n      swap1\n      pop\n      jump\t// out\n        /* \"#utility.yul\":1611:1729   */\n    tag_89:\n        /* \"#utility.yul\":1698:1722   */\n      tag_120\n        /* \"#utility.yul\":1716:1721   */\n      dup2\n        /* \"#utility.yul\":1698:1722   */\n      tag_88\n      jump\t// in\n    tag_120:\n        /* \"#utility.yul\":1693:1696   */\n      dup3\n        /* \"#utility.yul\":1686:1723   */\n      mstore\n        /* \"#utility.yul\":1611:1729   */\n      pop\n      pop\n      jump\t// out\n        /* \"#utility.yul\":1735:1957   */\n    tag_22:\n        /* \"#utility.yul\":1828:1832   */\n      0x00\n        /* \"#utility.yul\":1866:1868   */\n      0x20\n        /* \"#utility.yul\":1855:1864   */\n      dup3\n        /* \"#utility.yul\":1851:1869   */\n      add\n        /* \"#utility.yul\":1843:1869   */\n      swap1\n      pop\n        /* \"#utility.yul\":1879:1950   */\n      tag_122\n        /* \"#utility.yul\":1947:1948   */\n      0x00\n        /* \"#utility.yul\":1936:1945   */\n      dup4\n        /* \"#utility.yul\":1932:1949   */\n      add\n        /* \"#utility.yul\":1923:1929   */\n      dup5\n        /* \"#utility.yul\":1879:1950   */\n      tag_89\n      jump\t// in\n    tag_122:\n        /* \"#utility.yul\":1735:1957   */\n      swap3\n      swap2\n      pop\n      pop\n      jump\t// out\n        /* \"#utility.yul\":1963:2085   */\n    tag_90:\n        /* \"#utility.yul\":2036:2060   */\n      tag_124\n        /* \"#utility.yul\":2054:2059   */\n      dup2\n        /* \"#utility.yul\":2036:2060   */\n      tag_88\n      jump\t// in\n    tag_124:\n        /* \"#utility.yul\":2029:2034   */\n      dup2\n        /* \"#utility.yul\":2026:2061   */\n      eq\n        /* \"#utility.yul\":2016:2079   */\n      tag_125\n      jumpi\n        /* \"#utility.yul\":2075:2076   */\n      0x00\n        /* \"#utility.yul\":2072:2073   */\n      0x00\n        /* \"#utility.yul\":2065:2077   */\n      revert\n        /* \"#utility.yul\":2016:2079   */\n    tag_125:\n        /* \"#utility.yul\":1963:2085   */\n      pop\n      jump\t// out\n        /* \"#utility.yul\":2091:2230   */\n    tag_91:\n        /* \"#utility.yul\":2137:2142   */\n      0x00\n        /* \"#utility.yul\":2175:2181   */\n      dup2\n        /* \"#utility.yul\":2162:2182   */\n      calldataload\n        /* \"#utility.yul\":2153:2182   */\n      swap1\n      pop\n        /* \"#utility.yul\":2191:2224   */\n      tag_127\n        /* \"#utility.yul\":2218:2223   */\n      dup2\n        /* \"#utility.yul\":2191:2224   */\n      tag_90\n      jump\t// in\n    tag_127:\n        /* \"#utility.yul\":2091:2230   */\n      swap3\n      swap2\n      pop\n      pop\n      jump\t// out\n        /* \"#utility.yul\":2236:2565   */\n    tag_28:\n        /* \"#utility.yul\":2295:2301   */\n      0x00\n        /* \"#utility.yul\":2344:2346   */\n      0x20\n        /* \"#utility.yul\":2332:2341   */\n      dup3\n        /* \"#utility.yul\":2323:2330   */\n      dup5\n        /* \"#utility.yul\":2319:2342   */\n      sub\n        /* \"#utility.yul\":2315:2347   */\n      slt\n        /* \"#utility.yul\":2312:2431   */\n      iszero\n      tag_129\n      jumpi\n        /* \"#utility.yul\":2350:2429   */\n      tag_130\n      tag_83\n      jump\t// in\n    tag_130:\n        /* \"#utility.yul\":2312:2431   */\n    tag_129:\n        /* \"#utility.yul\":2470:2471   */\n      0x00\n        /* \"#utility.yul\":2495:2548   */\n      tag_131\n        /* \"#utility.yul\":2540:2547   */\n      dup5\n        /* \"#utility.yul\":2531:2537   */\n      dup3\n        /* \"#utility.yul\":2520:2529   */\n      dup6\n        /* \"#utility.yul\":2516:2538   */\n      add\n        /* \"#utility.yul\":2495:2548   */\n      tag_91\n      jump\t// in\n    tag_131:\n        /* \"#utility.yul\":2485:2548   */\n      swap2\n      pop\n        /* \"#utility.yul\":2441:2558   */\n      pop\n        /* \"#utility.yul\":2236:2565   */\n      swap3\n      swap2\n      pop\n      pop\n      jump\t// out\n        /* \"#utility.yul\":2571:2740   */\n    tag_92:\n        /* \"#utility.yul\":2655:2666   */\n      0x00\n        /* \"#utility.yul\":2689:2695   */\n      dup3\n        /* \"#utility.yul\":2684:2687   */\n      dup3\n        /* \"#utility.yul\":2677:2696   */\n      mstore\n        /* \"#utility.yul\":2729:2733   */\n      0x20\n        /* \"#utility.yul\":2724:2727   */\n      dup3\n        /* \"#utility.yul\":2720:2734   */\n      add\n        /* \"#utility.yul\":2705:2734   */\n      swap1\n      pop\n        /* \"#utility.yul\":2571:2740   */\n      swap3\n      swap2\n      pop\n      pop\n      jump\t// out\n        /* \"#utility.yul\":2746:2928   */\n    tag_93:\n        /* \"#utility.yul\":2886:2920   */\n      0x596f75206861766520616c726561647920776974686472617720616d6f756e74\n        /* \"#utility.yul\":2882:2883   */\n      0x00\n        /* \"#utility.yul\":2874:2880   */\n      dup3\n        /* \"#utility.yul\":2870:2884   */\n      add\n        /* \"#utility.yul\":2863:2921   */\n      mstore\n        /* \"#utility.yul\":2746:2928   */\n      pop\n      jump\t// out\n        /* \"#utility.yul\":2934:3300   */\n    tag_94:\n        /* \"#utility.yul\":3076:3079   */\n      0x00\n        /* \"#utility.yul\":3097:3164   */\n      tag_135\n        /* \"#utility.yul\":3161:3163   */\n      0x20\n        /* \"#utility.yul\":3156:3159   */\n      dup4\n        /* \"#utility.yul\":3097:3164   */\n      tag_92\n      jump\t// in\n    tag_135:\n        /* \"#utility.yul\":3090:3164   */\n      swap2\n      pop\n        /* \"#utility.yul\":3173:3266   */\n      tag_136\n        /* \"#utility.yul\":3262:3265   */\n      dup3\n        /* \"#utility.yul\":3173:3266   */\n      tag_93\n      jump\t// in\n    tag_136:\n        /* \"#utility.yul\":3291:3293   */\n      0x20\n        /* \"#utility.yul\":3286:3289   */\n      dup3\n        /* \"#utility.yul\":3282:3294   */\n      add\n        /* \"#utility.yul\":3275:3294   */\n      swap1\n      pop\n        /* \"#utility.yul\":2934:3300   */\n      swap2\n      swap1\n      pop\n      jump\t// out\n        /* \"#utility.yul\":3306:3725   */\n    tag_52:\n        /* \"#utility.yul\":3472:3476   */\n      0x00\n        /* \"#utility.yul\":3510:3512   */\n      0x20\n        /* \"#utility.yul\":3499:3508   */\n      dup3\n        /* \"#utility.yul\":3495:3513   */\n      add\n        /* \"#utility.yul\":3487:3513   */\n      swap1\n      pop\n        /* \"#utility.yul\":3559:3568   */\n      dup2\n        /* \"#utility.yul\":3553:3557   */\n      dup2\n        /* \"#utility.yul\":3549:3569   */\n      sub\n        /* \"#utility.yul\":3545:3546   */\n      0x00\n        /* \"#utility.yul\":3534:3543   */\n      dup4\n        /* \"#utility.yul\":3530:3547   */\n      add\n        /* \"#utility.yul\":3523:3570   */\n      mstore\n        /* \"#utility.yul\":3587:3718   */\n      tag_138\n        /* \"#utility.yul\":3713:3717   */\n      dup2\n        /* \"#utility.yul\":3587:3718   */\n      tag_94\n      jump\t// in\n    tag_138:\n        /* \"#utility.yul\":3579:3718   */\n      swap1\n      pop\n        /* \"#utility.yul\":3306:3725   */\n      swap2\n      swap1\n      pop\n      jump\t// out\n        /* \"#utility.yul\":3731:3912   */\n    tag_95:\n        /* \"#utility.yul\":3871:3904   */\n      0x596f7520617265206e6f7420616c6c6f77656420746f20776974686472617700\n        /* \"#utility.yul\":3867:3868   */\n      0x00\n        /* \"#utility.yul\":3859:3865   */\n      dup3\n        /* \"#utility.yul\":3855:3869   */\n      add\n        /* \"#utility.yul\":3848:3905   */\n      mstore\n        /* \"#utility.yul\":3731:3912   */\n      pop\n      jump\t// out\n        /* \"#utility.yul\":3918:4284   */\n    tag_96:\n        /* \"#utility.yul\":4060:4063   */\n      0x00\n        /* \"#utility.yul\":4081:4148   */\n      tag_141\n        /* \"#utility.yul\":4145:4147   */\n      0x1f\n        /* \"#utility.yul\":4140:4143   */\n      dup4\n        /* \"#utility.yul\":4081:4148   */\n      tag_92\n      jump\t// in\n    tag_141:\n        /* \"#utility.yul\":4074:4148   */\n      swap2\n      pop\n        /* \"#utility.yul\":4157:4250   */\n      tag_142\n        /* \"#utility.yul\":4246:4249   */\n      dup3\n        /* \"#utility.yul\":4157:4250   */\n      tag_95\n      jump\t// in\n    tag_142:\n        /* \"#utility.yul\":4275:4277   */\n      0x20\n        /* \"#utility.yul\":4270:4273   */\n      dup3\n        /* \"#utility.yul\":4266:4278   */\n      add\n        /* \"#utility.yul\":4259:4278   */\n      swap1\n      pop\n        /* \"#utility.yul\":3918:4284   */\n      swap2\n      swap1\n      pop\n      jump\t// out\n        /* \"#utility.yul\":4290:4709   */\n    tag_58:\n        /* \"#utility.yul\":4456:4460   */\n      0x00\n        /* \"#utility.yul\":4494:4496   */\n      0x20\n        /* \"#utility.yul\":4483:4492   */\n      dup3\n        /* \"#utility.yul\":4479:4497   */\n      add\n        /* \"#utility.yul\":4471:4497   */\n      swap1\n      pop\n        /* \"#utility.yul\":4543:4552   */\n      dup2\n        /* \"#utility.yul\":4537:4541   */\n      dup2\n        /* \"#utility.yul\":4533:4553   */\n      sub\n        /* \"#utility.yul\":4529:4530   */\n      0x00\n        /* \"#utility.yul\":4518:4527   */\n      dup4\n        /* \"#utility.yul\":4514:4531   */\n      add\n        /* \"#utility.yul\":4507:4554   */\n      mstore\n        /* \"#utility.yul\":4571:4702   */\n      tag_144\n        /* \"#utility.yul\":4697:4701   */\n      dup2\n        /* \"#utility.yul\":4571:4702   */\n      tag_96\n      jump\t// in\n    tag_144:\n        /* \"#utility.yul\":4563:4702   */\n      swap1\n      pop\n        /* \"#utility.yul\":4290:4709   */\n      swap2\n      swap1\n      pop\n      jump\t// out\n        /* \"#utility.yul\":4715:4895   */\n    tag_97:\n        /* \"#utility.yul\":4763:4840   */\n      0x4e487b7100000000000000000000000000000000000000000000000000000000\n        /* \"#utility.yul\":4760:4761   */\n      0x00\n        /* \"#utility.yul\":4753:4841   */\n      mstore\n        /* \"#utility.yul\":4860:4864   */\n      0x11\n        /* \"#utility.yul\":4857:4858   */\n      0x04\n        /* \"#utility.yul\":4850:4865   */\n      mstore\n        /* \"#utility.yul\":4884:4888   */\n      0x24\n        /* \"#utility.yul\":4881:4882   */\n      0x00\n        /* \"#utility.yul\":4874:4889   */\n      revert\n        /* \"#utility.yul\":4901:5095   */\n    tag_60:\n        /* \"#utility.yul\":4941:4945   */\n      0x00\n        /* \"#utility.yul\":4961:4981   */\n      tag_147\n        /* \"#utility.yul\":4979:4980   */\n      dup3\n        /* \"#utility.yul\":4961:4981   */\n      tag_80\n      jump\t// in\n    tag_147:\n        /* \"#utility.yul\":4956:4981   */\n      swap2\n      pop\n        /* \"#utility.yul\":4995:5015   */\n      tag_148\n        /* \"#utility.yul\":5013:5014   */\n      dup4\n        /* \"#utility.yul\":4995:5015   */\n      tag_80\n      jump\t// in\n    tag_148:\n        /* \"#utility.yul\":4990:5015   */\n      swap3\n      pop\n        /* \"#utility.yul\":5039:5040   */\n      dup3\n        /* \"#utility.yul\":5036:5037   */\n      dup3\n        /* \"#utility.yul\":5032:5041   */\n      sub\n        /* \"#utility.yul\":5024:5041   */\n      swap1\n      pop\n        /* \"#utility.yul\":5063:5064   */\n      dup2\n        /* \"#utility.yul\":5057:5061   */\n      dup2\n        /* \"#utility.yul\":5054:5065   */\n      gt\n        /* \"#utility.yul\":5051:5088   */\n      iszero\n      tag_149\n      jumpi\n        /* \"#utility.yul\":5068:5086   */\n      tag_150\n      tag_97\n      jump\t// in\n    tag_150:\n        /* \"#utility.yul\":5051:5088   */\n    tag_149:\n        /* \"#utility.yul\":4901:5095   */\n      swap3\n      swap2\n      pop\n      pop\n      jump\t// out\n        /* \"#utility.yul\":5101:5281   */\n    tag_77:\n        /* \"#utility.yul\":5149:5226   */\n      0x4e487b7100000000000000000000000000000000000000000000000000000000\n        /* \"#utility.yul\":5146:5147   */\n      0x00\n        /* \"#utility.yul\":5139:5227   */\n      mstore\n        /* \"#utility.yul\":5246:5250   */\n      0x32\n        /* \"#utility.yul\":5243:5244   */\n      0x04\n        /* \"#utility.yul\":5236:5251   */\n      mstore\n        /* \"#utility.yul\":5270:5274   */\n      0x24\n        /* \"#utility.yul\":5267:5268   */\n      0x00\n        /* \"#utility.yul\":5260:5275   */\n      revert\n\n    auxdata: 0xa2646970667358221220c8202b5fcbe6021c8b34cc557661af970506ef08ec7af8bd0ef6c4bd1fbdb7cf64736f6c634300081e0033\n}\n",
				"bytecode": {
					"linkReferences": {},
					"object": "6080604052348015600e575f5ffd5b50335f5f6101000a81548173ffffffffffffffffffffffffffffffffffffffff021916908373ffffffffffffffffffffffffffffffffffffffff1602179055506108d68061005b5f395ff3fe608060405234801561000f575f5ffd5b5060043610610091575f3560e01c8063835fc6ca11610064578063835fc6ca1461011d578063d826f88f14610139578063e014700514610143578063f3d1306d1461015f578063f851a4401461017b57610091565b806316eab96b14610095578063365b98b2146100b357806364026ac0146100e357806375829def14610101575b5f5ffd5b61009d610199565b6040516100aa9190610614565b60405180910390f35b6100cd60048036038101906100c8919061065b565b61019f565b6040516100da91906106c5565b60405180910390f35b6100eb6101da565b6040516100f89190610614565b60405180910390f35b61011b60048036038101906101169190610708565b6101e0565b005b6101376004803603810190610132919061065b565b610279565b005b6101416103bd565b005b61015d6004803603810190610158919061065b565b61041d565b005b61017960048036038101906101749190610708565b61047e565b005b610183610538565b60405161019091906106c5565b60405180910390f35b60035481565b600281815481106101ae575f80fd5b905f5260205f20015f915054906101000a900473ffffffffffffffffffffffffffffffffffffffff1681565b60015481565b3373ffffffffffffffffffffffffffffffffffffffff165f5f9054906101000a900473ffffffffffffffffffffffffffffffffffffffff1673ffffffffffffffffffffffffffffffffffffffff1614610237575f5ffd5b805f5f6101000a81548173ffffffffffffffffffffffffffffffffffffffff021916908373ffffffffffffffffffffffffffffffffffffffff16021790555050565b60045f3373ffffffffffffffffffffffffffffffffffffffff1673ffffffffffffffffffffffffffffffffffffffff1681526020019081526020015f205f9054906101000a900460ff1615610303576040517f08c379a00000000000000000000000000000000000000000000000000000000081526004016102fa9061078d565b60405180910390fd5b61030b61055c565b61034a576040517f08c379a0000000000000000000000000000000000000000000000000000000008152600401610341906107f5565b60405180910390fd5b806003819055508060015461035f9190610840565b600181905550600160045f3373ffffffffffffffffffffffffffffffffffffffff1673ffffffffffffffffffffffffffffffffffffffff1681526020019081526020015f205f6101000a81548160ff02191690831515021790555050565b3373ffffffffffffffffffffffffffffffffffffffff165f5f9054906101000a900473ffffffffffffffffffffffffffffffffffffffff1673ffffffffffffffffffffffffffffffffffffffff1614610414575f5ffd5b5f600181905550565b3373ffffffffffffffffffffffffffffffffffffffff165f5f9054906101000a900473ffffffffffffffffffffffffffffffffffffffff1673ffffffffffffffffffffffffffffffffffffffff1614610474575f5ffd5b8060018190555050565b3373ffffffffffffffffffffffffffffffffffffffff165f5f9054906101000a900473ffffffffffffffffffffffffffffffffffffffff1673ffffffffffffffffffffffffffffffffffffffff16146104d5575f5ffd5b600281908060018154018082558091505060019003905f5260205f20015f9091909190916101000a81548173ffffffffffffffffffffffffffffffffffffffff021916908373ffffffffffffffffffffffffffffffffffffffff16021790555050565b5f5f9054906101000a900473ffffffffffffffffffffffffffffffffffffffff1681565b5f5f5f90505b6002805490508110156105f4573373ffffffffffffffffffffffffffffffffffffffff166002828154811061059a57610599610873565b5b905f5260205f20015f9054906101000a900473ffffffffffffffffffffffffffffffffffffffff1673ffffffffffffffffffffffffffffffffffffffff16036105e75760019150506105f9565b8080600101915050610562565b505f90505b90565b5f819050919050565b61060e816105fc565b82525050565b5f6020820190506106275f830184610605565b92915050565b5f5ffd5b61063a816105fc565b8114610644575f5ffd5b50565b5f8135905061065581610631565b92915050565b5f602082840312156106705761066f61062d565b5b5f61067d84828501610647565b91505092915050565b5f73ffffffffffffffffffffffffffffffffffffffff82169050919050565b5f6106af82610686565b9050919050565b6106bf816106a5565b82525050565b5f6020820190506106d85f8301846106b6565b92915050565b6106e7816106a5565b81146106f1575f5ffd5b50565b5f81359050610702816106de565b92915050565b5f6020828403121561071d5761071c61062d565b5b5f61072a848285016106f4565b91505092915050565b5f82825260208201905092915050565b7f596f75206861766520616c726561647920776974686472617720616d6f756e745f82015250565b5f610777602083610733565b915061078282610743565b602082019050919050565b5f6020820190508181035f8301526107a48161076b565b9050919050565b7f596f7520617265206e6f7420616c6c6f77656420746f207769746864726177005f82015250565b5f6107df601f83610733565b91506107ea826107ab565b602082019050919050565b5f6020820190508181035f83015261080c816107d3565b9050919050565b7f4e487b71000000000000000000000000000000000000000000000000000000005f52601160045260245ffd5b5f61084a826105fc565b9150610855836105fc565b925082820390508181111561086d5761086c610813565b5b92915050565b7f4e487b71000000000000000000000000000000000000000000000000000000005f52603260045260245ffdfea2646970667358221220c8202b5fcbe6021c8b34cc557661af970506ef08ec7af8bd0ef6c4bd1fbdb7cf64736f6c634300081e0033",
					"opcodes": "PUSH1 0x80 PUSH1 0x40 MSTORE CALLVALUE DUP1 ISZERO PUSH1 0xE JUMPI PUSH0 PUSH0 REVERT JUMPDEST POP CALLER PUSH0 PUSH0 PUSH2 0x100 EXP DUP2 SLOAD DUP2 PUSH20 0xFFFFFFFFFFFFFFFFFFFFFFFFFFFFFFFFFFFFFFFF MUL NOT AND SWAP1 DUP4 PUSH20 0xFFFFFFFFFFFFFFFFFFFFFFFFFFFFFFFFFFFFFFFF AND MUL OR SWAP1 SSTORE POP PUSH2 0x8D6 DUP1 PUSH2 0x5B PUSH0 CODECOPY PUSH0 RETURN INVALID PUSH1 0x80 PUSH1 0x40 MSTORE CALLVALUE DUP1 ISZERO PUSH2 0xF JUMPI PUSH0 PUSH0 REVERT JUMPDEST POP PUSH1 0x4 CALLDATASIZE LT PUSH2 0x91 JUMPI PUSH0 CALLDATALOAD PUSH1 0xE0 SHR DUP1 PUSH4 0x835FC6CA GT PUSH2 0x64 JUMPI DUP1 PUSH4 0x835FC6CA EQ PUSH2 0x11D JUMPI DUP1 PUSH4 0xD826F88F EQ PUSH2 0x139 JUMPI DUP1 PUSH4 0xE0147005 EQ PUSH2 0x143 JUMPI DUP1 PUSH4 0xF3D1306D EQ PUSH2 0x15F JUMPI DUP1 PUSH4 0xF851A440 EQ PUSH2 0x17B JUMPI PUSH2 0x91 JUMP JUMPDEST DUP1 PUSH4 0x16EAB96B EQ PUSH2 0x95 JUMPI DUP1 PUSH4 0x365B98B2 EQ PUSH2 0xB3 JUMPI DUP1 PUSH4 0x64026AC0 EQ PUSH2 0xE3 JUMPI DUP1 PUSH4 0x75829DEF EQ PUSH2 0x101 JUMPI JUMPDEST PUSH0 PUSH0 REVERT JUMPDEST PUSH2 0x9D PUSH2 0x199 JUMP JUMPDEST PUSH1 0x40 MLOAD PUSH2 0xAA SWAP2 SWAP1 PUSH2 0x614 JUMP JUMPDEST PUSH1 0x40 MLOAD DUP1 SWAP2 SUB SWAP1 RETURN JUMPDEST PUSH2 0xCD PUSH1 0x4 DUP1 CALLDATASIZE SUB DUP2 ADD SWAP1 PUSH2 0xC8 SWAP2 SWAP1 PUSH2 0x65B JUMP JUMPDEST PUSH2 0x19F JUMP JUMPDEST PUSH1 0x40 MLOAD PUSH2 0xDA SWAP2 SWAP1 PUSH2 0x6C5 JUMP JUMPDEST PUSH1 0x40 MLOAD DUP1 SWAP2 SUB SWAP1 RETURN JUMPDEST PUSH2 0xEB PUSH2 0x1DA JUMP JUMPDEST PUSH1 0x40 MLOAD PUSH2 0xF8 SWAP2 SWAP1 PUSH2 0x614 JUMP JUMPDEST PUSH1 0x40 MLOAD DUP1 SWAP2 SUB SWAP1 RETURN JUMPDEST PUSH2 0x11B PUSH1 0x4 DUP1 CALLDATASIZE SUB DUP2 ADD SWAP1 PUSH2 0x116 SWAP2 SWAP1 PUSH2 0x708 JUMP JUMPDEST PUSH2 0x1E0 JUMP JUMPDEST STOP JUMPDEST PUSH2 0x137 PUSH1 0x4 DUP1 CALLDATASIZE SUB DUP2 ADD SWAP1 PUSH2 0x132 SWAP2 SWAP1 PUSH2 0x65B JUMP JUMPDEST PUSH2 0x279 JUMP JUMPDEST STOP JUMPDEST PUSH2 0x141 PUSH2 0x3BD JUMP JUMPDEST STOP JUMPDEST PUSH2 0x15D PUSH1 0x4 DUP1 CALLDATASIZE SUB DUP2 ADD SWAP1 PUSH2 0x158 SWAP2 SWAP1 PUSH2 0x65B JUMP JUMPDEST PUSH2 0x41D JUMP JUMPDEST STOP JUMPDEST PUSH2 0x179 PUSH1 0x4 DUP1 CALLDATASIZE SUB DUP2 ADD SWAP1 PUSH2 0x174 SWAP2 SWAP1 PUSH2 0x708 JUMP JUMPDEST PUSH2 0x47E JUMP JUMPDEST STOP JUMPDEST PUSH2 0x183 PUSH2 0x538 JUMP JUMPDEST PUSH1 0x40 MLOAD PUSH2 0x190 SWAP2 SWAP1 PUSH2 0x6C5 JUMP JUMPDEST PUSH1 0x40 MLOAD DUP1 SWAP2 SUB SWAP1 RETURN JUMPDEST PUSH1 0x3 SLOAD DUP2 JUMP JUMPDEST PUSH1 0x2 DUP2 DUP2 SLOAD DUP2 LT PUSH2 0x1AE JUMPI PUSH0 DUP1 REVERT JUMPDEST SWAP1 PUSH0 MSTORE PUSH1 0x20 PUSH0 KECCAK256 ADD PUSH0 SWAP2 POP SLOAD SWAP1 PUSH2 0x100 EXP SWAP1 DIV PUSH20 0xFFFFFFFFFFFFFFFFFFFFFFFFFFFFFFFFFFFFFFFF AND DUP2 JUMP JUMPDEST PUSH1 0x1 SLOAD DUP2 JUMP JUMPDEST CALLER PUSH20 0xFFFFFFFFFFFFFFFFFFFFFFFFFFFFFFFFFFFFFFFF AND PUSH0 PUSH0 SWAP1 SLOAD SWAP1 PUSH2 0x100 EXP SWAP1 DIV PUSH20 0xFFFFFFFFFFFFFFFFFFFFFFFFFFFFFFFFFFFFFFFF AND PUSH20 0xFFFFFFFFFFFFFFFFFFFFFFFFFFFFFFFFFFFFFFFF AND EQ PUSH2 0x237 JUMPI PUSH0 PUSH0 REVERT JUMPDEST DUP1 PUSH0 PUSH0 PUSH2 0x100 EXP DUP2 SLOAD DUP2 PUSH20 0xFFFFFFFFFFFFFFFFFFFFFFFFFFFFFFFFFFFFFFFF MUL NOT AND SWAP1 DUP4 PUSH20 0xFFFFFFFFFFFFFFFFFFFFFFFFFFFFFFFFFFFFFFFF AND MUL OR SWAP1 SSTORE POP POP JUMP JUMPDEST PUSH1 0x4 PUSH0 CALLER PUSH20 0xFFFFFFFFFFFFFFFFFFFFFFFFFFFFFFFFFFFFFFFF AND PUSH20 0xFFFFFFFFFFFFFFFFFFFFFFFFFFFFFFFFFFFFFFFF AND DUP2 MSTORE PUSH1 0x20 ADD SWAP1 DUP2 MSTORE PUSH1 0x20 ADD PUSH0 KECCAK256 PUSH0 SWAP1 SLOAD SWAP1 PUSH2 0x100 EXP SWAP1 DIV PUSH1 0xFF AND ISZERO PUSH2 0x303 JUMPI PUSH1 0x40 MLOAD PUSH32 0x8C379A000000000000000000000000000000000000000000000000000000000 DUP2 MSTORE PUSH1 0x4 ADD PUSH2 0x2FA SWAP1 PUSH2 0x78D JUMP JUMPDEST PUSH1 0x40 MLOAD DUP1 SWAP2 SUB SWAP1 REVERT JUMPDEST PUSH2 0x30B PUSH2 0x55C JUMP JUMPDEST PUSH2 0x34A JUMPI PUSH1 0x40 MLOAD PUSH32 0x8C379A000000000000000000000000000000000000000000000000000000000 DUP2 MSTORE PUSH1 0x4 ADD PUSH2 0x341 SWAP1 PUSH2 0x7F5 JUMP JUMPDEST PUSH1 0x40 MLOAD DUP1 SWAP2 SUB SWAP1 REVERT JUMPDEST DUP1 PUSH1 0x3 DUP2 SWAP1 SSTORE POP DUP1 PUSH1 0x1 SLOAD PUSH2 0x35F SWAP2 SWAP1 PUSH2 0x840 JUMP JUMPDEST PUSH1 0x1 DUP2 SWAP1 SSTORE POP PUSH1 0x1 PUSH1 0x4 PUSH0 CALLER PUSH20 0xFFFFFFFFFFFFFFFFFFFFFFFFFFFFFFFFFFFFFFFF AND PUSH20 0xFFFFFFFFFFFFFFFFFFFFFFFFFFFFFFFFFFFFFFFF AND DUP2 MSTORE PUSH1 0x20 ADD SWAP1 DUP2 MSTORE PUSH1 0x20 ADD PUSH0 KECCAK256 PUSH0 PUSH2 0x100 EXP DUP2 SLOAD DUP2 PUSH1 0xFF MUL NOT AND SWAP1 DUP4 ISZERO ISZERO MUL OR SWAP1 SSTORE POP POP JUMP JUMPDEST CALLER PUSH20 0xFFFFFFFFFFFFFFFFFFFFFFFFFFFFFFFFFFFFFFFF AND PUSH0 PUSH0 SWAP1 SLOAD SWAP1 PUSH2 0x100 EXP SWAP1 DIV PUSH20 0xFFFFFFFFFFFFFFFFFFFFFFFFFFFFFFFFFFFFFFFF AND PUSH20 0xFFFFFFFFFFFFFFFFFFFFFFFFFFFFFFFFFFFFFFFF AND EQ PUSH2 0x414 JUMPI PUSH0 PUSH0 REVERT JUMPDEST PUSH0 PUSH1 0x1 DUP2 SWAP1 SSTORE POP JUMP JUMPDEST CALLER PUSH20 0xFFFFFFFFFFFFFFFFFFFFFFFFFFFFFFFFFFFFFFFF AND PUSH0 PUSH0 SWAP1 SLOAD SWAP1 PUSH2 0x100 EXP SWAP1 DIV PUSH20 0xFFFFFFFFFFFFFFFFFFFFFFFFFFFFFFFFFFFFFFFF AND PUSH20 0xFFFFFFFFFFFFFFFFFFFFFFFFFFFFFFFFFFFFFFFF AND EQ PUSH2 0x474 JUMPI PUSH0 PUSH0 REVERT JUMPDEST DUP1 PUSH1 0x1 DUP2 SWAP1 SSTORE POP POP JUMP JUMPDEST CALLER PUSH20 0xFFFFFFFFFFFFFFFFFFFFFFFFFFFFFFFFFFFFFFFF AND PUSH0 PUSH0 SWAP1 SLOAD SWAP1 PUSH2 0x100 EXP SWAP1 DIV PUSH20 0xFFFFFFFFFFFFFFFFFFFFFFFFFFFFFFFFFFFFFFFF AND PUSH20 0xFFFFFFFFFFFFFFFFFFFFFFFFFFFFFFFFFFFFFFFF AND EQ PUSH2 0x4D5 JUMPI PUSH0 PUSH0 REVERT JUMPDEST PUSH1 0x2 DUP2 SWAP1 DUP1 PUSH1 0x1 DUP2 SLOAD ADD DUP1 DUP3 SSTORE DUP1 SWAP2 POP POP PUSH1 0x1 SWAP1 SUB SWAP1 PUSH0 MSTORE PUSH1 0x20 PUSH0 KECCAK256 ADD PUSH0 SWAP1 SWAP2 SWAP1 SWAP2 SWAP1 SWAP2 PUSH2 0x100 EXP DUP2 SLOAD DUP2 PUSH20 0xFFFFFFFFFFFFFFFFFFFFFFFFFFFFFFFFFFFFFFFF MUL NOT AND SWAP1 DUP4 PUSH20 0xFFFFFFFFFFFFFFFFFFFFFFFFFFFFFFFFFFFFFFFF AND MUL OR SWAP1 SSTORE POP POP JUMP JUMPDEST PUSH0 PUSH0 SWAP1 SLOAD SWAP1 PUSH2 0x100 EXP SWAP1 DIV PUSH20 0xFFFFFFFFFFFFFFFFFFFFFFFFFFFFFFFFFFFFFFFF AND DUP2 JUMP JUMPDEST PUSH0 PUSH0 PUSH0 SWAP1 POP JUMPDEST PUSH1 0x2 DUP1 SLOAD SWAP1 POP DUP2 LT ISZERO PUSH2 0x5F4 JUMPI CALLER PUSH20 0xFFFFFFFFFFFFFFFFFFFFFFFFFFFFFFFFFFFFFFFF AND PUSH1 0x2 DUP3 DUP2 SLOAD DUP2 LT PUSH2 0x59A JUMPI PUSH2 0x599 PUSH2 0x873 JUMP JUMPDEST JUMPDEST SWAP1 PUSH0 MSTORE PUSH1 0x20 PUSH0 KECCAK256 ADD PUSH0 SWAP1 SLOAD SWAP1 PUSH2 0x100 EXP SWAP1 DIV PUSH20 0xFFFFFFFFFFFFFFFFFFFFFFFFFFFFFFFFFFFFFFFF AND PUSH20 0xFFFFFFFFFFFFFFFFFFFFFFFFFFFFFFFFFFFFFFFF AND SUB PUSH2 0x5E7 JUMPI PUSH1 0x1 SWAP2 POP POP PUSH2 0x5F9 JUMP JUMPDEST DUP1 DUP1 PUSH1 0x1 ADD SWAP2 POP POP PUSH2 0x562 JUMP JUMPDEST POP PUSH0 SWAP1 POP JUMPDEST SWAP1 JUMP JUMPDEST PUSH0 DUP2 SWAP1 POP SWAP2 SWAP1 POP JUMP JUMPDEST PUSH2 0x60E DUP2 PUSH2 0x5FC JUMP JUMPDEST DUP3 MSTORE POP POP JUMP JUMPDEST PUSH0 PUSH1 0x20 DUP3 ADD SWAP1 POP PUSH2 0x627 PUSH0 DUP4 ADD DUP5 PUSH2 0x605 JUMP JUMPDEST SWAP3 SWAP2 POP POP JUMP JUMPDEST PUSH0 PUSH0 REVERT JUMPDEST PUSH2 0x63A DUP2 PUSH2 0x5FC JUMP JUMPDEST DUP2 EQ PUSH2 0x644 JUMPI PUSH0 PUSH0 REVERT JUMPDEST POP JUMP JUMPDEST PUSH0 DUP2 CALLDATALOAD SWAP1 POP PUSH2 0x655 DUP2 PUSH2 0x631 JUMP JUMPDEST SWAP3 SWAP2 POP POP JUMP JUMPDEST PUSH0 PUSH1 0x20 DUP3 DUP5 SUB SLT ISZERO PUSH2 0x670 JUMPI PUSH2 0x66F PUSH2 0x62D JUMP JUMPDEST JUMPDEST PUSH0 PUSH2 0x67D DUP5 DUP3 DUP6 ADD PUSH2 0x647 JUMP JUMPDEST SWAP2 POP POP SWAP3 SWAP2 POP POP JUMP JUMPDEST PUSH0 PUSH20 0xFFFFFFFFFFFFFFFFFFFFFFFFFFFFFFFFFFFFFFFF DUP3 AND SWAP1 POP SWAP2 SWAP1 POP JUMP JUMPDEST PUSH0 PUSH2 0x6AF DUP3 PUSH2 0x686 JUMP JUMPDEST SWAP1 POP SWAP2 SWAP1 POP JUMP JUMPDEST PUSH2 0x6BF DUP2 PUSH2 0x6A5 JUMP JUMPDEST DUP3 MSTORE POP POP JUMP JUMPDEST PUSH0 PUSH1 0x20 DUP3 ADD SWAP1 POP PUSH2 0x6D8 PUSH0 DUP4 ADD DUP5 PUSH2 0x6B6 JUMP JUMPDEST SWAP3 SWAP2 POP POP JUMP JUMPDEST PUSH2 0x6E7 DUP2 PUSH2 0x6A5 JUMP JUMPDEST DUP2 EQ PUSH2 0x6F1 JUMPI PUSH0 PUSH0 REVERT JUMPDEST POP JUMP JUMPDEST PUSH0 DUP2 CALLDATALOAD SWAP1 POP PUSH2 0x702 DUP2 PUSH2 0x6DE JUMP JUMPDEST SWAP3 SWAP2 POP POP JUMP JUMPDEST PUSH0 PUSH1 0x20 DUP3 DUP5 SUB SLT ISZERO PUSH2 0x71D JUMPI PUSH2 0x71C PUSH2 0x62D JUMP JUMPDEST JUMPDEST PUSH0 PUSH2 0x72A DUP5 DUP3 DUP6 ADD PUSH2 0x6F4 JUMP JUMPDEST SWAP2 POP POP SWAP3 SWAP2 POP POP JUMP JUMPDEST PUSH0 DUP3 DUP3 MSTORE PUSH1 0x20 DUP3 ADD SWAP1 POP SWAP3 SWAP2 POP POP JUMP JUMPDEST PUSH32 0x596F75206861766520616C726561647920776974686472617720616D6F756E74 PUSH0 DUP3 ADD MSTORE POP JUMP JUMPDEST PUSH0 PUSH2 0x777 PUSH1 0x20 DUP4 PUSH2 0x733 JUMP JUMPDEST SWAP2 POP PUSH2 0x782 DUP3 PUSH2 0x743 JUMP JUMPDEST PUSH1 0x20 DUP3 ADD SWAP1 POP SWAP2 SWAP1 POP JUMP JUMPDEST PUSH0 PUSH1 0x20 DUP3 ADD SWAP1 POP DUP2 DUP2 SUB PUSH0 DUP4 ADD MSTORE PUSH2 0x7A4 DUP2 PUSH2 0x76B JUMP JUMPDEST SWAP1 POP SWAP2 SWAP1 POP JUMP JUMPDEST PUSH32 0x596F7520617265206E6F7420616C6C6F77656420746F20776974686472617700 PUSH0 DUP3 ADD MSTORE POP JUMP JUMPDEST PUSH0 PUSH2 0x7DF PUSH1 0x1F DUP4 PUSH2 0x733 JUMP JUMPDEST SWAP2 POP PUSH2 0x7EA DUP3 PUSH2 0x7AB JUMP JUMPDEST PUSH1 0x20 DUP3 ADD SWAP1 POP SWAP2 SWAP1 POP JUMP JUMPDEST PUSH0 PUSH1 0x20 DUP3 ADD SWAP1 POP DUP2 DUP2 SUB PUSH0 DUP4 ADD MSTORE PUSH2 0x80C DUP2 PUSH2 0x7D3 JUMP JUMPDEST SWAP1 POP SWAP2 SWAP1 POP JUMP JUMPDEST PUSH32 0x4E487B7100000000000000000000000000000000000000000000000000000000 PUSH0 MSTORE PUSH1 0x11 PUSH1 0x4 MSTORE PUSH1 0x24 PUSH0 REVERT JUMPDEST PUSH0 PUSH2 0x84A DUP3 PUSH2 0x5FC JUMP JUMPDEST SWAP2 POP PUSH2 0x855 DUP4 PUSH2 0x5FC JUMP JUMPDEST SWAP3 POP DUP3 DUP3 SUB SWAP1 POP DUP2 DUP2 GT ISZERO PUSH2 0x86D JUMPI PUSH2 0x86C PUSH2 0x813 JUMP JUMPDEST JUMPDEST SWAP3 SWAP2 POP POP JUMP JUMPDEST PUSH32 0x4E487B7100000000000000000000000000000000000000000000000000000000 PUSH0 MSTORE PUSH1 0x32 PUSH1 0x4 MSTORE PUSH1 0x24 PUSH0 REVERT INVALID LOG2 PUSH5 0x6970667358 0x22 SLT KECCAK256 0xC8 KECCAK256 0x2B PUSH0 0xCB DUPN 0x2 SHR DUP12 CALLVALUE 0xCC SSTORE PUSH23 0x61AF970506EF08EC7AF8BD0EF6C4BD1FBDB7CF64736F6C PUSH4 0x4300081E STOP CALLER "
				},
				"gasEstimates": {
					"creation": {
						"codeDepositCost": "452400",
						"executionCost": "24748",
						"totalCost": "477148"
					},
					"external": {
						"addTreasure(uint256)": "24727",
						"admin()": "2595",
						"allowedUsers(address)": "51259",
						"amt()": "2426",
						"chest()": "2470",
						"reset()": "7346",
						"transferAdmin(address)": "26949",
						"users(uint256)": "4967",
						"withdrawal(uint256)": "infinite"
					},
					"internal": {
						"checkUser()": "infinite"
					}
				},
				"methodIdentifiers": {
					"addTreasure(uint256)": "e0147005",
					"admin()": "f851a440",
					"allowedUsers(address)": "f3d1306d",
					"amt()": "16eab96b",
					"chest()": "64026ac0",
					"reset()": "d826f88f",
					"transferAdmin(address)": "75829def",
					"users(uint256)": "365b98b2",
					"withdrawal(uint256)": "835fc6ca"
				}
			},
			"storageLayout": {
				"storage": [
					{
						"astId": 3,
						"contract": "Day 5/AdminOnly.sol:AdminOnly",
						"label": "admin",
						"offset": 0,
						"slot": "0",
						"type": "t_address"
					},
					{
						"astId": 5,
						"contract": "Day 5/AdminOnly.sol:AdminOnly",
						"label": "chest",
						"offset": 0,
						"slot": "1",
						"type": "t_uint256"
					},
					{
						"astId": 8,
						"contract": "Day 5/AdminOnly.sol:AdminOnly",
						"label": "users",
						"offset": 0,
						"slot": "2",
						"type": "t_array(t_address)dyn_storage"
					},
					{
						"astId": 10,
						"contract": "Day 5/AdminOnly.sol:AdminOnly",
						"label": "amt",
						"offset": 0,
						"slot": "3",
						"type": "t_uint256"
					},
					{
						"astId": 14,
						"contract": "Day 5/AdminOnly.sol:AdminOnly",
						"label": "hasWithdrawn",
						"offset": 0,
						"slot": "4",
						"type": "t_mapping(t_address,t_bool)"
					}
				],
				"types": {
					"t_address": {
						"encoding": "inplace",
						"label": "address",
						"numberOfBytes": "20"
					},
					"t_array(t_address)dyn_storage": {
						"base": "t_address",
						"encoding": "dynamic_array",
						"label": "address[]",
						"numberOfBytes": "32"
					},
					"t_bool": {
						"encoding": "inplace",
						"label": "bool",
						"numberOfBytes": "1"
					},
					"t_mapping(t_address,t_bool)": {
						"encoding": "mapping",
						"key": "t_address",
						"label": "mapping(address => bool)",
						"numberOfBytes": "32",
						"value": "t_bool"
					},
					"t_uint256": {
						"encoding": "inplace",
						"label": "uint256",
						"numberOfBytes": "32"
					}
				}
			},
			"userdoc": {
				"kind": "user",
				"methods": {},
				"version": 1
			}
		}
	}
}