{
	"Day 4/AuctionHouse.sol": {
		"AuctionHouse": {
			"abi": [
				{
					"inputs": [
						{
							"internalType": "string",
							"name": "_items",
							"type": "string"
						},
						{
							"internalType": "uint256",
							"name": "_durationInSeconds",
							"type": "uint256"
						}
					],
					"stateMutability": "nonpayable",
					"type": "constructor"
				},
				{
					"inputs": [],
					"name": "auctionTime",
					"outputs": [
						{
							"internalType": "uint256",
							"name": "",
							"type": "uint256"
						}
					],
					"stateMutability": "view",
					"type": "function"
				},
				{
					"inputs": [],
					"name": "getBidder",
					"outputs": [
						{
							"internalType": "address",
							"name": "",
							"type": "address"
						},
						{
							"internalType": "uint256",
							"name": "",
							"type": "uint256"
						}
					],
					"stateMutability": "view",
					"type": "function"
				},
				{
					"inputs": [],
					"name": "highestBid",
					"outputs": [
						{
							"internalType": "uint256",
							"name": "",
							"type": "uint256"
						}
					],
					"stateMutability": "view",
					"type": "function"
				},
				{
					"inputs": [],
					"name": "highestBidder",
					"outputs": [
						{
							"internalType": "address",
							"name": "",
							"type": "address"
						}
					],
					"stateMutability": "view",
					"type": "function"
				},
				{
					"inputs": [],
					"name": "items",
					"outputs": [
						{
							"internalType": "string",
							"name": "",
							"type": "string"
						}
					],
					"stateMutability": "view",
					"type": "function"
				},
				{
					"inputs": [],
					"name": "owner",
					"outputs": [
						{
							"internalType": "address",
							"name": "",
							"type": "address"
						}
					],
					"stateMutability": "view",
					"type": "function"
				},
				{
					"inputs": [
						{
							"internalType": "uint256",
							"name": "bidAmount",
							"type": "uint256"
						}
					],
					"name": "setBid",
					"outputs": [],
					"stateMutability": "nonpayable",
					"type": "function"
				}
			],
			"devdoc": {
				"kind": "dev",
				"methods": {},
				"version": 1
			},
			"evm": {
				"assembly": "    /* \"Day 4/AuctionHouse.sol\":62:1100  contract AuctionHouse{... */\n  mstore(0x40, 0x80)\n    /* \"Day 4/AuctionHouse.sol\":239:483  constructor (string memory _items, uint _durationInSeconds){... */\n  callvalue\n  dup1\n  iszero\n  tag_1\n  jumpi\n  revert(0x00, 0x00)\ntag_1:\n  pop\n  mload(0x40)\n  sub(codesize, bytecodeSize)\n  dup1\n  bytecodeSize\n  dup4\n  codecopy\n  dup2\n  dup2\n  add\n  0x40\n  mstore\n  dup2\n  add\n  swap1\n  tag_2\n  swap2\n  swap1\n  tag_3\n  jump\t// in\ntag_2:\n    /* \"Day 4/AuctionHouse.sol\":317:327  msg.sender */\n  caller\n    /* \"Day 4/AuctionHouse.sol\":309:314  owner */\n  0x00\n  0x00\n    /* \"Day 4/AuctionHouse.sol\":309:327  owner = msg.sender */\n  0x0100\n  exp\n  dup2\n  sload\n  dup2\n  0xffffffffffffffffffffffffffffffffffffffff\n  mul\n  not\n  and\n  swap1\n  dup4\n  0xffffffffffffffffffffffffffffffffffffffff\n  and\n  mul\n  or\n  swap1\n  sstore\n  pop\n    /* \"Day 4/AuctionHouse.sol\":370:388  _durationInSeconds */\n  dup1\n    /* \"Day 4/AuctionHouse.sol\":352:367  block.timestamp */\n  timestamp\n    /* \"Day 4/AuctionHouse.sol\":352:388  block.timestamp + _durationInSeconds */\n  tag_6\n  swap2\n  swap1\n  tag_7\n  jump\t// in\ntag_6:\n    /* \"Day 4/AuctionHouse.sol\":338:349  auctionTime */\n  0x04\n    /* \"Day 4/AuctionHouse.sol\":338:388  auctionTime = block.timestamp + _durationInSeconds */\n  dup2\n  swap1\n  sstore\n  pop\n    /* \"Day 4/AuctionHouse.sol\":407:413  _items */\n  dup2\n    /* \"Day 4/AuctionHouse.sol\":399:404  items */\n  0x01\n    /* \"Day 4/AuctionHouse.sol\":399:413  items = _items */\n  swap1\n  dup2\n  tag_8\n  swap2\n  swap1\n  tag_9\n  jump\t// in\ntag_8:\n  pop\n    /* \"Day 4/AuctionHouse.sol\":437:438  0 */\n  0x00\n    /* \"Day 4/AuctionHouse.sol\":424:434  highestBid */\n  0x03\n    /* \"Day 4/AuctionHouse.sol\":424:438  highestBid = 0 */\n  dup2\n  swap1\n  sstore\n  pop\n    /* \"Day 4/AuctionHouse.sol\":473:474  0 */\n  0x00\n    /* \"Day 4/AuctionHouse.sol\":449:462  highestBidder */\n  0x02\n  0x00\n    /* \"Day 4/AuctionHouse.sol\":449:475  highestBidder = address(0) */\n  0x0100\n  exp\n  dup2\n  sload\n  dup2\n  0xffffffffffffffffffffffffffffffffffffffff\n  mul\n  not\n  and\n  swap1\n  dup4\n  0xffffffffffffffffffffffffffffffffffffffff\n  and\n  mul\n  or\n  swap1\n  sstore\n  pop\n    /* \"Day 4/AuctionHouse.sol\":239:483  constructor (string memory _items, uint _durationInSeconds){... */\n  pop\n  pop\n    /* \"Day 4/AuctionHouse.sol\":62:1100  contract AuctionHouse{... */\n  jump(tag_10)\n    /* \"#utility.yul\":7:82   */\ntag_11:\n    /* \"#utility.yul\":40:46   */\n  0x00\n    /* \"#utility.yul\":73:75   */\n  0x40\n    /* \"#utility.yul\":67:76   */\n  mload\n    /* \"#utility.yul\":57:76   */\n  swap1\n  pop\n    /* \"#utility.yul\":7:82   */\n  swap1\n  jump\t// out\n    /* \"#utility.yul\":88:205   */\ntag_12:\n    /* \"#utility.yul\":197:198   */\n  0x00\n    /* \"#utility.yul\":194:195   */\n  0x00\n    /* \"#utility.yul\":187:199   */\n  revert\n    /* \"#utility.yul\":211:328   */\ntag_13:\n    /* \"#utility.yul\":320:321   */\n  0x00\n    /* \"#utility.yul\":317:318   */\n  0x00\n    /* \"#utility.yul\":310:322   */\n  revert\n    /* \"#utility.yul\":334:451   */\ntag_14:\n    /* \"#utility.yul\":443:444   */\n  0x00\n    /* \"#utility.yul\":440:441   */\n  0x00\n    /* \"#utility.yul\":433:445   */\n  revert\n    /* \"#utility.yul\":457:574   */\ntag_15:\n    /* \"#utility.yul\":566:567   */\n  0x00\n    /* \"#utility.yul\":563:564   */\n  0x00\n    /* \"#utility.yul\":556:568   */\n  revert\n    /* \"#utility.yul\":580:682   */\ntag_16:\n    /* \"#utility.yul\":621:627   */\n  0x00\n    /* \"#utility.yul\":672:674   */\n  0x1f\n    /* \"#utility.yul\":668:675   */\n  not\n    /* \"#utility.yul\":663:665   */\n  0x1f\n    /* \"#utility.yul\":656:661   */\n  dup4\n    /* \"#utility.yul\":652:666   */\n  add\n    /* \"#utility.yul\":648:676   */\n  and\n    /* \"#utility.yul\":638:676   */\n  swap1\n  pop\n    /* \"#utility.yul\":580:682   */\n  swap2\n  swap1\n  pop\n  jump\t// out\n    /* \"#utility.yul\":688:868   */\ntag_17:\n    /* \"#utility.yul\":736:813   */\n  0x4e487b7100000000000000000000000000000000000000000000000000000000\n    /* \"#utility.yul\":733:734   */\n  0x00\n    /* \"#utility.yul\":726:814   */\n  mstore\n    /* \"#utility.yul\":833:837   */\n  0x41\n    /* \"#utility.yul\":830:831   */\n  0x04\n    /* \"#utility.yul\":823:838   */\n  mstore\n    /* \"#utility.yul\":857:861   */\n  0x24\n    /* \"#utility.yul\":854:855   */\n  0x00\n    /* \"#utility.yul\":847:862   */\n  revert\n    /* \"#utility.yul\":874:1155   */\ntag_18:\n    /* \"#utility.yul\":957:984   */\n  tag_55\n    /* \"#utility.yul\":979:983   */\n  dup3\n    /* \"#utility.yul\":957:984   */\n  tag_16\n  jump\t// in\ntag_55:\n    /* \"#utility.yul\":949:955   */\n  dup2\n    /* \"#utility.yul\":945:985   */\n  add\n    /* \"#utility.yul\":1087:1093   */\n  dup2\n    /* \"#utility.yul\":1075:1085   */\n  dup2\n    /* \"#utility.yul\":1072:1094   */\n  lt\n    /* \"#utility.yul\":1051:1069   */\n  0xffffffffffffffff\n    /* \"#utility.yul\":1039:1049   */\n  dup3\n    /* \"#utility.yul\":1036:1070   */\n  gt\n    /* \"#utility.yul\":1033:1095   */\n  or\n    /* \"#utility.yul\":1030:1118   */\n  iszero\n  tag_56\n  jumpi\n    /* \"#utility.yul\":1098:1116   */\n  tag_57\n  tag_17\n  jump\t// in\ntag_57:\n    /* \"#utility.yul\":1030:1118   */\ntag_56:\n    /* \"#utility.yul\":1138:1148   */\n  dup1\n    /* \"#utility.yul\":1134:1136   */\n  0x40\n    /* \"#utility.yul\":1127:1149   */\n  mstore\n    /* \"#utility.yul\":917:1155   */\n  pop\n    /* \"#utility.yul\":874:1155   */\n  pop\n  pop\n  jump\t// out\n    /* \"#utility.yul\":1161:1290   */\ntag_19:\n    /* \"#utility.yul\":1195:1201   */\n  0x00\n    /* \"#utility.yul\":1222:1242   */\n  tag_59\n  tag_11\n  jump\t// in\ntag_59:\n    /* \"#utility.yul\":1212:1242   */\n  swap1\n  pop\n    /* \"#utility.yul\":1251:1284   */\n  tag_60\n    /* \"#utility.yul\":1279:1283   */\n  dup3\n    /* \"#utility.yul\":1271:1277   */\n  dup3\n    /* \"#utility.yul\":1251:1284   */\n  tag_18\n  jump\t// in\ntag_60:\n    /* \"#utility.yul\":1161:1290   */\n  swap2\n  swap1\n  pop\n  jump\t// out\n    /* \"#utility.yul\":1296:1604   */\ntag_20:\n    /* \"#utility.yul\":1358:1362   */\n  0x00\n    /* \"#utility.yul\":1448:1466   */\n  0xffffffffffffffff\n    /* \"#utility.yul\":1440:1446   */\n  dup3\n    /* \"#utility.yul\":1437:1467   */\n  gt\n    /* \"#utility.yul\":1434:1490   */\n  iszero\n  tag_62\n  jumpi\n    /* \"#utility.yul\":1470:1488   */\n  tag_63\n  tag_17\n  jump\t// in\ntag_63:\n    /* \"#utility.yul\":1434:1490   */\ntag_62:\n    /* \"#utility.yul\":1508:1537   */\n  tag_64\n    /* \"#utility.yul\":1530:1536   */\n  dup3\n    /* \"#utility.yul\":1508:1537   */\n  tag_16\n  jump\t// in\ntag_64:\n    /* \"#utility.yul\":1500:1537   */\n  swap1\n  pop\n    /* \"#utility.yul\":1592:1596   */\n  0x20\n    /* \"#utility.yul\":1586:1590   */\n  dup2\n    /* \"#utility.yul\":1582:1597   */\n  add\n    /* \"#utility.yul\":1574:1597   */\n  swap1\n  pop\n    /* \"#utility.yul\":1296:1604   */\n  swap2\n  swap1\n  pop\n  jump\t// out\n    /* \"#utility.yul\":1610:1749   */\ntag_21:\n    /* \"#utility.yul\":1699:1705   */\n  dup3\n    /* \"#utility.yul\":1694:1697   */\n  dup2\n    /* \"#utility.yul\":1689:1692   */\n  dup4\n    /* \"#utility.yul\":1683:1706   */\n  mcopy\n    /* \"#utility.yul\":1740:1741   */\n  0x00\n    /* \"#utility.yul\":1731:1737   */\n  dup4\n    /* \"#utility.yul\":1726:1729   */\n  dup4\n    /* \"#utility.yul\":1722:1738   */\n  add\n    /* \"#utility.yul\":1715:1742   */\n  mstore\n    /* \"#utility.yul\":1610:1749   */\n  pop\n  pop\n  pop\n  jump\t// out\n    /* \"#utility.yul\":1755:2189   */\ntag_22:\n    /* \"#utility.yul\":1844:1849   */\n  0x00\n    /* \"#utility.yul\":1869:1935   */\n  tag_67\n    /* \"#utility.yul\":1885:1934   */\n  tag_68\n    /* \"#utility.yul\":1927:1933   */\n  dup5\n    /* \"#utility.yul\":1885:1934   */\n  tag_20\n  jump\t// in\ntag_68:\n    /* \"#utility.yul\":1869:1935   */\n  tag_19\n  jump\t// in\ntag_67:\n    /* \"#utility.yul\":1860:1935   */\n  swap1\n  pop\n    /* \"#utility.yul\":1958:1964   */\n  dup3\n    /* \"#utility.yul\":1951:1956   */\n  dup2\n    /* \"#utility.yul\":1944:1965   */\n  mstore\n    /* \"#utility.yul\":1996:2000   */\n  0x20\n    /* \"#utility.yul\":1989:1994   */\n  dup2\n    /* \"#utility.yul\":1985:2001   */\n  add\n    /* \"#utility.yul\":2034:2037   */\n  dup5\n    /* \"#utility.yul\":2025:2031   */\n  dup5\n    /* \"#utility.yul\":2020:2023   */\n  dup5\n    /* \"#utility.yul\":2016:2032   */\n  add\n    /* \"#utility.yul\":2013:2038   */\n  gt\n    /* \"#utility.yul\":2010:2122   */\n  iszero\n  tag_69\n  jumpi\n    /* \"#utility.yul\":2041:2120   */\n  tag_70\n  tag_15\n  jump\t// in\ntag_70:\n    /* \"#utility.yul\":2010:2122   */\ntag_69:\n    /* \"#utility.yul\":2131:2183   */\n  tag_71\n    /* \"#utility.yul\":2176:2182   */\n  dup5\n    /* \"#utility.yul\":2171:2174   */\n  dup3\n    /* \"#utility.yul\":2166:2169   */\n  dup6\n    /* \"#utility.yul\":2131:2183   */\n  tag_21\n  jump\t// in\ntag_71:\n    /* \"#utility.yul\":1850:2189   */\n  pop\n    /* \"#utility.yul\":1755:2189   */\n  swap4\n  swap3\n  pop\n  pop\n  pop\n  jump\t// out\n    /* \"#utility.yul\":2209:2564   */\ntag_23:\n    /* \"#utility.yul\":2276:2281   */\n  0x00\n    /* \"#utility.yul\":2325:2328   */\n  dup3\n    /* \"#utility.yul\":2318:2322   */\n  0x1f\n    /* \"#utility.yul\":2310:2316   */\n  dup4\n    /* \"#utility.yul\":2306:2323   */\n  add\n    /* \"#utility.yul\":2302:2329   */\n  slt\n    /* \"#utility.yul\":2292:2414   */\n  tag_73\n  jumpi\n    /* \"#utility.yul\":2333:2412   */\n  tag_74\n  tag_14\n  jump\t// in\ntag_74:\n    /* \"#utility.yul\":2292:2414   */\ntag_73:\n    /* \"#utility.yul\":2443:2449   */\n  dup2\n    /* \"#utility.yul\":2437:2450   */\n  mload\n    /* \"#utility.yul\":2468:2558   */\n  tag_75\n    /* \"#utility.yul\":2554:2557   */\n  dup5\n    /* \"#utility.yul\":2546:2552   */\n  dup3\n    /* \"#utility.yul\":2539:2543   */\n  0x20\n    /* \"#utility.yul\":2531:2537   */\n  dup7\n    /* \"#utility.yul\":2527:2544   */\n  add\n    /* \"#utility.yul\":2468:2558   */\n  tag_22\n  jump\t// in\ntag_75:\n    /* \"#utility.yul\":2459:2558   */\n  swap2\n  pop\n    /* \"#utility.yul\":2282:2564   */\n  pop\n    /* \"#utility.yul\":2209:2564   */\n  swap3\n  swap2\n  pop\n  pop\n  jump\t// out\n    /* \"#utility.yul\":2570:2647   */\ntag_24:\n    /* \"#utility.yul\":2607:2614   */\n  0x00\n    /* \"#utility.yul\":2636:2641   */\n  dup2\n    /* \"#utility.yul\":2625:2641   */\n  swap1\n  pop\n    /* \"#utility.yul\":2570:2647   */\n  swap2\n  swap1\n  pop\n  jump\t// out\n    /* \"#utility.yul\":2653:2775   */\ntag_25:\n    /* \"#utility.yul\":2726:2750   */\n  tag_78\n    /* \"#utility.yul\":2744:2749   */\n  dup2\n    /* \"#utility.yul\":2726:2750   */\n  tag_24\n  jump\t// in\ntag_78:\n    /* \"#utility.yul\":2719:2724   */\n  dup2\n    /* \"#utility.yul\":2716:2751   */\n  eq\n    /* \"#utility.yul\":2706:2769   */\n  tag_79\n  jumpi\n    /* \"#utility.yul\":2765:2766   */\n  0x00\n    /* \"#utility.yul\":2762:2763   */\n  0x00\n    /* \"#utility.yul\":2755:2767   */\n  revert\n    /* \"#utility.yul\":2706:2769   */\ntag_79:\n    /* \"#utility.yul\":2653:2775   */\n  pop\n  jump\t// out\n    /* \"#utility.yul\":2781:2924   */\ntag_26:\n    /* \"#utility.yul\":2838:2843   */\n  0x00\n    /* \"#utility.yul\":2869:2875   */\n  dup2\n    /* \"#utility.yul\":2863:2876   */\n  mload\n    /* \"#utility.yul\":2854:2876   */\n  swap1\n  pop\n    /* \"#utility.yul\":2885:2918   */\n  tag_81\n    /* \"#utility.yul\":2912:2917   */\n  dup2\n    /* \"#utility.yul\":2885:2918   */\n  tag_25\n  jump\t// in\ntag_81:\n    /* \"#utility.yul\":2781:2924   */\n  swap3\n  swap2\n  pop\n  pop\n  jump\t// out\n    /* \"#utility.yul\":2930:3610   */\ntag_3:\n    /* \"#utility.yul\":3019:3025   */\n  0x00\n    /* \"#utility.yul\":3027:3033   */\n  0x00\n    /* \"#utility.yul\":3076:3078   */\n  0x40\n    /* \"#utility.yul\":3064:3073   */\n  dup4\n    /* \"#utility.yul\":3055:3062   */\n  dup6\n    /* \"#utility.yul\":3051:3074   */\n  sub\n    /* \"#utility.yul\":3047:3079   */\n  slt\n    /* \"#utility.yul\":3044:3163   */\n  iszero\n  tag_83\n  jumpi\n    /* \"#utility.yul\":3082:3161   */\n  tag_84\n  tag_12\n  jump\t// in\ntag_84:\n    /* \"#utility.yul\":3044:3163   */\ntag_83:\n    /* \"#utility.yul\":3223:3224   */\n  0x00\n    /* \"#utility.yul\":3212:3221   */\n  dup4\n    /* \"#utility.yul\":3208:3225   */\n  add\n    /* \"#utility.yul\":3202:3226   */\n  mload\n    /* \"#utility.yul\":3253:3271   */\n  0xffffffffffffffff\n    /* \"#utility.yul\":3245:3251   */\n  dup2\n    /* \"#utility.yul\":3242:3272   */\n  gt\n    /* \"#utility.yul\":3239:3356   */\n  iszero\n  tag_85\n  jumpi\n    /* \"#utility.yul\":3275:3354   */\n  tag_86\n  tag_13\n  jump\t// in\ntag_86:\n    /* \"#utility.yul\":3239:3356   */\ntag_85:\n    /* \"#utility.yul\":3380:3454   */\n  tag_87\n    /* \"#utility.yul\":3446:3453   */\n  dup6\n    /* \"#utility.yul\":3437:3443   */\n  dup3\n    /* \"#utility.yul\":3426:3435   */\n  dup7\n    /* \"#utility.yul\":3422:3444   */\n  add\n    /* \"#utility.yul\":3380:3454   */\n  tag_23\n  jump\t// in\ntag_87:\n    /* \"#utility.yul\":3370:3454   */\n  swap3\n  pop\n    /* \"#utility.yul\":3173:3464   */\n  pop\n    /* \"#utility.yul\":3503:3505   */\n  0x20\n    /* \"#utility.yul\":3529:3593   */\n  tag_88\n    /* \"#utility.yul\":3585:3592   */\n  dup6\n    /* \"#utility.yul\":3576:3582   */\n  dup3\n    /* \"#utility.yul\":3565:3574   */\n  dup7\n    /* \"#utility.yul\":3561:3583   */\n  add\n    /* \"#utility.yul\":3529:3593   */\n  tag_26\n  jump\t// in\ntag_88:\n    /* \"#utility.yul\":3519:3593   */\n  swap2\n  pop\n    /* \"#utility.yul\":3474:3603   */\n  pop\n    /* \"#utility.yul\":2930:3610   */\n  swap3\n  pop\n  swap3\n  swap1\n  pop\n  jump\t// out\n    /* \"#utility.yul\":3616:3796   */\ntag_27:\n    /* \"#utility.yul\":3664:3741   */\n  0x4e487b7100000000000000000000000000000000000000000000000000000000\n    /* \"#utility.yul\":3661:3662   */\n  0x00\n    /* \"#utility.yul\":3654:3742   */\n  mstore\n    /* \"#utility.yul\":3761:3765   */\n  0x11\n    /* \"#utility.yul\":3758:3759   */\n  0x04\n    /* \"#utility.yul\":3751:3766   */\n  mstore\n    /* \"#utility.yul\":3785:3789   */\n  0x24\n    /* \"#utility.yul\":3782:3783   */\n  0x00\n    /* \"#utility.yul\":3775:3790   */\n  revert\n    /* \"#utility.yul\":3802:3993   */\ntag_7:\n    /* \"#utility.yul\":3842:3845   */\n  0x00\n    /* \"#utility.yul\":3861:3881   */\n  tag_91\n    /* \"#utility.yul\":3879:3880   */\n  dup3\n    /* \"#utility.yul\":3861:3881   */\n  tag_24\n  jump\t// in\ntag_91:\n    /* \"#utility.yul\":3856:3881   */\n  swap2\n  pop\n    /* \"#utility.yul\":3895:3915   */\n  tag_92\n    /* \"#utility.yul\":3913:3914   */\n  dup4\n    /* \"#utility.yul\":3895:3915   */\n  tag_24\n  jump\t// in\ntag_92:\n    /* \"#utility.yul\":3890:3915   */\n  swap3\n  pop\n    /* \"#utility.yul\":3938:3939   */\n  dup3\n    /* \"#utility.yul\":3935:3936   */\n  dup3\n    /* \"#utility.yul\":3931:3940   */\n  add\n    /* \"#utility.yul\":3924:3940   */\n  swap1\n  pop\n    /* \"#utility.yul\":3959:3962   */\n  dup1\n    /* \"#utility.yul\":3956:3957   */\n  dup3\n    /* \"#utility.yul\":3953:3963   */\n  gt\n    /* \"#utility.yul\":3950:3986   */\n  iszero\n  tag_93\n  jumpi\n    /* \"#utility.yul\":3966:3984   */\n  tag_94\n  tag_27\n  jump\t// in\ntag_94:\n    /* \"#utility.yul\":3950:3986   */\ntag_93:\n    /* \"#utility.yul\":3802:3993   */\n  swap3\n  swap2\n  pop\n  pop\n  jump\t// out\n    /* \"#utility.yul\":3999:4098   */\ntag_28:\n    /* \"#utility.yul\":4051:4057   */\n  0x00\n    /* \"#utility.yul\":4085:4090   */\n  dup2\n    /* \"#utility.yul\":4079:4091   */\n  mload\n    /* \"#utility.yul\":4069:4091   */\n  swap1\n  pop\n    /* \"#utility.yul\":3999:4098   */\n  swap2\n  swap1\n  pop\n  jump\t// out\n    /* \"#utility.yul\":4104:4284   */\ntag_29:\n    /* \"#utility.yul\":4152:4229   */\n  0x4e487b7100000000000000000000000000000000000000000000000000000000\n    /* \"#utility.yul\":4149:4150   */\n  0x00\n    /* \"#utility.yul\":4142:4230   */\n  mstore\n    /* \"#utility.yul\":4249:4253   */\n  0x22\n    /* \"#utility.yul\":4246:4247   */\n  0x04\n    /* \"#utility.yul\":4239:4254   */\n  mstore\n    /* \"#utility.yul\":4273:4277   */\n  0x24\n    /* \"#utility.yul\":4270:4271   */\n  0x00\n    /* \"#utility.yul\":4263:4278   */\n  revert\n    /* \"#utility.yul\":4290:4610   */\ntag_30:\n    /* \"#utility.yul\":4334:4340   */\n  0x00\n    /* \"#utility.yul\":4371:4372   */\n  0x02\n    /* \"#utility.yul\":4365:4369   */\n  dup3\n    /* \"#utility.yul\":4361:4373   */\n  div\n    /* \"#utility.yul\":4351:4373   */\n  swap1\n  pop\n    /* \"#utility.yul\":4418:4419   */\n  0x01\n    /* \"#utility.yul\":4412:4416   */\n  dup3\n    /* \"#utility.yul\":4408:4420   */\n  and\n    /* \"#utility.yul\":4439:4457   */\n  dup1\n    /* \"#utility.yul\":4429:4510   */\n  tag_98\n  jumpi\n    /* \"#utility.yul\":4495:4499   */\n  0x7f\n    /* \"#utility.yul\":4487:4493   */\n  dup3\n    /* \"#utility.yul\":4483:4500   */\n  and\n    /* \"#utility.yul\":4473:4500   */\n  swap2\n  pop\n    /* \"#utility.yul\":4429:4510   */\ntag_98:\n    /* \"#utility.yul\":4557:4559   */\n  0x20\n    /* \"#utility.yul\":4549:4555   */\n  dup3\n    /* \"#utility.yul\":4546:4560   */\n  lt\n    /* \"#utility.yul\":4526:4544   */\n  dup2\n    /* \"#utility.yul\":4523:4561   */\n  sub\n    /* \"#utility.yul\":4520:4604   */\n  tag_99\n  jumpi\n    /* \"#utility.yul\":4576:4594   */\n  tag_100\n  tag_29\n  jump\t// in\ntag_100:\n    /* \"#utility.yul\":4520:4604   */\ntag_99:\n    /* \"#utility.yul\":4341:4610   */\n  pop\n    /* \"#utility.yul\":4290:4610   */\n  swap2\n  swap1\n  pop\n  jump\t// out\n    /* \"#utility.yul\":4616:4757   */\ntag_31:\n    /* \"#utility.yul\":4665:4669   */\n  0x00\n    /* \"#utility.yul\":4688:4691   */\n  dup2\n    /* \"#utility.yul\":4680:4691   */\n  swap1\n  pop\n    /* \"#utility.yul\":4711:4714   */\n  dup2\n    /* \"#utility.yul\":4708:4709   */\n  0x00\n    /* \"#utility.yul\":4701:4715   */\n  mstore\n    /* \"#utility.yul\":4745:4749   */\n  0x20\n    /* \"#utility.yul\":4742:4743   */\n  0x00\n    /* \"#utility.yul\":4732:4750   */\n  keccak256\n    /* \"#utility.yul\":4724:4750   */\n  swap1\n  pop\n    /* \"#utility.yul\":4616:4757   */\n  swap2\n  swap1\n  pop\n  jump\t// out\n    /* \"#utility.yul\":4763:4856   */\ntag_32:\n    /* \"#utility.yul\":4800:4806   */\n  0x00\n    /* \"#utility.yul\":4847:4849   */\n  0x20\n    /* \"#utility.yul\":4842:4844   */\n  0x1f\n    /* \"#utility.yul\":4835:4840   */\n  dup4\n    /* \"#utility.yul\":4831:4845   */\n  add\n    /* \"#utility.yul\":4827:4850   */\n  div\n    /* \"#utility.yul\":4817:4850   */\n  swap1\n  pop\n    /* \"#utility.yul\":4763:4856   */\n  swap2\n  swap1\n  pop\n  jump\t// out\n    /* \"#utility.yul\":4862:4969   */\ntag_33:\n    /* \"#utility.yul\":4906:4914   */\n  0x00\n    /* \"#utility.yul\":4956:4961   */\n  dup3\n    /* \"#utility.yul\":4950:4954   */\n  dup3\n    /* \"#utility.yul\":4946:4962   */\n  shl\n    /* \"#utility.yul\":4925:4962   */\n  swap1\n  pop\n    /* \"#utility.yul\":4862:4969   */\n  swap3\n  swap2\n  pop\n  pop\n  jump\t// out\n    /* \"#utility.yul\":4975:5368   */\ntag_34:\n    /* \"#utility.yul\":5044:5050   */\n  0x00\n    /* \"#utility.yul\":5094:5095   */\n  0x08\n    /* \"#utility.yul\":5082:5092   */\n  dup4\n    /* \"#utility.yul\":5078:5096   */\n  mul\n    /* \"#utility.yul\":5117:5214   */\n  tag_105\n    /* \"#utility.yul\":5147:5213   */\n  0xffffffffffffffffffffffffffffffffffffffffffffffffffffffffffffffff\n    /* \"#utility.yul\":5136:5145   */\n  dup3\n    /* \"#utility.yul\":5117:5214   */\n  tag_33\n  jump\t// in\ntag_105:\n    /* \"#utility.yul\":5235:5274   */\n  tag_106\n    /* \"#utility.yul\":5265:5273   */\n  dup7\n    /* \"#utility.yul\":5254:5263   */\n  dup4\n    /* \"#utility.yul\":5235:5274   */\n  tag_33\n  jump\t// in\ntag_106:\n    /* \"#utility.yul\":5223:5274   */\n  swap6\n  pop\n    /* \"#utility.yul\":5307:5311   */\n  dup1\n    /* \"#utility.yul\":5303:5312   */\n  not\n    /* \"#utility.yul\":5296:5301   */\n  dup5\n    /* \"#utility.yul\":5292:5313   */\n  and\n    /* \"#utility.yul\":5283:5313   */\n  swap4\n  pop\n    /* \"#utility.yul\":5356:5360   */\n  dup1\n    /* \"#utility.yul\":5346:5354   */\n  dup7\n    /* \"#utility.yul\":5342:5361   */\n  and\n    /* \"#utility.yul\":5335:5340   */\n  dup5\n    /* \"#utility.yul\":5332:5362   */\n  or\n    /* \"#utility.yul\":5322:5362   */\n  swap3\n  pop\n    /* \"#utility.yul\":5051:5368   */\n  pop\n  pop\n    /* \"#utility.yul\":4975:5368   */\n  swap4\n  swap3\n  pop\n  pop\n  pop\n  jump\t// out\n    /* \"#utility.yul\":5374:5434   */\ntag_35:\n    /* \"#utility.yul\":5402:5405   */\n  0x00\n    /* \"#utility.yul\":5423:5428   */\n  dup2\n    /* \"#utility.yul\":5416:5428   */\n  swap1\n  pop\n    /* \"#utility.yul\":5374:5434   */\n  swap2\n  swap1\n  pop\n  jump\t// out\n    /* \"#utility.yul\":5440:5582   */\ntag_36:\n    /* \"#utility.yul\":5490:5499   */\n  0x00\n    /* \"#utility.yul\":5523:5576   */\n  tag_109\n    /* \"#utility.yul\":5541:5575   */\n  tag_110\n    /* \"#utility.yul\":5550:5574   */\n  tag_111\n    /* \"#utility.yul\":5568:5573   */\n  dup5\n    /* \"#utility.yul\":5550:5574   */\n  tag_24\n  jump\t// in\ntag_111:\n    /* \"#utility.yul\":5541:5575   */\n  tag_35\n  jump\t// in\ntag_110:\n    /* \"#utility.yul\":5523:5576   */\n  tag_24\n  jump\t// in\ntag_109:\n    /* \"#utility.yul\":5510:5576   */\n  swap1\n  pop\n    /* \"#utility.yul\":5440:5582   */\n  swap2\n  swap1\n  pop\n  jump\t// out\n    /* \"#utility.yul\":5588:5663   */\ntag_37:\n    /* \"#utility.yul\":5631:5634   */\n  0x00\n    /* \"#utility.yul\":5652:5657   */\n  dup2\n    /* \"#utility.yul\":5645:5657   */\n  swap1\n  pop\n    /* \"#utility.yul\":5588:5663   */\n  swap2\n  swap1\n  pop\n  jump\t// out\n    /* \"#utility.yul\":5669:5938   */\ntag_38:\n    /* \"#utility.yul\":5779:5818   */\n  tag_114\n    /* \"#utility.yul\":5810:5817   */\n  dup4\n    /* \"#utility.yul\":5779:5818   */\n  tag_36\n  jump\t// in\ntag_114:\n    /* \"#utility.yul\":5840:5931   */\n  tag_115\n    /* \"#utility.yul\":5889:5930   */\n  tag_116\n    /* \"#utility.yul\":5913:5929   */\n  dup3\n    /* \"#utility.yul\":5889:5930   */\n  tag_37\n  jump\t// in\ntag_116:\n    /* \"#utility.yul\":5881:5887   */\n  dup5\n    /* \"#utility.yul\":5874:5878   */\n  dup5\n    /* \"#utility.yul\":5868:5879   */\n  sload\n    /* \"#utility.yul\":5840:5931   */\n  tag_34\n  jump\t// in\ntag_115:\n    /* \"#utility.yul\":5834:5838   */\n  dup3\n    /* \"#utility.yul\":5827:5932   */\n  sstore\n    /* \"#utility.yul\":5745:5938   */\n  pop\n    /* \"#utility.yul\":5669:5938   */\n  pop\n  pop\n  pop\n  jump\t// out\n    /* \"#utility.yul\":5944:6017   */\ntag_39:\n    /* \"#utility.yul\":5989:5992   */\n  0x00\n    /* \"#utility.yul\":6010:6011   */\n  0x00\n    /* \"#utility.yul\":6003:6011   */\n  swap1\n  pop\n    /* \"#utility.yul\":5944:6017   */\n  swap1\n  jump\t// out\n    /* \"#utility.yul\":6023:6212   */\ntag_40:\n    /* \"#utility.yul\":6100:6132   */\n  tag_119\n  tag_39\n  jump\t// in\ntag_119:\n    /* \"#utility.yul\":6141:6206   */\n  tag_120\n    /* \"#utility.yul\":6199:6205   */\n  dup2\n    /* \"#utility.yul\":6191:6197   */\n  dup5\n    /* \"#utility.yul\":6185:6189   */\n  dup5\n    /* \"#utility.yul\":6141:6206   */\n  tag_38\n  jump\t// in\ntag_120:\n    /* \"#utility.yul\":6076:6212   */\n  pop\n    /* \"#utility.yul\":6023:6212   */\n  pop\n  pop\n  jump\t// out\n    /* \"#utility.yul\":6218:6404   */\ntag_41:\n    /* \"#utility.yul\":6278:6398   */\ntag_122:\n    /* \"#utility.yul\":6295:6298   */\n  dup2\n    /* \"#utility.yul\":6288:6293   */\n  dup2\n    /* \"#utility.yul\":6285:6299   */\n  lt\n    /* \"#utility.yul\":6278:6398   */\n  iszero\n  tag_124\n  jumpi\n    /* \"#utility.yul\":6349:6388   */\n  tag_125\n    /* \"#utility.yul\":6386:6387   */\n  0x00\n    /* \"#utility.yul\":6379:6384   */\n  dup3\n    /* \"#utility.yul\":6349:6388   */\n  tag_40\n  jump\t// in\ntag_125:\n    /* \"#utility.yul\":6322:6323   */\n  0x01\n    /* \"#utility.yul\":6315:6320   */\n  dup2\n    /* \"#utility.yul\":6311:6324   */\n  add\n    /* \"#utility.yul\":6302:6324   */\n  swap1\n  pop\n    /* \"#utility.yul\":6278:6398   */\n  jump(tag_122)\ntag_124:\n    /* \"#utility.yul\":6218:6404   */\n  pop\n  pop\n  jump\t// out\n    /* \"#utility.yul\":6410:6953   */\ntag_42:\n    /* \"#utility.yul\":6511:6513   */\n  0x1f\n    /* \"#utility.yul\":6506:6509   */\n  dup3\n    /* \"#utility.yul\":6503:6514   */\n  gt\n    /* \"#utility.yul\":6500:6946   */\n  iszero\n  tag_127\n  jumpi\n    /* \"#utility.yul\":6545:6583   */\n  tag_128\n    /* \"#utility.yul\":6577:6582   */\n  dup2\n    /* \"#utility.yul\":6545:6583   */\n  tag_31\n  jump\t// in\ntag_128:\n    /* \"#utility.yul\":6629:6658   */\n  tag_129\n    /* \"#utility.yul\":6647:6657   */\n  dup5\n    /* \"#utility.yul\":6629:6658   */\n  tag_32\n  jump\t// in\ntag_129:\n    /* \"#utility.yul\":6619:6627   */\n  dup2\n    /* \"#utility.yul\":6615:6659   */\n  add\n    /* \"#utility.yul\":6812:6814   */\n  0x20\n    /* \"#utility.yul\":6800:6810   */\n  dup6\n    /* \"#utility.yul\":6797:6815   */\n  lt\n    /* \"#utility.yul\":6794:6843   */\n  iszero\n  tag_130\n  jumpi\n    /* \"#utility.yul\":6833:6841   */\n  dup2\n    /* \"#utility.yul\":6818:6841   */\n  swap1\n  pop\n    /* \"#utility.yul\":6794:6843   */\ntag_130:\n    /* \"#utility.yul\":6856:6936   */\n  tag_131\n    /* \"#utility.yul\":6912:6934   */\n  tag_132\n    /* \"#utility.yul\":6930:6933   */\n  dup6\n    /* \"#utility.yul\":6912:6934   */\n  tag_32\n  jump\t// in\ntag_132:\n    /* \"#utility.yul\":6902:6910   */\n  dup4\n    /* \"#utility.yul\":6898:6935   */\n  add\n    /* \"#utility.yul\":6885:6896   */\n  dup3\n    /* \"#utility.yul\":6856:6936   */\n  tag_41\n  jump\t// in\ntag_131:\n    /* \"#utility.yul\":6515:6946   */\n  pop\n  pop\n    /* \"#utility.yul\":6500:6946   */\ntag_127:\n    /* \"#utility.yul\":6410:6953   */\n  pop\n  pop\n  pop\n  jump\t// out\n    /* \"#utility.yul\":6959:7076   */\ntag_43:\n    /* \"#utility.yul\":7013:7021   */\n  0x00\n    /* \"#utility.yul\":7063:7068   */\n  dup3\n    /* \"#utility.yul\":7057:7061   */\n  dup3\n    /* \"#utility.yul\":7053:7069   */\n  shr\n    /* \"#utility.yul\":7032:7069   */\n  swap1\n  pop\n    /* \"#utility.yul\":6959:7076   */\n  swap3\n  swap2\n  pop\n  pop\n  jump\t// out\n    /* \"#utility.yul\":7082:7251   */\ntag_44:\n    /* \"#utility.yul\":7126:7132   */\n  0x00\n    /* \"#utility.yul\":7159:7210   */\n  tag_135\n    /* \"#utility.yul\":7207:7208   */\n  0x00\n    /* \"#utility.yul\":7203:7209   */\n  not\n    /* \"#utility.yul\":7195:7200   */\n  dup5\n    /* \"#utility.yul\":7192:7193   */\n  0x08\n    /* \"#utility.yul\":7188:7201   */\n  mul\n    /* \"#utility.yul\":7159:7210   */\n  tag_43\n  jump\t// in\ntag_135:\n    /* \"#utility.yul\":7155:7211   */\n  not\n    /* \"#utility.yul\":7240:7244   */\n  dup1\n    /* \"#utility.yul\":7234:7238   */\n  dup4\n    /* \"#utility.yul\":7230:7245   */\n  and\n    /* \"#utility.yul\":7220:7245   */\n  swap2\n  pop\n    /* \"#utility.yul\":7133:7251   */\n  pop\n    /* \"#utility.yul\":7082:7251   */\n  swap3\n  swap2\n  pop\n  pop\n  jump\t// out\n    /* \"#utility.yul\":7256:7551   */\ntag_45:\n    /* \"#utility.yul\":7332:7336   */\n  0x00\n    /* \"#utility.yul\":7478:7507   */\n  tag_137\n    /* \"#utility.yul\":7503:7506   */\n  dup4\n    /* \"#utility.yul\":7497:7501   */\n  dup4\n    /* \"#utility.yul\":7478:7507   */\n  tag_44\n  jump\t// in\ntag_137:\n    /* \"#utility.yul\":7470:7507   */\n  swap2\n  pop\n    /* \"#utility.yul\":7540:7543   */\n  dup3\n    /* \"#utility.yul\":7537:7538   */\n  0x02\n    /* \"#utility.yul\":7533:7544   */\n  mul\n    /* \"#utility.yul\":7527:7531   */\n  dup3\n    /* \"#utility.yul\":7524:7545   */\n  or\n    /* \"#utility.yul\":7516:7545   */\n  swap1\n  pop\n    /* \"#utility.yul\":7256:7551   */\n  swap3\n  swap2\n  pop\n  pop\n  jump\t// out\n    /* \"#utility.yul\":7556:8951   */\ntag_9:\n    /* \"#utility.yul\":7673:7710   */\n  tag_139\n    /* \"#utility.yul\":7706:7709   */\n  dup3\n    /* \"#utility.yul\":7673:7710   */\n  tag_28\n  jump\t// in\ntag_139:\n    /* \"#utility.yul\":7775:7793   */\n  0xffffffffffffffff\n    /* \"#utility.yul\":7767:7773   */\n  dup2\n    /* \"#utility.yul\":7764:7794   */\n  gt\n    /* \"#utility.yul\":7761:7817   */\n  iszero\n  tag_140\n  jumpi\n    /* \"#utility.yul\":7797:7815   */\n  tag_141\n  tag_17\n  jump\t// in\ntag_141:\n    /* \"#utility.yul\":7761:7817   */\ntag_140:\n    /* \"#utility.yul\":7841:7879   */\n  tag_142\n    /* \"#utility.yul\":7873:7877   */\n  dup3\n    /* \"#utility.yul\":7867:7878   */\n  sload\n    /* \"#utility.yul\":7841:7879   */\n  tag_30\n  jump\t// in\ntag_142:\n    /* \"#utility.yul\":7926:7993   */\n  tag_143\n    /* \"#utility.yul\":7986:7992   */\n  dup3\n    /* \"#utility.yul\":7978:7984   */\n  dup3\n    /* \"#utility.yul\":7972:7976   */\n  dup6\n    /* \"#utility.yul\":7926:7993   */\n  tag_42\n  jump\t// in\ntag_143:\n    /* \"#utility.yul\":8020:8021   */\n  0x00\n    /* \"#utility.yul\":8044:8048   */\n  0x20\n    /* \"#utility.yul\":8031:8048   */\n  swap1\n  pop\n    /* \"#utility.yul\":8076:8078   */\n  0x1f\n    /* \"#utility.yul\":8068:8074   */\n  dup4\n    /* \"#utility.yul\":8065:8079   */\n  gt\n    /* \"#utility.yul\":8093:8094   */\n  0x01\n    /* \"#utility.yul\":8088:8706   */\n  dup2\n  eq\n  tag_145\n  jumpi\n    /* \"#utility.yul\":8750:8751   */\n  0x00\n    /* \"#utility.yul\":8767:8773   */\n  dup5\n    /* \"#utility.yul\":8764:8841   */\n  iszero\n  tag_146\n  jumpi\n    /* \"#utility.yul\":8816:8825   */\n  dup3\n    /* \"#utility.yul\":8811:8814   */\n  dup8\n    /* \"#utility.yul\":8807:8826   */\n  add\n    /* \"#utility.yul\":8801:8827   */\n  mload\n    /* \"#utility.yul\":8792:8827   */\n  swap1\n  pop\n    /* \"#utility.yul\":8764:8841   */\ntag_146:\n    /* \"#utility.yul\":8867:8934   */\n  tag_147\n    /* \"#utility.yul\":8927:8933   */\n  dup6\n    /* \"#utility.yul\":8920:8925   */\n  dup3\n    /* \"#utility.yul\":8867:8934   */\n  tag_45\n  jump\t// in\ntag_147:\n    /* \"#utility.yul\":8861:8865   */\n  dup7\n    /* \"#utility.yul\":8854:8935   */\n  sstore\n    /* \"#utility.yul\":8723:8945   */\n  pop\n    /* \"#utility.yul\":8058:8945   */\n  jump(tag_144)\n    /* \"#utility.yul\":8088:8706   */\ntag_145:\n    /* \"#utility.yul\":8140:8144   */\n  0x1f\n    /* \"#utility.yul\":8136:8145   */\n  not\n    /* \"#utility.yul\":8128:8134   */\n  dup5\n    /* \"#utility.yul\":8124:8146   */\n  and\n    /* \"#utility.yul\":8174:8211   */\n  tag_148\n    /* \"#utility.yul\":8206:8210   */\n  dup7\n    /* \"#utility.yul\":8174:8211   */\n  tag_31\n  jump\t// in\ntag_148:\n    /* \"#utility.yul\":8233:8234   */\n  0x00\n    /* \"#utility.yul\":8247:8455   */\ntag_149:\n    /* \"#utility.yul\":8261:8268   */\n  dup3\n    /* \"#utility.yul\":8258:8259   */\n  dup2\n    /* \"#utility.yul\":8255:8269   */\n  lt\n    /* \"#utility.yul\":8247:8455   */\n  iszero\n  tag_151\n  jumpi\n    /* \"#utility.yul\":8340:8349   */\n  dup5\n    /* \"#utility.yul\":8335:8338   */\n  dup10\n    /* \"#utility.yul\":8331:8350   */\n  add\n    /* \"#utility.yul\":8325:8351   */\n  mload\n    /* \"#utility.yul\":8317:8323   */\n  dup3\n    /* \"#utility.yul\":8310:8352   */\n  sstore\n    /* \"#utility.yul\":8391:8392   */\n  0x01\n    /* \"#utility.yul\":8383:8389   */\n  dup3\n    /* \"#utility.yul\":8379:8393   */\n  add\n    /* \"#utility.yul\":8369:8393   */\n  swap2\n  pop\n    /* \"#utility.yul\":8438:8440   */\n  0x20\n    /* \"#utility.yul\":8427:8436   */\n  dup6\n    /* \"#utility.yul\":8423:8441   */\n  add\n    /* \"#utility.yul\":8410:8441   */\n  swap5\n  pop\n    /* \"#utility.yul\":8284:8288   */\n  0x20\n    /* \"#utility.yul\":8281:8282   */\n  dup2\n    /* \"#utility.yul\":8277:8289   */\n  add\n    /* \"#utility.yul\":8272:8289   */\n  swap1\n  pop\n    /* \"#utility.yul\":8247:8455   */\n  jump(tag_149)\ntag_151:\n    /* \"#utility.yul\":8483:8489   */\n  dup7\n    /* \"#utility.yul\":8474:8481   */\n  dup4\n    /* \"#utility.yul\":8471:8490   */\n  lt\n    /* \"#utility.yul\":8468:8647   */\n  iszero\n  tag_152\n  jumpi\n    /* \"#utility.yul\":8541:8550   */\n  dup5\n    /* \"#utility.yul\":8536:8539   */\n  dup10\n    /* \"#utility.yul\":8532:8551   */\n  add\n    /* \"#utility.yul\":8526:8552   */\n  mload\n    /* \"#utility.yul\":8584:8632   */\n  tag_153\n    /* \"#utility.yul\":8626:8630   */\n  0x1f\n    /* \"#utility.yul\":8618:8624   */\n  dup10\n    /* \"#utility.yul\":8614:8631   */\n  and\n    /* \"#utility.yul\":8603:8612   */\n  dup3\n    /* \"#utility.yul\":8584:8632   */\n  tag_44\n  jump\t// in\ntag_153:\n    /* \"#utility.yul\":8576:8582   */\n  dup4\n    /* \"#utility.yul\":8569:8633   */\n  sstore\n    /* \"#utility.yul\":8491:8647   */\n  pop\n    /* \"#utility.yul\":8468:8647   */\ntag_152:\n    /* \"#utility.yul\":8693:8694   */\n  0x01\n    /* \"#utility.yul\":8689:8690   */\n  0x02\n    /* \"#utility.yul\":8681:8687   */\n  dup9\n    /* \"#utility.yul\":8677:8691   */\n  mul\n    /* \"#utility.yul\":8673:8695   */\n  add\n    /* \"#utility.yul\":8667:8671   */\n  dup9\n    /* \"#utility.yul\":8660:8696   */\n  sstore\n    /* \"#utility.yul\":8095:8706   */\n  pop\n  pop\n  pop\n    /* \"#utility.yul\":8058:8945   */\ntag_144:\n  pop\n    /* \"#utility.yul\":7648:8951   */\n  pop\n  pop\n  pop\n    /* \"#utility.yul\":7556:8951   */\n  pop\n  pop\n  jump\t// out\n    /* \"Day 4/AuctionHouse.sol\":62:1100  contract AuctionHouse{... */\ntag_10:\n  dataSize(sub_0)\n  dup1\n  dataOffset(sub_0)\n  0x00\n  codecopy\n  0x00\n  return\nstop\n\nsub_0: assembly {\n        /* \"Day 4/AuctionHouse.sol\":62:1100  contract AuctionHouse{... */\n      mstore(0x40, 0x80)\n      callvalue\n      dup1\n      iszero\n      tag_1\n      jumpi\n      revert(0x00, 0x00)\n    tag_1:\n      pop\n      jumpi(tag_2, lt(calldatasize, 0x04))\n      shr(0xe0, calldataload(0x00))\n      dup1\n      0xc06fad06\n      gt\n      tag_10\n      jumpi\n      dup1\n      0xc06fad06\n      eq\n      tag_6\n      jumpi\n      dup1\n      0xc4109648\n      eq\n      tag_7\n      jumpi\n      dup1\n      0xcef55b9a\n      eq\n      tag_8\n      jumpi\n      dup1\n      0xd57bde79\n      eq\n      tag_9\n      jumpi\n      jump(tag_2)\n    tag_10:\n      dup1\n      0x155f586d\n      eq\n      tag_3\n      jumpi\n      dup1\n      0x8da5cb5b\n      eq\n      tag_4\n      jumpi\n      dup1\n      0x91f90157\n      eq\n      tag_5\n      jumpi\n    tag_2:\n      revert(0x00, 0x00)\n        /* \"Day 4/AuctionHouse.sol\":207:230  uint public auctionTime */\n    tag_3:\n      tag_11\n      tag_12\n      jump\t// in\n    tag_11:\n      mload(0x40)\n      tag_13\n      swap2\n      swap1\n      tag_14\n      jump\t// in\n    tag_13:\n      mload(0x40)\n      dup1\n      swap2\n      sub\n      swap1\n      return\n        /* \"Day 4/AuctionHouse.sol\":90:110  address public owner */\n    tag_4:\n      tag_15\n      tag_16\n      jump\t// in\n    tag_15:\n      mload(0x40)\n      tag_17\n      swap2\n      swap1\n      tag_18\n      jump\t// in\n    tag_17:\n      mload(0x40)\n      dup1\n      swap2\n      sub\n      swap1\n      return\n        /* \"Day 4/AuctionHouse.sol\":143:171  address public highestBidder */\n    tag_5:\n      tag_19\n      tag_20\n      jump\t// in\n    tag_19:\n      mload(0x40)\n      tag_21\n      swap2\n      swap1\n      tag_18\n      jump\t// in\n    tag_21:\n      mload(0x40)\n      dup1\n      swap2\n      sub\n      swap1\n      return\n        /* \"Day 4/AuctionHouse.sol\":117:136  string public items */\n    tag_6:\n      tag_22\n      tag_23\n      jump\t// in\n    tag_22:\n      mload(0x40)\n      tag_24\n      swap2\n      swap1\n      tag_25\n      jump\t// in\n    tag_24:\n      mload(0x40)\n      dup1\n      swap2\n      sub\n      swap1\n      return\n        /* \"Day 4/AuctionHouse.sol\":840:1089  function getBidder() public view returns (address, uint){... */\n    tag_7:\n      tag_26\n      tag_27\n      jump\t// in\n    tag_26:\n      mload(0x40)\n      tag_28\n      swap3\n      swap2\n      swap1\n      tag_29\n      jump\t// in\n    tag_28:\n      mload(0x40)\n      dup1\n      swap2\n      sub\n      swap1\n      return\n        /* \"Day 4/AuctionHouse.sol\":491:832  function setBid(uint bidAmount) public {... */\n    tag_8:\n      tag_30\n      0x04\n      dup1\n      calldatasize\n      sub\n      dup2\n      add\n      swap1\n      tag_31\n      swap2\n      swap1\n      tag_32\n      jump\t// in\n    tag_31:\n      tag_33\n      jump\t// in\n    tag_30:\n      stop\n        /* \"Day 4/AuctionHouse.sol\":178:200  uint public highestBid */\n    tag_9:\n      tag_34\n      tag_35\n      jump\t// in\n    tag_34:\n      mload(0x40)\n      tag_36\n      swap2\n      swap1\n      tag_14\n      jump\t// in\n    tag_36:\n      mload(0x40)\n      dup1\n      swap2\n      sub\n      swap1\n      return\n        /* \"Day 4/AuctionHouse.sol\":207:230  uint public auctionTime */\n    tag_12:\n      sload(0x04)\n      dup2\n      jump\t// out\n        /* \"Day 4/AuctionHouse.sol\":90:110  address public owner */\n    tag_16:\n      0x00\n      0x00\n      swap1\n      sload\n      swap1\n      0x0100\n      exp\n      swap1\n      div\n      0xffffffffffffffffffffffffffffffffffffffff\n      and\n      dup2\n      jump\t// out\n        /* \"Day 4/AuctionHouse.sol\":143:171  address public highestBidder */\n    tag_20:\n      0x02\n      0x00\n      swap1\n      sload\n      swap1\n      0x0100\n      exp\n      swap1\n      div\n      0xffffffffffffffffffffffffffffffffffffffff\n      and\n      dup2\n      jump\t// out\n        /* \"Day 4/AuctionHouse.sol\":117:136  string public items */\n    tag_23:\n      0x01\n      dup1\n      sload\n      tag_37\n      swap1\n      tag_38\n      jump\t// in\n    tag_37:\n      dup1\n      0x1f\n      add\n      0x20\n      dup1\n      swap2\n      div\n      mul\n      0x20\n      add\n      mload(0x40)\n      swap1\n      dup2\n      add\n      0x40\n      mstore\n      dup1\n      swap3\n      swap2\n      swap1\n      dup2\n      dup2\n      mstore\n      0x20\n      add\n      dup3\n      dup1\n      sload\n      tag_39\n      swap1\n      tag_38\n      jump\t// in\n    tag_39:\n      dup1\n      iszero\n      tag_40\n      jumpi\n      dup1\n      0x1f\n      lt\n      tag_41\n      jumpi\n      0x0100\n      dup1\n      dup4\n      sload\n      div\n      mul\n      dup4\n      mstore\n      swap2\n      0x20\n      add\n      swap2\n      jump(tag_40)\n    tag_41:\n      dup3\n      add\n      swap2\n      swap1\n      0x00\n      mstore\n      keccak256(0x00, 0x20)\n      swap1\n    tag_42:\n      dup2\n      sload\n      dup2\n      mstore\n      swap1\n      0x01\n      add\n      swap1\n      0x20\n      add\n      dup1\n      dup4\n      gt\n      tag_42\n      jumpi\n      dup3\n      swap1\n      sub\n      0x1f\n      and\n      dup3\n      add\n      swap2\n    tag_40:\n      pop\n      pop\n      pop\n      pop\n      pop\n      dup2\n      jump\t// out\n        /* \"Day 4/AuctionHouse.sol\":840:1089  function getBidder() public view returns (address, uint){... */\n    tag_27:\n        /* \"Day 4/AuctionHouse.sol\":882:889  address */\n      0x00\n        /* \"Day 4/AuctionHouse.sol\":891:895  uint */\n      0x00\n        /* \"Day 4/AuctionHouse.sol\":930:941  auctionTime */\n      sload(0x04)\n        /* \"Day 4/AuctionHouse.sol\":911:926  block.timestamp */\n      timestamp\n        /* \"Day 4/AuctionHouse.sol\":911:941  block.timestamp >= auctionTime */\n      lt\n        /* \"Day 4/AuctionHouse.sol\":907:1082  if (block.timestamp >= auctionTime){... */\n      tag_44\n      jumpi\n        /* \"Day 4/AuctionHouse.sol\":965:978  highestBidder */\n      0x02\n      0x00\n      swap1\n      sload\n      swap1\n      0x0100\n      exp\n      swap1\n      div\n      0xffffffffffffffffffffffffffffffffffffffff\n      and\n        /* \"Day 4/AuctionHouse.sol\":980:990  highestBid */\n      sload(0x03)\n        /* \"Day 4/AuctionHouse.sol\":957:991  return (highestBidder, highestBid) */\n      swap2\n      pop\n      swap2\n      pop\n      jump(tag_43)\n        /* \"Day 4/AuctionHouse.sol\":907:1082  if (block.timestamp >= auctionTime){... */\n    tag_44:\n        /* \"Day 4/AuctionHouse.sol\":1032:1068  revert (\"Auction is still going on\") */\n      mload(0x40)\n      0x08c379a000000000000000000000000000000000000000000000000000000000\n      dup2\n      mstore\n      0x04\n      add\n      tag_46\n      swap1\n      tag_47\n      jump\t// in\n    tag_46:\n      mload(0x40)\n      dup1\n      swap2\n      sub\n      swap1\n      revert\n        /* \"Day 4/AuctionHouse.sol\":840:1089  function getBidder() public view returns (address, uint){... */\n    tag_43:\n      swap1\n      swap2\n      jump\t// out\n        /* \"Day 4/AuctionHouse.sol\":491:832  function setBid(uint bidAmount) public {... */\n    tag_33:\n        /* \"Day 4/AuctionHouse.sol\":563:574  auctionTime */\n      sload(0x04)\n        /* \"Day 4/AuctionHouse.sol\":544:559  block.timestamp */\n      timestamp\n        /* \"Day 4/AuctionHouse.sol\":544:574  block.timestamp >= auctionTime */\n      lt\n        /* \"Day 4/AuctionHouse.sol\":541:634  if(block.timestamp >= auctionTime){... */\n      tag_49\n      jumpi\n        /* \"Day 4/AuctionHouse.sol\":589:622  revert(\"Auction has been ended!\") */\n      mload(0x40)\n      0x08c379a000000000000000000000000000000000000000000000000000000000\n      dup2\n      mstore\n      0x04\n      add\n      tag_50\n      swap1\n      tag_51\n      jump\t// in\n    tag_50:\n      mload(0x40)\n      dup1\n      swap2\n      sub\n      swap1\n      revert\n        /* \"Day 4/AuctionHouse.sol\":541:634  if(block.timestamp >= auctionTime){... */\n    tag_49:\n        /* \"Day 4/AuctionHouse.sol\":663:673  highestBid */\n      sload(0x03)\n        /* \"Day 4/AuctionHouse.sol\":650:659  bidAmount */\n      dup2\n        /* \"Day 4/AuctionHouse.sol\":650:673  bidAmount <= highestBid */\n      gt\n        /* \"Day 4/AuctionHouse.sol\":646:753  if (bidAmount <= highestBid){... */\n      tag_52\n      jumpi\n        /* \"Day 4/AuctionHouse.sol\":689:741  revert(\"You need to bid more than the highest bid!\") */\n      mload(0x40)\n      0x08c379a000000000000000000000000000000000000000000000000000000000\n      dup2\n      mstore\n      0x04\n      add\n      tag_53\n      swap1\n      tag_54\n      jump\t// in\n    tag_53:\n      mload(0x40)\n      dup1\n      swap2\n      sub\n      swap1\n      revert\n        /* \"Day 4/AuctionHouse.sol\":646:753  if (bidAmount <= highestBid){... */\n    tag_52:\n        /* \"Day 4/AuctionHouse.sol\":778:787  bidAmount */\n      dup1\n        /* \"Day 4/AuctionHouse.sol\":765:775  highestBid */\n      0x03\n        /* \"Day 4/AuctionHouse.sol\":765:787  highestBid = bidAmount */\n      dup2\n      swap1\n      sstore\n      pop\n        /* \"Day 4/AuctionHouse.sol\":814:824  msg.sender */\n      caller\n        /* \"Day 4/AuctionHouse.sol\":798:811  highestBidder */\n      0x02\n      0x00\n        /* \"Day 4/AuctionHouse.sol\":798:824  highestBidder = msg.sender */\n      0x0100\n      exp\n      dup2\n      sload\n      dup2\n      0xffffffffffffffffffffffffffffffffffffffff\n      mul\n      not\n      and\n      swap1\n      dup4\n      0xffffffffffffffffffffffffffffffffffffffff\n      and\n      mul\n      or\n      swap1\n      sstore\n      pop\n        /* \"Day 4/AuctionHouse.sol\":491:832  function setBid(uint bidAmount) public {... */\n      pop\n      jump\t// out\n        /* \"Day 4/AuctionHouse.sol\":178:200  uint public highestBid */\n    tag_35:\n      sload(0x03)\n      dup2\n      jump\t// out\n        /* \"#utility.yul\":7:84   */\n    tag_55:\n        /* \"#utility.yul\":44:51   */\n      0x00\n        /* \"#utility.yul\":73:78   */\n      dup2\n        /* \"#utility.yul\":62:78   */\n      swap1\n      pop\n        /* \"#utility.yul\":7:84   */\n      swap2\n      swap1\n      pop\n      jump\t// out\n        /* \"#utility.yul\":90:208   */\n    tag_56:\n        /* \"#utility.yul\":177:201   */\n      tag_80\n        /* \"#utility.yul\":195:200   */\n      dup2\n        /* \"#utility.yul\":177:201   */\n      tag_55\n      jump\t// in\n    tag_80:\n        /* \"#utility.yul\":172:175   */\n      dup3\n        /* \"#utility.yul\":165:202   */\n      mstore\n        /* \"#utility.yul\":90:208   */\n      pop\n      pop\n      jump\t// out\n        /* \"#utility.yul\":214:436   */\n    tag_14:\n        /* \"#utility.yul\":307:311   */\n      0x00\n        /* \"#utility.yul\":345:347   */\n      0x20\n        /* \"#utility.yul\":334:343   */\n      dup3\n        /* \"#utility.yul\":330:348   */\n      add\n        /* \"#utility.yul\":322:348   */\n      swap1\n      pop\n        /* \"#utility.yul\":358:429   */\n      tag_82\n        /* \"#utility.yul\":426:427   */\n      0x00\n        /* \"#utility.yul\":415:424   */\n      dup4\n        /* \"#utility.yul\":411:428   */\n      add\n        /* \"#utility.yul\":402:408   */\n      dup5\n        /* \"#utility.yul\":358:429   */\n      tag_56\n      jump\t// in\n    tag_82:\n        /* \"#utility.yul\":214:436   */\n      swap3\n      swap2\n      pop\n      pop\n      jump\t// out\n        /* \"#utility.yul\":442:568   */\n    tag_57:\n        /* \"#utility.yul\":479:486   */\n      0x00\n        /* \"#utility.yul\":519:561   */\n      0xffffffffffffffffffffffffffffffffffffffff\n        /* \"#utility.yul\":512:517   */\n      dup3\n        /* \"#utility.yul\":508:562   */\n      and\n        /* \"#utility.yul\":497:562   */\n      swap1\n      pop\n        /* \"#utility.yul\":442:568   */\n      swap2\n      swap1\n      pop\n      jump\t// out\n        /* \"#utility.yul\":574:670   */\n    tag_58:\n        /* \"#utility.yul\":611:618   */\n      0x00\n        /* \"#utility.yul\":640:664   */\n      tag_85\n        /* \"#utility.yul\":658:663   */\n      dup3\n        /* \"#utility.yul\":640:664   */\n      tag_57\n      jump\t// in\n    tag_85:\n        /* \"#utility.yul\":629:664   */\n      swap1\n      pop\n        /* \"#utility.yul\":574:670   */\n      swap2\n      swap1\n      pop\n      jump\t// out\n        /* \"#utility.yul\":676:794   */\n    tag_59:\n        /* \"#utility.yul\":763:787   */\n      tag_87\n        /* \"#utility.yul\":781:786   */\n      dup2\n        /* \"#utility.yul\":763:787   */\n      tag_58\n      jump\t// in\n    tag_87:\n        /* \"#utility.yul\":758:761   */\n      dup3\n        /* \"#utility.yul\":751:788   */\n      mstore\n        /* \"#utility.yul\":676:794   */\n      pop\n      pop\n      jump\t// out\n        /* \"#utility.yul\":800:1022   */\n    tag_18:\n        /* \"#utility.yul\":893:897   */\n      0x00\n        /* \"#utility.yul\":931:933   */\n      0x20\n        /* \"#utility.yul\":920:929   */\n      dup3\n        /* \"#utility.yul\":916:934   */\n      add\n        /* \"#utility.yul\":908:934   */\n      swap1\n      pop\n        /* \"#utility.yul\":944:1015   */\n      tag_89\n        /* \"#utility.yul\":1012:1013   */\n      0x00\n        /* \"#utility.yul\":1001:1010   */\n      dup4\n        /* \"#utility.yul\":997:1014   */\n      add\n        /* \"#utility.yul\":988:994   */\n      dup5\n        /* \"#utility.yul\":944:1015   */\n      tag_59\n      jump\t// in\n    tag_89:\n        /* \"#utility.yul\":800:1022   */\n      swap3\n      swap2\n      pop\n      pop\n      jump\t// out\n        /* \"#utility.yul\":1028:1127   */\n    tag_60:\n        /* \"#utility.yul\":1080:1086   */\n      0x00\n        /* \"#utility.yul\":1114:1119   */\n      dup2\n        /* \"#utility.yul\":1108:1120   */\n      mload\n        /* \"#utility.yul\":1098:1120   */\n      swap1\n      pop\n        /* \"#utility.yul\":1028:1127   */\n      swap2\n      swap1\n      pop\n      jump\t// out\n        /* \"#utility.yul\":1133:1302   */\n    tag_61:\n        /* \"#utility.yul\":1217:1228   */\n      0x00\n        /* \"#utility.yul\":1251:1257   */\n      dup3\n        /* \"#utility.yul\":1246:1249   */\n      dup3\n        /* \"#utility.yul\":1239:1258   */\n      mstore\n        /* \"#utility.yul\":1291:1295   */\n      0x20\n        /* \"#utility.yul\":1286:1289   */\n      dup3\n        /* \"#utility.yul\":1282:1296   */\n      add\n        /* \"#utility.yul\":1267:1296   */\n      swap1\n      pop\n        /* \"#utility.yul\":1133:1302   */\n      swap3\n      swap2\n      pop\n      pop\n      jump\t// out\n        /* \"#utility.yul\":1308:1447   */\n    tag_62:\n        /* \"#utility.yul\":1397:1403   */\n      dup3\n        /* \"#utility.yul\":1392:1395   */\n      dup2\n        /* \"#utility.yul\":1387:1390   */\n      dup4\n        /* \"#utility.yul\":1381:1404   */\n      mcopy\n        /* \"#utility.yul\":1438:1439   */\n      0x00\n        /* \"#utility.yul\":1429:1435   */\n      dup4\n        /* \"#utility.yul\":1424:1427   */\n      dup4\n        /* \"#utility.yul\":1420:1436   */\n      add\n        /* \"#utility.yul\":1413:1440   */\n      mstore\n        /* \"#utility.yul\":1308:1447   */\n      pop\n      pop\n      pop\n      jump\t// out\n        /* \"#utility.yul\":1453:1555   */\n    tag_63:\n        /* \"#utility.yul\":1494:1500   */\n      0x00\n        /* \"#utility.yul\":1545:1547   */\n      0x1f\n        /* \"#utility.yul\":1541:1548   */\n      not\n        /* \"#utility.yul\":1536:1538   */\n      0x1f\n        /* \"#utility.yul\":1529:1534   */\n      dup4\n        /* \"#utility.yul\":1525:1539   */\n      add\n        /* \"#utility.yul\":1521:1549   */\n      and\n        /* \"#utility.yul\":1511:1549   */\n      swap1\n      pop\n        /* \"#utility.yul\":1453:1555   */\n      swap2\n      swap1\n      pop\n      jump\t// out\n        /* \"#utility.yul\":1561:1938   */\n    tag_64:\n        /* \"#utility.yul\":1649:1652   */\n      0x00\n        /* \"#utility.yul\":1677:1716   */\n      tag_95\n        /* \"#utility.yul\":1710:1715   */\n      dup3\n        /* \"#utility.yul\":1677:1716   */\n      tag_60\n      jump\t// in\n    tag_95:\n        /* \"#utility.yul\":1732:1803   */\n      tag_96\n        /* \"#utility.yul\":1796:1802   */\n      dup2\n        /* \"#utility.yul\":1791:1794   */\n      dup6\n        /* \"#utility.yul\":1732:1803   */\n      tag_61\n      jump\t// in\n    tag_96:\n        /* \"#utility.yul\":1725:1803   */\n      swap4\n      pop\n        /* \"#utility.yul\":1812:1877   */\n      tag_97\n        /* \"#utility.yul\":1870:1876   */\n      dup2\n        /* \"#utility.yul\":1865:1868   */\n      dup6\n        /* \"#utility.yul\":1858:1862   */\n      0x20\n        /* \"#utility.yul\":1851:1856   */\n      dup7\n        /* \"#utility.yul\":1847:1863   */\n      add\n        /* \"#utility.yul\":1812:1877   */\n      tag_62\n      jump\t// in\n    tag_97:\n        /* \"#utility.yul\":1902:1931   */\n      tag_98\n        /* \"#utility.yul\":1924:1930   */\n      dup2\n        /* \"#utility.yul\":1902:1931   */\n      tag_63\n      jump\t// in\n    tag_98:\n        /* \"#utility.yul\":1897:1900   */\n      dup5\n        /* \"#utility.yul\":1893:1932   */\n      add\n        /* \"#utility.yul\":1886:1932   */\n      swap2\n      pop\n        /* \"#utility.yul\":1653:1938   */\n      pop\n        /* \"#utility.yul\":1561:1938   */\n      swap3\n      swap2\n      pop\n      pop\n      jump\t// out\n        /* \"#utility.yul\":1944:2257   */\n    tag_25:\n        /* \"#utility.yul\":2057:2061   */\n      0x00\n        /* \"#utility.yul\":2095:2097   */\n      0x20\n        /* \"#utility.yul\":2084:2093   */\n      dup3\n        /* \"#utility.yul\":2080:2098   */\n      add\n        /* \"#utility.yul\":2072:2098   */\n      swap1\n      pop\n        /* \"#utility.yul\":2144:2153   */\n      dup2\n        /* \"#utility.yul\":2138:2142   */\n      dup2\n        /* \"#utility.yul\":2134:2154   */\n      sub\n        /* \"#utility.yul\":2130:2131   */\n      0x00\n        /* \"#utility.yul\":2119:2128   */\n      dup4\n        /* \"#utility.yul\":2115:2132   */\n      add\n        /* \"#utility.yul\":2108:2155   */\n      mstore\n        /* \"#utility.yul\":2172:2250   */\n      tag_100\n        /* \"#utility.yul\":2245:2249   */\n      dup2\n        /* \"#utility.yul\":2236:2242   */\n      dup5\n        /* \"#utility.yul\":2172:2250   */\n      tag_64\n      jump\t// in\n    tag_100:\n        /* \"#utility.yul\":2164:2250   */\n      swap1\n      pop\n        /* \"#utility.yul\":1944:2257   */\n      swap3\n      swap2\n      pop\n      pop\n      jump\t// out\n        /* \"#utility.yul\":2263:2595   */\n    tag_29:\n        /* \"#utility.yul\":2384:2388   */\n      0x00\n        /* \"#utility.yul\":2422:2424   */\n      0x40\n        /* \"#utility.yul\":2411:2420   */\n      dup3\n        /* \"#utility.yul\":2407:2425   */\n      add\n        /* \"#utility.yul\":2399:2425   */\n      swap1\n      pop\n        /* \"#utility.yul\":2435:2506   */\n      tag_102\n        /* \"#utility.yul\":2503:2504   */\n      0x00\n        /* \"#utility.yul\":2492:2501   */\n      dup4\n        /* \"#utility.yul\":2488:2505   */\n      add\n        /* \"#utility.yul\":2479:2485   */\n      dup6\n        /* \"#utility.yul\":2435:2506   */\n      tag_59\n      jump\t// in\n    tag_102:\n        /* \"#utility.yul\":2516:2588   */\n      tag_103\n        /* \"#utility.yul\":2584:2586   */\n      0x20\n        /* \"#utility.yul\":2573:2582   */\n      dup4\n        /* \"#utility.yul\":2569:2587   */\n      add\n        /* \"#utility.yul\":2560:2566   */\n      dup5\n        /* \"#utility.yul\":2516:2588   */\n      tag_56\n      jump\t// in\n    tag_103:\n        /* \"#utility.yul\":2263:2595   */\n      swap4\n      swap3\n      pop\n      pop\n      pop\n      jump\t// out\n        /* \"#utility.yul\":2682:2799   */\n    tag_66:\n        /* \"#utility.yul\":2791:2792   */\n      0x00\n        /* \"#utility.yul\":2788:2789   */\n      0x00\n        /* \"#utility.yul\":2781:2793   */\n      revert\n        /* \"#utility.yul\":2928:3050   */\n    tag_68:\n        /* \"#utility.yul\":3001:3025   */\n      tag_108\n        /* \"#utility.yul\":3019:3024   */\n      dup2\n        /* \"#utility.yul\":3001:3025   */\n      tag_55\n      jump\t// in\n    tag_108:\n        /* \"#utility.yul\":2994:2999   */\n      dup2\n        /* \"#utility.yul\":2991:3026   */\n      eq\n        /* \"#utility.yul\":2981:3044   */\n      tag_109\n      jumpi\n        /* \"#utility.yul\":3040:3041   */\n      0x00\n        /* \"#utility.yul\":3037:3038   */\n      0x00\n        /* \"#utility.yul\":3030:3042   */\n      revert\n        /* \"#utility.yul\":2981:3044   */\n    tag_109:\n        /* \"#utility.yul\":2928:3050   */\n      pop\n      jump\t// out\n        /* \"#utility.yul\":3056:3195   */\n    tag_69:\n        /* \"#utility.yul\":3102:3107   */\n      0x00\n        /* \"#utility.yul\":3140:3146   */\n      dup2\n        /* \"#utility.yul\":3127:3147   */\n      calldataload\n        /* \"#utility.yul\":3118:3147   */\n      swap1\n      pop\n        /* \"#utility.yul\":3156:3189   */\n      tag_111\n        /* \"#utility.yul\":3183:3188   */\n      dup2\n        /* \"#utility.yul\":3156:3189   */\n      tag_68\n      jump\t// in\n    tag_111:\n        /* \"#utility.yul\":3056:3195   */\n      swap3\n      swap2\n      pop\n      pop\n      jump\t// out\n        /* \"#utility.yul\":3201:3530   */\n    tag_32:\n        /* \"#utility.yul\":3260:3266   */\n      0x00\n        /* \"#utility.yul\":3309:3311   */\n      0x20\n        /* \"#utility.yul\":3297:3306   */\n      dup3\n        /* \"#utility.yul\":3288:3295   */\n      dup5\n        /* \"#utility.yul\":3284:3307   */\n      sub\n        /* \"#utility.yul\":3280:3312   */\n      slt\n        /* \"#utility.yul\":3277:3396   */\n      iszero\n      tag_113\n      jumpi\n        /* \"#utility.yul\":3315:3394   */\n      tag_114\n      tag_66\n      jump\t// in\n    tag_114:\n        /* \"#utility.yul\":3277:3396   */\n    tag_113:\n        /* \"#utility.yul\":3435:3436   */\n      0x00\n        /* \"#utility.yul\":3460:3513   */\n      tag_115\n        /* \"#utility.yul\":3505:3512   */\n      dup5\n        /* \"#utility.yul\":3496:3502   */\n      dup3\n        /* \"#utility.yul\":3485:3494   */\n      dup6\n        /* \"#utility.yul\":3481:3503   */\n      add\n        /* \"#utility.yul\":3460:3513   */\n      tag_69\n      jump\t// in\n    tag_115:\n        /* \"#utility.yul\":3450:3513   */\n      swap2\n      pop\n        /* \"#utility.yul\":3406:3523   */\n      pop\n        /* \"#utility.yul\":3201:3530   */\n      swap3\n      swap2\n      pop\n      pop\n      jump\t// out\n        /* \"#utility.yul\":3536:3716   */\n    tag_70:\n        /* \"#utility.yul\":3584:3661   */\n      0x4e487b7100000000000000000000000000000000000000000000000000000000\n        /* \"#utility.yul\":3581:3582   */\n      0x00\n        /* \"#utility.yul\":3574:3662   */\n      mstore\n        /* \"#utility.yul\":3681:3685   */\n      0x22\n        /* \"#utility.yul\":3678:3679   */\n      0x04\n        /* \"#utility.yul\":3671:3686   */\n      mstore\n        /* \"#utility.yul\":3705:3709   */\n      0x24\n        /* \"#utility.yul\":3702:3703   */\n      0x00\n        /* \"#utility.yul\":3695:3710   */\n      revert\n        /* \"#utility.yul\":3722:4042   */\n    tag_38:\n        /* \"#utility.yul\":3766:3772   */\n      0x00\n        /* \"#utility.yul\":3803:3804   */\n      0x02\n        /* \"#utility.yul\":3797:3801   */\n      dup3\n        /* \"#utility.yul\":3793:3805   */\n      div\n        /* \"#utility.yul\":3783:3805   */\n      swap1\n      pop\n        /* \"#utility.yul\":3850:3851   */\n      0x01\n        /* \"#utility.yul\":3844:3848   */\n      dup3\n        /* \"#utility.yul\":3840:3852   */\n      and\n        /* \"#utility.yul\":3871:3889   */\n      dup1\n        /* \"#utility.yul\":3861:3942   */\n      tag_118\n      jumpi\n        /* \"#utility.yul\":3927:3931   */\n      0x7f\n        /* \"#utility.yul\":3919:3925   */\n      dup3\n        /* \"#utility.yul\":3915:3932   */\n      and\n        /* \"#utility.yul\":3905:3932   */\n      swap2\n      pop\n        /* \"#utility.yul\":3861:3942   */\n    tag_118:\n        /* \"#utility.yul\":3989:3991   */\n      0x20\n        /* \"#utility.yul\":3981:3987   */\n      dup3\n        /* \"#utility.yul\":3978:3992   */\n      lt\n        /* \"#utility.yul\":3958:3976   */\n      dup2\n        /* \"#utility.yul\":3955:3993   */\n      sub\n        /* \"#utility.yul\":3952:4036   */\n      tag_119\n      jumpi\n        /* \"#utility.yul\":4008:4026   */\n      tag_120\n      tag_70\n      jump\t// in\n    tag_120:\n        /* \"#utility.yul\":3952:4036   */\n    tag_119:\n        /* \"#utility.yul\":3773:4042   */\n      pop\n        /* \"#utility.yul\":3722:4042   */\n      swap2\n      swap1\n      pop\n      jump\t// out\n        /* \"#utility.yul\":4048:4223   */\n    tag_71:\n        /* \"#utility.yul\":4188:4215   */\n      0x41756374696f6e206973207374696c6c20676f696e67206f6e00000000000000\n        /* \"#utility.yul\":4184:4185   */\n      0x00\n        /* \"#utility.yul\":4176:4182   */\n      dup3\n        /* \"#utility.yul\":4172:4186   */\n      add\n        /* \"#utility.yul\":4165:4216   */\n      mstore\n        /* \"#utility.yul\":4048:4223   */\n      pop\n      jump\t// out\n        /* \"#utility.yul\":4229:4595   */\n    tag_72:\n        /* \"#utility.yul\":4371:4374   */\n      0x00\n        /* \"#utility.yul\":4392:4459   */\n      tag_123\n        /* \"#utility.yul\":4456:4458   */\n      0x19\n        /* \"#utility.yul\":4451:4454   */\n      dup4\n        /* \"#utility.yul\":4392:4459   */\n      tag_61\n      jump\t// in\n    tag_123:\n        /* \"#utility.yul\":4385:4459   */\n      swap2\n      pop\n        /* \"#utility.yul\":4468:4561   */\n      tag_124\n        /* \"#utility.yul\":4557:4560   */\n      dup3\n        /* \"#utility.yul\":4468:4561   */\n      tag_71\n      jump\t// in\n    tag_124:\n        /* \"#utility.yul\":4586:4588   */\n      0x20\n        /* \"#utility.yul\":4581:4584   */\n      dup3\n        /* \"#utility.yul\":4577:4589   */\n      add\n        /* \"#utility.yul\":4570:4589   */\n      swap1\n      pop\n        /* \"#utility.yul\":4229:4595   */\n      swap2\n      swap1\n      pop\n      jump\t// out\n        /* \"#utility.yul\":4601:5020   */\n    tag_47:\n        /* \"#utility.yul\":4767:4771   */\n      0x00\n        /* \"#utility.yul\":4805:4807   */\n      0x20\n        /* \"#utility.yul\":4794:4803   */\n      dup3\n        /* \"#utility.yul\":4790:4808   */\n      add\n        /* \"#utility.yul\":4782:4808   */\n      swap1\n      pop\n        /* \"#utility.yul\":4854:4863   */\n      dup2\n        /* \"#utility.yul\":4848:4852   */\n      dup2\n        /* \"#utility.yul\":4844:4864   */\n      sub\n        /* \"#utility.yul\":4840:4841   */\n      0x00\n        /* \"#utility.yul\":4829:4838   */\n      dup4\n        /* \"#utility.yul\":4825:4842   */\n      add\n        /* \"#utility.yul\":4818:4865   */\n      mstore\n        /* \"#utility.yul\":4882:5013   */\n      tag_126\n        /* \"#utility.yul\":5008:5012   */\n      dup2\n        /* \"#utility.yul\":4882:5013   */\n      tag_72\n      jump\t// in\n    tag_126:\n        /* \"#utility.yul\":4874:5013   */\n      swap1\n      pop\n        /* \"#utility.yul\":4601:5020   */\n      swap2\n      swap1\n      pop\n      jump\t// out\n        /* \"#utility.yul\":5026:5199   */\n    tag_73:\n        /* \"#utility.yul\":5166:5191   */\n      0x41756374696f6e20686173206265656e20656e64656421000000000000000000\n        /* \"#utility.yul\":5162:5163   */\n      0x00\n        /* \"#utility.yul\":5154:5160   */\n      dup3\n        /* \"#utility.yul\":5150:5164   */\n      add\n        /* \"#utility.yul\":5143:5192   */\n      mstore\n        /* \"#utility.yul\":5026:5199   */\n      pop\n      jump\t// out\n        /* \"#utility.yul\":5205:5571   */\n    tag_74:\n        /* \"#utility.yul\":5347:5350   */\n      0x00\n        /* \"#utility.yul\":5368:5435   */\n      tag_129\n        /* \"#utility.yul\":5432:5434   */\n      0x17\n        /* \"#utility.yul\":5427:5430   */\n      dup4\n        /* \"#utility.yul\":5368:5435   */\n      tag_61\n      jump\t// in\n    tag_129:\n        /* \"#utility.yul\":5361:5435   */\n      swap2\n      pop\n        /* \"#utility.yul\":5444:5537   */\n      tag_130\n        /* \"#utility.yul\":5533:5536   */\n      dup3\n        /* \"#utility.yul\":5444:5537   */\n      tag_73\n      jump\t// in\n    tag_130:\n        /* \"#utility.yul\":5562:5564   */\n      0x20\n        /* \"#utility.yul\":5557:5560   */\n      dup3\n        /* \"#utility.yul\":5553:5565   */\n      add\n        /* \"#utility.yul\":5546:5565   */\n      swap1\n      pop\n        /* \"#utility.yul\":5205:5571   */\n      swap2\n      swap1\n      pop\n      jump\t// out\n        /* \"#utility.yul\":5577:5996   */\n    tag_51:\n        /* \"#utility.yul\":5743:5747   */\n      0x00\n        /* \"#utility.yul\":5781:5783   */\n      0x20\n        /* \"#utility.yul\":5770:5779   */\n      dup3\n        /* \"#utility.yul\":5766:5784   */\n      add\n        /* \"#utility.yul\":5758:5784   */\n      swap1\n      pop\n        /* \"#utility.yul\":5830:5839   */\n      dup2\n        /* \"#utility.yul\":5824:5828   */\n      dup2\n        /* \"#utility.yul\":5820:5840   */\n      sub\n        /* \"#utility.yul\":5816:5817   */\n      0x00\n        /* \"#utility.yul\":5805:5814   */\n      dup4\n        /* \"#utility.yul\":5801:5818   */\n      add\n        /* \"#utility.yul\":5794:5841   */\n      mstore\n        /* \"#utility.yul\":5858:5989   */\n      tag_132\n        /* \"#utility.yul\":5984:5988   */\n      dup2\n        /* \"#utility.yul\":5858:5989   */\n      tag_74\n      jump\t// in\n    tag_132:\n        /* \"#utility.yul\":5850:5989   */\n      swap1\n      pop\n        /* \"#utility.yul\":5577:5996   */\n      swap2\n      swap1\n      pop\n      jump\t// out\n        /* \"#utility.yul\":6002:6231   */\n    tag_75:\n        /* \"#utility.yul\":6142:6176   */\n      0x596f75206e65656420746f20626964206d6f7265207468616e20746865206869\n        /* \"#utility.yul\":6138:6139   */\n      0x00\n        /* \"#utility.yul\":6130:6136   */\n      dup3\n        /* \"#utility.yul\":6126:6140   */\n      add\n        /* \"#utility.yul\":6119:6177   */\n      mstore\n        /* \"#utility.yul\":6211:6223   */\n      0x6768657374206269642100000000000000000000000000000000000000000000\n        /* \"#utility.yul\":6206:6208   */\n      0x20\n        /* \"#utility.yul\":6198:6204   */\n      dup3\n        /* \"#utility.yul\":6194:6209   */\n      add\n        /* \"#utility.yul\":6187:6224   */\n      mstore\n        /* \"#utility.yul\":6002:6231   */\n      pop\n      jump\t// out\n        /* \"#utility.yul\":6237:6603   */\n    tag_76:\n        /* \"#utility.yul\":6379:6382   */\n      0x00\n        /* \"#utility.yul\":6400:6467   */\n      tag_135\n        /* \"#utility.yul\":6464:6466   */\n      0x2a\n        /* \"#utility.yul\":6459:6462   */\n      dup4\n        /* \"#utility.yul\":6400:6467   */\n      tag_61\n      jump\t// in\n    tag_135:\n        /* \"#utility.yul\":6393:6467   */\n      swap2\n      pop\n        /* \"#utility.yul\":6476:6569   */\n      tag_136\n        /* \"#utility.yul\":6565:6568   */\n      dup3\n        /* \"#utility.yul\":6476:6569   */\n      tag_75\n      jump\t// in\n    tag_136:\n        /* \"#utility.yul\":6594:6596   */\n      0x40\n        /* \"#utility.yul\":6589:6592   */\n      dup3\n        /* \"#utility.yul\":6585:6597   */\n      add\n        /* \"#utility.yul\":6578:6597   */\n      swap1\n      pop\n        /* \"#utility.yul\":6237:6603   */\n      swap2\n      swap1\n      pop\n      jump\t// out\n        /* \"#utility.yul\":6609:7028   */\n    tag_54:\n        /* \"#utility.yul\":6775:6779   */\n      0x00\n        /* \"#utility.yul\":6813:6815   */\n      0x20\n        /* \"#utility.yul\":6802:6811   */\n      dup3\n        /* \"#utility.yul\":6798:6816   */\n      add\n        /* \"#utility.yul\":6790:6816   */\n      swap1\n      pop\n        /* \"#utility.yul\":6862:6871   */\n      dup2\n        /* \"#utility.yul\":6856:6860   */\n      dup2\n        /* \"#utility.yul\":6852:6872   */\n      sub\n        /* \"#utility.yul\":6848:6849   */\n      0x00\n        /* \"#utility.yul\":6837:6846   */\n      dup4\n        /* \"#utility.yul\":6833:6850   */\n      add\n        /* \"#utility.yul\":6826:6873   */\n      mstore\n        /* \"#utility.yul\":6890:7021   */\n      tag_138\n        /* \"#utility.yul\":7016:7020   */\n      dup2\n        /* \"#utility.yul\":6890:7021   */\n      tag_76\n      jump\t// in\n    tag_138:\n        /* \"#utility.yul\":6882:7021   */\n      swap1\n      pop\n        /* \"#utility.yul\":6609:7028   */\n      swap2\n      swap1\n      pop\n      jump\t// out\n\n    auxdata: 0xa2646970667358221220b59ef31362b664e7a23a1b56b3f00df84b8db768b493ea1a652a84fa49b4de6364736f6c634300081e0033\n}\n",
				"bytecode": {
					"linkReferences": {},
					"object": "608060405234801561000f575f5ffd5b50604051610d02380380610d0283398181016040528101906100319190610260565b335f5f6101000a81548173ffffffffffffffffffffffffffffffffffffffff021916908373ffffffffffffffffffffffffffffffffffffffff160217905550804261007c91906102e7565b60048190555081600190816100919190610521565b505f6003819055505f60025f6101000a81548173ffffffffffffffffffffffffffffffffffffffff021916908373ffffffffffffffffffffffffffffffffffffffff16021790555050506105f0565b5f604051905090565b5f5ffd5b5f5ffd5b5f5ffd5b5f5ffd5b5f601f19601f8301169050919050565b7f4e487b71000000000000000000000000000000000000000000000000000000005f52604160045260245ffd5b61013f826100f9565b810181811067ffffffffffffffff8211171561015e5761015d610109565b5b80604052505050565b5f6101706100e0565b905061017c8282610136565b919050565b5f67ffffffffffffffff82111561019b5761019a610109565b5b6101a4826100f9565b9050602081019050919050565b8281835e5f83830152505050565b5f6101d16101cc84610181565b610167565b9050828152602081018484840111156101ed576101ec6100f5565b5b6101f88482856101b1565b509392505050565b5f82601f830112610214576102136100f1565b5b81516102248482602086016101bf565b91505092915050565b5f819050919050565b61023f8161022d565b8114610249575f5ffd5b50565b5f8151905061025a81610236565b92915050565b5f5f60408385031215610276576102756100e9565b5b5f83015167ffffffffffffffff811115610293576102926100ed565b5b61029f85828601610200565b92505060206102b08582860161024c565b9150509250929050565b7f4e487b71000000000000000000000000000000000000000000000000000000005f52601160045260245ffd5b5f6102f18261022d565b91506102fc8361022d565b9250828201905080821115610314576103136102ba565b5b92915050565b5f81519050919050565b7f4e487b71000000000000000000000000000000000000000000000000000000005f52602260045260245ffd5b5f600282049050600182168061036857607f821691505b60208210810361037b5761037a610324565b5b50919050565b5f819050815f5260205f209050919050565b5f6020601f8301049050919050565b5f82821b905092915050565b5f600883026103dd7fffffffffffffffffffffffffffffffffffffffffffffffffffffffffffffffff826103a2565b6103e786836103a2565b95508019841693508086168417925050509392505050565b5f819050919050565b5f61042261041d6104188461022d565b6103ff565b61022d565b9050919050565b5f819050919050565b61043b83610408565b61044f61044782610429565b8484546103ae565b825550505050565b5f5f905090565b610466610457565b610471818484610432565b505050565b5b81811015610494576104895f8261045e565b600181019050610477565b5050565b601f8211156104d9576104aa81610381565b6104b384610393565b810160208510156104c2578190505b6104d66104ce85610393565b830182610476565b50505b505050565b5f82821c905092915050565b5f6104f95f19846008026104de565b1980831691505092915050565b5f61051183836104ea565b9150826002028217905092915050565b61052a8261031a565b67ffffffffffffffff81111561054357610542610109565b5b61054d8254610351565b610558828285610498565b5f60209050601f831160018114610589575f8415610577578287015190505b6105818582610506565b8655506105e8565b601f19841661059786610381565b5f5b828110156105be57848901518255600182019150602085019450602081019050610599565b868310156105db57848901516105d7601f8916826104ea565b8355505b6001600288020188555050505b505050505050565b610705806105fd5f395ff3fe608060405234801561000f575f5ffd5b506004361061007b575f3560e01c8063c06fad0611610059578063c06fad06146100d9578063c4109648146100f7578063cef55b9a14610116578063d57bde79146101325761007b565b8063155f586d1461007f5780638da5cb5b1461009d57806391f90157146100bb575b5f5ffd5b610087610150565b6040516100949190610393565b60405180910390f35b6100a5610156565b6040516100b291906103eb565b60405180910390f35b6100c361017a565b6040516100d091906103eb565b60405180910390f35b6100e161019f565b6040516100ee9190610474565b60405180910390f35b6100ff61022b565b60405161010d929190610494565b60405180910390f35b610130600480360381019061012b91906104e9565b6102a3565b005b61013a610375565b6040516101479190610393565b60405180910390f35b60045481565b5f5f9054906101000a900473ffffffffffffffffffffffffffffffffffffffff1681565b60025f9054906101000a900473ffffffffffffffffffffffffffffffffffffffff1681565b600180546101ac90610541565b80601f01602080910402602001604051908101604052809291908181526020018280546101d890610541565b80156102235780601f106101fa57610100808354040283529160200191610223565b820191905f5260205f20905b81548152906001019060200180831161020657829003601f168201915b505050505081565b5f5f60045442106102645760025f9054906101000a900473ffffffffffffffffffffffffffffffffffffffff166003549150915061029f565b6040517f08c379a0000000000000000000000000000000000000000000000000000000008152600401610296906105bb565b60405180910390fd5b9091565b60045442106102e7576040517f08c379a00000000000000000000000000000000000000000000000000000000081526004016102de90610623565b60405180910390fd5b600354811161032b576040517f08c379a0000000000000000000000000000000000000000000000000000000008152600401610322906106b1565b60405180910390fd5b806003819055503360025f6101000a81548173ffffffffffffffffffffffffffffffffffffffff021916908373ffffffffffffffffffffffffffffffffffffffff16021790555050565b60035481565b5f819050919050565b61038d8161037b565b82525050565b5f6020820190506103a65f830184610384565b92915050565b5f73ffffffffffffffffffffffffffffffffffffffff82169050919050565b5f6103d5826103ac565b9050919050565b6103e5816103cb565b82525050565b5f6020820190506103fe5f8301846103dc565b92915050565b5f81519050919050565b5f82825260208201905092915050565b8281835e5f83830152505050565b5f601f19601f8301169050919050565b5f61044682610404565b610450818561040e565b935061046081856020860161041e565b6104698161042c565b840191505092915050565b5f6020820190508181035f83015261048c818461043c565b905092915050565b5f6040820190506104a75f8301856103dc565b6104b46020830184610384565b9392505050565b5f5ffd5b6104c88161037b565b81146104d2575f5ffd5b50565b5f813590506104e3816104bf565b92915050565b5f602082840312156104fe576104fd6104bb565b5b5f61050b848285016104d5565b91505092915050565b7f4e487b71000000000000000000000000000000000000000000000000000000005f52602260045260245ffd5b5f600282049050600182168061055857607f821691505b60208210810361056b5761056a610514565b5b50919050565b7f41756374696f6e206973207374696c6c20676f696e67206f6e000000000000005f82015250565b5f6105a560198361040e565b91506105b082610571565b602082019050919050565b5f6020820190508181035f8301526105d281610599565b9050919050565b7f41756374696f6e20686173206265656e20656e646564210000000000000000005f82015250565b5f61060d60178361040e565b9150610618826105d9565b602082019050919050565b5f6020820190508181035f83015261063a81610601565b9050919050565b7f596f75206e65656420746f20626964206d6f7265207468616e207468652068695f8201527f6768657374206269642100000000000000000000000000000000000000000000602082015250565b5f61069b602a8361040e565b91506106a682610641565b604082019050919050565b5f6020820190508181035f8301526106c88161068f565b905091905056fea2646970667358221220b59ef31362b664e7a23a1b56b3f00df84b8db768b493ea1a652a84fa49b4de6364736f6c634300081e0033",
					"opcodes": "PUSH1 0x80 PUSH1 0x40 MSTORE CALLVALUE DUP1 ISZERO PUSH2 0xF JUMPI PUSH0 PUSH0 REVERT JUMPDEST POP PUSH1 0x40 MLOAD PUSH2 0xD02 CODESIZE SUB DUP1 PUSH2 0xD02 DUP4 CODECOPY DUP2 DUP2 ADD PUSH1 0x40 MSTORE DUP2 ADD SWAP1 PUSH2 0x31 SWAP2 SWAP1 PUSH2 0x260 JUMP JUMPDEST CALLER PUSH0 PUSH0 PUSH2 0x100 EXP DUP2 SLOAD DUP2 PUSH20 0xFFFFFFFFFFFFFFFFFFFFFFFFFFFFFFFFFFFFFFFF MUL NOT AND SWAP1 DUP4 PUSH20 0xFFFFFFFFFFFFFFFFFFFFFFFFFFFFFFFFFFFFFFFF AND MUL OR SWAP1 SSTORE POP DUP1 TIMESTAMP PUSH2 0x7C SWAP2 SWAP1 PUSH2 0x2E7 JUMP JUMPDEST PUSH1 0x4 DUP2 SWAP1 SSTORE POP DUP2 PUSH1 0x1 SWAP1 DUP2 PUSH2 0x91 SWAP2 SWAP1 PUSH2 0x521 JUMP JUMPDEST POP PUSH0 PUSH1 0x3 DUP2 SWAP1 SSTORE POP PUSH0 PUSH1 0x2 PUSH0 PUSH2 0x100 EXP DUP2 SLOAD DUP2 PUSH20 0xFFFFFFFFFFFFFFFFFFFFFFFFFFFFFFFFFFFFFFFF MUL NOT AND SWAP1 DUP4 PUSH20 0xFFFFFFFFFFFFFFFFFFFFFFFFFFFFFFFFFFFFFFFF AND MUL OR SWAP1 SSTORE POP POP POP PUSH2 0x5F0 JUMP JUMPDEST PUSH0 PUSH1 0x40 MLOAD SWAP1 POP SWAP1 JUMP JUMPDEST PUSH0 PUSH0 REVERT JUMPDEST PUSH0 PUSH0 REVERT JUMPDEST PUSH0 PUSH0 REVERT JUMPDEST PUSH0 PUSH0 REVERT JUMPDEST PUSH0 PUSH1 0x1F NOT PUSH1 0x1F DUP4 ADD AND SWAP1 POP SWAP2 SWAP1 POP JUMP JUMPDEST PUSH32 0x4E487B7100000000000000000000000000000000000000000000000000000000 PUSH0 MSTORE PUSH1 0x41 PUSH1 0x4 MSTORE PUSH1 0x24 PUSH0 REVERT JUMPDEST PUSH2 0x13F DUP3 PUSH2 0xF9 JUMP JUMPDEST DUP2 ADD DUP2 DUP2 LT PUSH8 0xFFFFFFFFFFFFFFFF DUP3 GT OR ISZERO PUSH2 0x15E JUMPI PUSH2 0x15D PUSH2 0x109 JUMP JUMPDEST JUMPDEST DUP1 PUSH1 0x40 MSTORE POP POP POP JUMP JUMPDEST PUSH0 PUSH2 0x170 PUSH2 0xE0 JUMP JUMPDEST SWAP1 POP PUSH2 0x17C DUP3 DUP3 PUSH2 0x136 JUMP JUMPDEST SWAP2 SWAP1 POP JUMP JUMPDEST PUSH0 PUSH8 0xFFFFFFFFFFFFFFFF DUP3 GT ISZERO PUSH2 0x19B JUMPI PUSH2 0x19A PUSH2 0x109 JUMP JUMPDEST JUMPDEST PUSH2 0x1A4 DUP3 PUSH2 0xF9 JUMP JUMPDEST SWAP1 POP PUSH1 0x20 DUP2 ADD SWAP1 POP SWAP2 SWAP1 POP JUMP JUMPDEST DUP3 DUP2 DUP4 MCOPY PUSH0 DUP4 DUP4 ADD MSTORE POP POP POP JUMP JUMPDEST PUSH0 PUSH2 0x1D1 PUSH2 0x1CC DUP5 PUSH2 0x181 JUMP JUMPDEST PUSH2 0x167 JUMP JUMPDEST SWAP1 POP DUP3 DUP2 MSTORE PUSH1 0x20 DUP2 ADD DUP5 DUP5 DUP5 ADD GT ISZERO PUSH2 0x1ED JUMPI PUSH2 0x1EC PUSH2 0xF5 JUMP JUMPDEST JUMPDEST PUSH2 0x1F8 DUP5 DUP3 DUP6 PUSH2 0x1B1 JUMP JUMPDEST POP SWAP4 SWAP3 POP POP POP JUMP JUMPDEST PUSH0 DUP3 PUSH1 0x1F DUP4 ADD SLT PUSH2 0x214 JUMPI PUSH2 0x213 PUSH2 0xF1 JUMP JUMPDEST JUMPDEST DUP2 MLOAD PUSH2 0x224 DUP5 DUP3 PUSH1 0x20 DUP7 ADD PUSH2 0x1BF JUMP JUMPDEST SWAP2 POP POP SWAP3 SWAP2 POP POP JUMP JUMPDEST PUSH0 DUP2 SWAP1 POP SWAP2 SWAP1 POP JUMP JUMPDEST PUSH2 0x23F DUP2 PUSH2 0x22D JUMP JUMPDEST DUP2 EQ PUSH2 0x249 JUMPI PUSH0 PUSH0 REVERT JUMPDEST POP JUMP JUMPDEST PUSH0 DUP2 MLOAD SWAP1 POP PUSH2 0x25A DUP2 PUSH2 0x236 JUMP JUMPDEST SWAP3 SWAP2 POP POP JUMP JUMPDEST PUSH0 PUSH0 PUSH1 0x40 DUP4 DUP6 SUB SLT ISZERO PUSH2 0x276 JUMPI PUSH2 0x275 PUSH2 0xE9 JUMP JUMPDEST JUMPDEST PUSH0 DUP4 ADD MLOAD PUSH8 0xFFFFFFFFFFFFFFFF DUP2 GT ISZERO PUSH2 0x293 JUMPI PUSH2 0x292 PUSH2 0xED JUMP JUMPDEST JUMPDEST PUSH2 0x29F DUP6 DUP3 DUP7 ADD PUSH2 0x200 JUMP JUMPDEST SWAP3 POP POP PUSH1 0x20 PUSH2 0x2B0 DUP6 DUP3 DUP7 ADD PUSH2 0x24C JUMP JUMPDEST SWAP2 POP POP SWAP3 POP SWAP3 SWAP1 POP JUMP JUMPDEST PUSH32 0x4E487B7100000000000000000000000000000000000000000000000000000000 PUSH0 MSTORE PUSH1 0x11 PUSH1 0x4 MSTORE PUSH1 0x24 PUSH0 REVERT JUMPDEST PUSH0 PUSH2 0x2F1 DUP3 PUSH2 0x22D JUMP JUMPDEST SWAP2 POP PUSH2 0x2FC DUP4 PUSH2 0x22D JUMP JUMPDEST SWAP3 POP DUP3 DUP3 ADD SWAP1 POP DUP1 DUP3 GT ISZERO PUSH2 0x314 JUMPI PUSH2 0x313 PUSH2 0x2BA JUMP JUMPDEST JUMPDEST SWAP3 SWAP2 POP POP JUMP JUMPDEST PUSH0 DUP2 MLOAD SWAP1 POP SWAP2 SWAP1 POP JUMP JUMPDEST PUSH32 0x4E487B7100000000000000000000000000000000000000000000000000000000 PUSH0 MSTORE PUSH1 0x22 PUSH1 0x4 MSTORE PUSH1 0x24 PUSH0 REVERT JUMPDEST PUSH0 PUSH1 0x2 DUP3 DIV SWAP1 POP PUSH1 0x1 DUP3 AND DUP1 PUSH2 0x368 JUMPI PUSH1 0x7F DUP3 AND SWAP2 POP JUMPDEST PUSH1 0x20 DUP3 LT DUP2 SUB PUSH2 0x37B JUMPI PUSH2 0x37A PUSH2 0x324 JUMP JUMPDEST JUMPDEST POP SWAP2 SWAP1 POP JUMP JUMPDEST PUSH0 DUP2 SWAP1 POP DUP2 PUSH0 MSTORE PUSH1 0x20 PUSH0 KECCAK256 SWAP1 POP SWAP2 SWAP1 POP JUMP JUMPDEST PUSH0 PUSH1 0x20 PUSH1 0x1F DUP4 ADD DIV SWAP1 POP SWAP2 SWAP1 POP JUMP JUMPDEST PUSH0 DUP3 DUP3 SHL SWAP1 POP SWAP3 SWAP2 POP POP JUMP JUMPDEST PUSH0 PUSH1 0x8 DUP4 MUL PUSH2 0x3DD PUSH32 0xFFFFFFFFFFFFFFFFFFFFFFFFFFFFFFFFFFFFFFFFFFFFFFFFFFFFFFFFFFFFFFFF DUP3 PUSH2 0x3A2 JUMP JUMPDEST PUSH2 0x3E7 DUP7 DUP4 PUSH2 0x3A2 JUMP JUMPDEST SWAP6 POP DUP1 NOT DUP5 AND SWAP4 POP DUP1 DUP7 AND DUP5 OR SWAP3 POP POP POP SWAP4 SWAP3 POP POP POP JUMP JUMPDEST PUSH0 DUP2 SWAP1 POP SWAP2 SWAP1 POP JUMP JUMPDEST PUSH0 PUSH2 0x422 PUSH2 0x41D PUSH2 0x418 DUP5 PUSH2 0x22D JUMP JUMPDEST PUSH2 0x3FF JUMP JUMPDEST PUSH2 0x22D JUMP JUMPDEST SWAP1 POP SWAP2 SWAP1 POP JUMP JUMPDEST PUSH0 DUP2 SWAP1 POP SWAP2 SWAP1 POP JUMP JUMPDEST PUSH2 0x43B DUP4 PUSH2 0x408 JUMP JUMPDEST PUSH2 0x44F PUSH2 0x447 DUP3 PUSH2 0x429 JUMP JUMPDEST DUP5 DUP5 SLOAD PUSH2 0x3AE JUMP JUMPDEST DUP3 SSTORE POP POP POP POP JUMP JUMPDEST PUSH0 PUSH0 SWAP1 POP SWAP1 JUMP JUMPDEST PUSH2 0x466 PUSH2 0x457 JUMP JUMPDEST PUSH2 0x471 DUP2 DUP5 DUP5 PUSH2 0x432 JUMP JUMPDEST POP POP POP JUMP JUMPDEST JUMPDEST DUP2 DUP2 LT ISZERO PUSH2 0x494 JUMPI PUSH2 0x489 PUSH0 DUP3 PUSH2 0x45E JUMP JUMPDEST PUSH1 0x1 DUP2 ADD SWAP1 POP PUSH2 0x477 JUMP JUMPDEST POP POP JUMP JUMPDEST PUSH1 0x1F DUP3 GT ISZERO PUSH2 0x4D9 JUMPI PUSH2 0x4AA DUP2 PUSH2 0x381 JUMP JUMPDEST PUSH2 0x4B3 DUP5 PUSH2 0x393 JUMP JUMPDEST DUP2 ADD PUSH1 0x20 DUP6 LT ISZERO PUSH2 0x4C2 JUMPI DUP2 SWAP1 POP JUMPDEST PUSH2 0x4D6 PUSH2 0x4CE DUP6 PUSH2 0x393 JUMP JUMPDEST DUP4 ADD DUP3 PUSH2 0x476 JUMP JUMPDEST POP POP JUMPDEST POP POP POP JUMP JUMPDEST PUSH0 DUP3 DUP3 SHR SWAP1 POP SWAP3 SWAP2 POP POP JUMP JUMPDEST PUSH0 PUSH2 0x4F9 PUSH0 NOT DUP5 PUSH1 0x8 MUL PUSH2 0x4DE JUMP JUMPDEST NOT DUP1 DUP4 AND SWAP2 POP POP SWAP3 SWAP2 POP POP JUMP JUMPDEST PUSH0 PUSH2 0x511 DUP4 DUP4 PUSH2 0x4EA JUMP JUMPDEST SWAP2 POP DUP3 PUSH1 0x2 MUL DUP3 OR SWAP1 POP SWAP3 SWAP2 POP POP JUMP JUMPDEST PUSH2 0x52A DUP3 PUSH2 0x31A JUMP JUMPDEST PUSH8 0xFFFFFFFFFFFFFFFF DUP2 GT ISZERO PUSH2 0x543 JUMPI PUSH2 0x542 PUSH2 0x109 JUMP JUMPDEST JUMPDEST PUSH2 0x54D DUP3 SLOAD PUSH2 0x351 JUMP JUMPDEST PUSH2 0x558 DUP3 DUP3 DUP6 PUSH2 0x498 JUMP JUMPDEST PUSH0 PUSH1 0x20 SWAP1 POP PUSH1 0x1F DUP4 GT PUSH1 0x1 DUP2 EQ PUSH2 0x589 JUMPI PUSH0 DUP5 ISZERO PUSH2 0x577 JUMPI DUP3 DUP8 ADD MLOAD SWAP1 POP JUMPDEST PUSH2 0x581 DUP6 DUP3 PUSH2 0x506 JUMP JUMPDEST DUP7 SSTORE POP PUSH2 0x5E8 JUMP JUMPDEST PUSH1 0x1F NOT DUP5 AND PUSH2 0x597 DUP7 PUSH2 0x381 JUMP JUMPDEST PUSH0 JUMPDEST DUP3 DUP2 LT ISZERO PUSH2 0x5BE JUMPI DUP5 DUP10 ADD MLOAD DUP3 SSTORE PUSH1 0x1 DUP3 ADD SWAP2 POP PUSH1 0x20 DUP6 ADD SWAP5 POP PUSH1 0x20 DUP2 ADD SWAP1 POP PUSH2 0x599 JUMP JUMPDEST DUP7 DUP4 LT ISZERO PUSH2 0x5DB JUMPI DUP5 DUP10 ADD MLOAD PUSH2 0x5D7 PUSH1 0x1F DUP10 AND DUP3 PUSH2 0x4EA JUMP JUMPDEST DUP4 SSTORE POP JUMPDEST PUSH1 0x1 PUSH1 0x2 DUP9 MUL ADD DUP9 SSTORE POP POP POP JUMPDEST POP POP POP POP POP POP JUMP JUMPDEST PUSH2 0x705 DUP1 PUSH2 0x5FD PUSH0 CODECOPY PUSH0 RETURN INVALID PUSH1 0x80 PUSH1 0x40 MSTORE CALLVALUE DUP1 ISZERO PUSH2 0xF JUMPI PUSH0 PUSH0 REVERT JUMPDEST POP PUSH1 0x4 CALLDATASIZE LT PUSH2 0x7B JUMPI PUSH0 CALLDATALOAD PUSH1 0xE0 SHR DUP1 PUSH4 0xC06FAD06 GT PUSH2 0x59 JUMPI DUP1 PUSH4 0xC06FAD06 EQ PUSH2 0xD9 JUMPI DUP1 PUSH4 0xC4109648 EQ PUSH2 0xF7 JUMPI DUP1 PUSH4 0xCEF55B9A EQ PUSH2 0x116 JUMPI DUP1 PUSH4 0xD57BDE79 EQ PUSH2 0x132 JUMPI PUSH2 0x7B JUMP JUMPDEST DUP1 PUSH4 0x155F586D EQ PUSH2 0x7F JUMPI DUP1 PUSH4 0x8DA5CB5B EQ PUSH2 0x9D JUMPI DUP1 PUSH4 0x91F90157 EQ PUSH2 0xBB JUMPI JUMPDEST PUSH0 PUSH0 REVERT JUMPDEST PUSH2 0x87 PUSH2 0x150 JUMP JUMPDEST PUSH1 0x40 MLOAD PUSH2 0x94 SWAP2 SWAP1 PUSH2 0x393 JUMP JUMPDEST PUSH1 0x40 MLOAD DUP1 SWAP2 SUB SWAP1 RETURN JUMPDEST PUSH2 0xA5 PUSH2 0x156 JUMP JUMPDEST PUSH1 0x40 MLOAD PUSH2 0xB2 SWAP2 SWAP1 PUSH2 0x3EB JUMP JUMPDEST PUSH1 0x40 MLOAD DUP1 SWAP2 SUB SWAP1 RETURN JUMPDEST PUSH2 0xC3 PUSH2 0x17A JUMP JUMPDEST PUSH1 0x40 MLOAD PUSH2 0xD0 SWAP2 SWAP1 PUSH2 0x3EB JUMP JUMPDEST PUSH1 0x40 MLOAD DUP1 SWAP2 SUB SWAP1 RETURN JUMPDEST PUSH2 0xE1 PUSH2 0x19F JUMP JUMPDEST PUSH1 0x40 MLOAD PUSH2 0xEE SWAP2 SWAP1 PUSH2 0x474 JUMP JUMPDEST PUSH1 0x40 MLOAD DUP1 SWAP2 SUB SWAP1 RETURN JUMPDEST PUSH2 0xFF PUSH2 0x22B JUMP JUMPDEST PUSH1 0x40 MLOAD PUSH2 0x10D SWAP3 SWAP2 SWAP1 PUSH2 0x494 JUMP JUMPDEST PUSH1 0x40 MLOAD DUP1 SWAP2 SUB SWAP1 RETURN JUMPDEST PUSH2 0x130 PUSH1 0x4 DUP1 CALLDATASIZE SUB DUP2 ADD SWAP1 PUSH2 0x12B SWAP2 SWAP1 PUSH2 0x4E9 JUMP JUMPDEST PUSH2 0x2A3 JUMP JUMPDEST STOP JUMPDEST PUSH2 0x13A PUSH2 0x375 JUMP JUMPDEST PUSH1 0x40 MLOAD PUSH2 0x147 SWAP2 SWAP1 PUSH2 0x393 JUMP JUMPDEST PUSH1 0x40 MLOAD DUP1 SWAP2 SUB SWAP1 RETURN JUMPDEST PUSH1 0x4 SLOAD DUP2 JUMP JUMPDEST PUSH0 PUSH0 SWAP1 SLOAD SWAP1 PUSH2 0x100 EXP SWAP1 DIV PUSH20 0xFFFFFFFFFFFFFFFFFFFFFFFFFFFFFFFFFFFFFFFF AND DUP2 JUMP JUMPDEST PUSH1 0x2 PUSH0 SWAP1 SLOAD SWAP1 PUSH2 0x100 EXP SWAP1 DIV PUSH20 0xFFFFFFFFFFFFFFFFFFFFFFFFFFFFFFFFFFFFFFFF AND DUP2 JUMP JUMPDEST PUSH1 0x1 DUP1 SLOAD PUSH2 0x1AC SWAP1 PUSH2 0x541 JUMP JUMPDEST DUP1 PUSH1 0x1F ADD PUSH1 0x20 DUP1 SWAP2 DIV MUL PUSH1 0x20 ADD PUSH1 0x40 MLOAD SWAP1 DUP2 ADD PUSH1 0x40 MSTORE DUP1 SWAP3 SWAP2 SWAP1 DUP2 DUP2 MSTORE PUSH1 0x20 ADD DUP3 DUP1 SLOAD PUSH2 0x1D8 SWAP1 PUSH2 0x541 JUMP JUMPDEST DUP1 ISZERO PUSH2 0x223 JUMPI DUP1 PUSH1 0x1F LT PUSH2 0x1FA JUMPI PUSH2 0x100 DUP1 DUP4 SLOAD DIV MUL DUP4 MSTORE SWAP2 PUSH1 0x20 ADD SWAP2 PUSH2 0x223 JUMP JUMPDEST DUP3 ADD SWAP2 SWAP1 PUSH0 MSTORE PUSH1 0x20 PUSH0 KECCAK256 SWAP1 JUMPDEST DUP2 SLOAD DUP2 MSTORE SWAP1 PUSH1 0x1 ADD SWAP1 PUSH1 0x20 ADD DUP1 DUP4 GT PUSH2 0x206 JUMPI DUP3 SWAP1 SUB PUSH1 0x1F AND DUP3 ADD SWAP2 JUMPDEST POP POP POP POP POP DUP2 JUMP JUMPDEST PUSH0 PUSH0 PUSH1 0x4 SLOAD TIMESTAMP LT PUSH2 0x264 JUMPI PUSH1 0x2 PUSH0 SWAP1 SLOAD SWAP1 PUSH2 0x100 EXP SWAP1 DIV PUSH20 0xFFFFFFFFFFFFFFFFFFFFFFFFFFFFFFFFFFFFFFFF AND PUSH1 0x3 SLOAD SWAP2 POP SWAP2 POP PUSH2 0x29F JUMP JUMPDEST PUSH1 0x40 MLOAD PUSH32 0x8C379A000000000000000000000000000000000000000000000000000000000 DUP2 MSTORE PUSH1 0x4 ADD PUSH2 0x296 SWAP1 PUSH2 0x5BB JUMP JUMPDEST PUSH1 0x40 MLOAD DUP1 SWAP2 SUB SWAP1 REVERT JUMPDEST SWAP1 SWAP2 JUMP JUMPDEST PUSH1 0x4 SLOAD TIMESTAMP LT PUSH2 0x2E7 JUMPI PUSH1 0x40 MLOAD PUSH32 0x8C379A000000000000000000000000000000000000000000000000000000000 DUP2 MSTORE PUSH1 0x4 ADD PUSH2 0x2DE SWAP1 PUSH2 0x623 JUMP JUMPDEST PUSH1 0x40 MLOAD DUP1 SWAP2 SUB SWAP1 REVERT JUMPDEST PUSH1 0x3 SLOAD DUP2 GT PUSH2 0x32B JUMPI PUSH1 0x40 MLOAD PUSH32 0x8C379A000000000000000000000000000000000000000000000000000000000 DUP2 MSTORE PUSH1 0x4 ADD PUSH2 0x322 SWAP1 PUSH2 0x6B1 JUMP JUMPDEST PUSH1 0x40 MLOAD DUP1 SWAP2 SUB SWAP1 REVERT JUMPDEST DUP1 PUSH1 0x3 DUP2 SWAP1 SSTORE POP CALLER PUSH1 0x2 PUSH0 PUSH2 0x100 EXP DUP2 SLOAD DUP2 PUSH20 0xFFFFFFFFFFFFFFFFFFFFFFFFFFFFFFFFFFFFFFFF MUL NOT AND SWAP1 DUP4 PUSH20 0xFFFFFFFFFFFFFFFFFFFFFFFFFFFFFFFFFFFFFFFF AND MUL OR SWAP1 SSTORE POP POP JUMP JUMPDEST PUSH1 0x3 SLOAD DUP2 JUMP JUMPDEST PUSH0 DUP2 SWAP1 POP SWAP2 SWAP1 POP JUMP JUMPDEST PUSH2 0x38D DUP2 PUSH2 0x37B JUMP JUMPDEST DUP3 MSTORE POP POP JUMP JUMPDEST PUSH0 PUSH1 0x20 DUP3 ADD SWAP1 POP PUSH2 0x3A6 PUSH0 DUP4 ADD DUP5 PUSH2 0x384 JUMP JUMPDEST SWAP3 SWAP2 POP POP JUMP JUMPDEST PUSH0 PUSH20 0xFFFFFFFFFFFFFFFFFFFFFFFFFFFFFFFFFFFFFFFF DUP3 AND SWAP1 POP SWAP2 SWAP1 POP JUMP JUMPDEST PUSH0 PUSH2 0x3D5 DUP3 PUSH2 0x3AC JUMP JUMPDEST SWAP1 POP SWAP2 SWAP1 POP JUMP JUMPDEST PUSH2 0x3E5 DUP2 PUSH2 0x3CB JUMP JUMPDEST DUP3 MSTORE POP POP JUMP JUMPDEST PUSH0 PUSH1 0x20 DUP3 ADD SWAP1 POP PUSH2 0x3FE PUSH0 DUP4 ADD DUP5 PUSH2 0x3DC JUMP JUMPDEST SWAP3 SWAP2 POP POP JUMP JUMPDEST PUSH0 DUP2 MLOAD SWAP1 POP SWAP2 SWAP1 POP JUMP JUMPDEST PUSH0 DUP3 DUP3 MSTORE PUSH1 0x20 DUP3 ADD SWAP1 POP SWAP3 SWAP2 POP POP JUMP JUMPDEST DUP3 DUP2 DUP4 MCOPY PUSH0 DUP4 DUP4 ADD MSTORE POP POP POP JUMP JUMPDEST PUSH0 PUSH1 0x1F NOT PUSH1 0x1F DUP4 ADD AND SWAP1 POP SWAP2 SWAP1 POP JUMP JUMPDEST PUSH0 PUSH2 0x446 DUP3 PUSH2 0x404 JUMP JUMPDEST PUSH2 0x450 DUP2 DUP6 PUSH2 0x40E JUMP JUMPDEST SWAP4 POP PUSH2 0x460 DUP2 DUP6 PUSH1 0x20 DUP7 ADD PUSH2 0x41E JUMP JUMPDEST PUSH2 0x469 DUP2 PUSH2 0x42C JUMP JUMPDEST DUP5 ADD SWAP2 POP POP SWAP3 SWAP2 POP POP JUMP JUMPDEST PUSH0 PUSH1 0x20 DUP3 ADD SWAP1 POP DUP2 DUP2 SUB PUSH0 DUP4 ADD MSTORE PUSH2 0x48C DUP2 DUP5 PUSH2 0x43C JUMP JUMPDEST SWAP1 POP SWAP3 SWAP2 POP POP JUMP JUMPDEST PUSH0 PUSH1 0x40 DUP3 ADD SWAP1 POP PUSH2 0x4A7 PUSH0 DUP4 ADD DUP6 PUSH2 0x3DC JUMP JUMPDEST PUSH2 0x4B4 PUSH1 0x20 DUP4 ADD DUP5 PUSH2 0x384 JUMP JUMPDEST SWAP4 SWAP3 POP POP POP JUMP JUMPDEST PUSH0 PUSH0 REVERT JUMPDEST PUSH2 0x4C8 DUP2 PUSH2 0x37B JUMP JUMPDEST DUP2 EQ PUSH2 0x4D2 JUMPI PUSH0 PUSH0 REVERT JUMPDEST POP JUMP JUMPDEST PUSH0 DUP2 CALLDATALOAD SWAP1 POP PUSH2 0x4E3 DUP2 PUSH2 0x4BF JUMP JUMPDEST SWAP3 SWAP2 POP POP JUMP JUMPDEST PUSH0 PUSH1 0x20 DUP3 DUP5 SUB SLT ISZERO PUSH2 0x4FE JUMPI PUSH2 0x4FD PUSH2 0x4BB JUMP JUMPDEST JUMPDEST PUSH0 PUSH2 0x50B DUP5 DUP3 DUP6 ADD PUSH2 0x4D5 JUMP JUMPDEST SWAP2 POP POP SWAP3 SWAP2 POP POP JUMP JUMPDEST PUSH32 0x4E487B7100000000000000000000000000000000000000000000000000000000 PUSH0 MSTORE PUSH1 0x22 PUSH1 0x4 MSTORE PUSH1 0x24 PUSH0 REVERT JUMPDEST PUSH0 PUSH1 0x2 DUP3 DIV SWAP1 POP PUSH1 0x1 DUP3 AND DUP1 PUSH2 0x558 JUMPI PUSH1 0x7F DUP3 AND SWAP2 POP JUMPDEST PUSH1 0x20 DUP3 LT DUP2 SUB PUSH2 0x56B JUMPI PUSH2 0x56A PUSH2 0x514 JUMP JUMPDEST JUMPDEST POP SWAP2 SWAP1 POP JUMP JUMPDEST PUSH32 0x41756374696F6E206973207374696C6C20676F696E67206F6E00000000000000 PUSH0 DUP3 ADD MSTORE POP JUMP JUMPDEST PUSH0 PUSH2 0x5A5 PUSH1 0x19 DUP4 PUSH2 0x40E JUMP JUMPDEST SWAP2 POP PUSH2 0x5B0 DUP3 PUSH2 0x571 JUMP JUMPDEST PUSH1 0x20 DUP3 ADD SWAP1 POP SWAP2 SWAP1 POP JUMP JUMPDEST PUSH0 PUSH1 0x20 DUP3 ADD SWAP1 POP DUP2 DUP2 SUB PUSH0 DUP4 ADD MSTORE PUSH2 0x5D2 DUP2 PUSH2 0x599 JUMP JUMPDEST SWAP1 POP SWAP2 SWAP1 POP JUMP JUMPDEST PUSH32 0x41756374696F6E20686173206265656E20656E64656421000000000000000000 PUSH0 DUP3 ADD MSTORE POP JUMP JUMPDEST PUSH0 PUSH2 0x60D PUSH1 0x17 DUP4 PUSH2 0x40E JUMP JUMPDEST SWAP2 POP PUSH2 0x618 DUP3 PUSH2 0x5D9 JUMP JUMPDEST PUSH1 0x20 DUP3 ADD SWAP1 POP SWAP2 SWAP1 POP JUMP JUMPDEST PUSH0 PUSH1 0x20 DUP3 ADD SWAP1 POP DUP2 DUP2 SUB PUSH0 DUP4 ADD MSTORE PUSH2 0x63A DUP2 PUSH2 0x601 JUMP JUMPDEST SWAP1 POP SWAP2 SWAP1 POP JUMP JUMPDEST PUSH32 0x596F75206E65656420746F20626964206D6F7265207468616E20746865206869 PUSH0 DUP3 ADD MSTORE PUSH32 0x6768657374206269642100000000000000000000000000000000000000000000 PUSH1 0x20 DUP3 ADD MSTORE POP JUMP JUMPDEST PUSH0 PUSH2 0x69B PUSH1 0x2A DUP4 PUSH2 0x40E JUMP JUMPDEST SWAP2 POP PUSH2 0x6A6 DUP3 PUSH2 0x641 JUMP JUMPDEST PUSH1 0x40 DUP3 ADD SWAP1 POP SWAP2 SWAP1 POP JUMP JUMPDEST PUSH0 PUSH1 0x20 DUP3 ADD SWAP1 POP DUP2 DUP2 SUB PUSH0 DUP4 ADD MSTORE PUSH2 0x6C8 DUP2 PUSH2 0x68F JUMP JUMPDEST SWAP1 POP SWAP2 SWAP1 POP JUMP INVALID LOG2 PUSH5 0x6970667358 0x22 SLT KECCAK256 0xB5 SWAP15 RETURN SGT PUSH3 0xB664E7 LOG2 GASPRICE SHL JUMP 0xB3 CREATE 0xD EXTCALL 0x4B DUP14 0xB7 PUSH9 0xB493EA1A652A84FA49 0xB4 0xDE PUSH4 0x64736F6C PUSH4 0x4300081E STOP CALLER "
				},
				"gasEstimates": {
					"creation": {
						"codeDepositCost": "359400",
						"executionCost": "infinite",
						"totalCost": "infinite"
					},
					"external": {
						"auctionTime()": "2426",
						"getBidder()": "6882",
						"highestBid()": "2491",
						"highestBidder()": "2553",
						"items()": "infinite",
						"owner()": "2530",
						"setBid(uint256)": "51069"
					}
				},
				"methodIdentifiers": {
					"auctionTime()": "155f586d",
					"getBidder()": "c4109648",
					"highestBid()": "d57bde79",
					"highestBidder()": "91f90157",
					"items()": "c06fad06",
					"owner()": "8da5cb5b",
					"setBid(uint256)": "cef55b9a"
				}
			},
			"storageLayout": {
				"storage": [
					{
						"astId": 3,
						"contract": "Day 4/AuctionHouse.sol:AuctionHouse",
						"label": "owner",
						"offset": 0,
						"slot": "0",
						"type": "t_address"
					},
					{
						"astId": 5,
						"contract": "Day 4/AuctionHouse.sol:AuctionHouse",
						"label": "items",
						"offset": 0,
						"slot": "1",
						"type": "t_string_storage"
					},
					{
						"astId": 7,
						"contract": "Day 4/AuctionHouse.sol:AuctionHouse",
						"label": "highestBidder",
						"offset": 0,
						"slot": "2",
						"type": "t_address"
					},
					{
						"astId": 9,
						"contract": "Day 4/AuctionHouse.sol:AuctionHouse",
						"label": "highestBid",
						"offset": 0,
						"slot": "3",
						"type": "t_uint256"
					},
					{
						"astId": 11,
						"contract": "Day 4/AuctionHouse.sol:AuctionHouse",
						"label": "auctionTime",
						"offset": 0,
						"slot": "4",
						"type": "t_uint256"
					}
				],
				"types": {
					"t_address": {
						"encoding": "inplace",
						"label": "address",
						"numberOfBytes": "20"
					},
					"t_string_storage": {
						"encoding": "bytes",
						"label": "string",
						"numberOfBytes": "32"
					},
					"t_uint256": {
						"encoding": "inplace",
						"label": "uint256",
						"numberOfBytes": "32"
					}
				}
			},
			"userdoc": {
				"kind": "user",
				"methods": {},
				"version": 1
			}
		}
	}
}