{
	"data": {
		"bytecode": {
			"linkReferences": {},
			"object": "60806040525f5f553480156011575f5ffd5b506101b98061001f5f395ff3fe608060405234801561000f575f5ffd5b506004361061003f575f3560e01c806329c9c002146100435780636e76a5851461004d578063ff125a1e1461006b575b5f5ffd5b61004b610075565b005b61005561008a565b60405161006291906100bc565b60405180910390f35b61007361008f565b005b60015f546100839190610102565b5f81905550565b5f5481565b60015f5461009d9190610142565b5f81905550565b5f819050919050565b6100b6816100a4565b82525050565b5f6020820190506100cf5f8301846100ad565b92915050565b7f4e487b71000000000000000000000000000000000000000000000000000000005f52601160045260245ffd5b5f61010c826100a4565b9150610117836100a4565b925082820390508181125f8412168282135f85121516171561013c5761013b6100d5565b5b92915050565b5f61014c826100a4565b9150610157836100a4565b92508282019050828112155f8312168382125f84121516171561017d5761017c6100d5565b5b9291505056fea2646970667358221220f935919cbbb8dd3a51675a86a025708a990d2a3e965b2f58c6400b42ad7d412a64736f6c634300081e0033",
			"opcodes": "PUSH1 0x80 PUSH1 0x40 MSTORE PUSH0 PUSH0 SSTORE CALLVALUE DUP1 ISZERO PUSH1 0x11 JUMPI PUSH0 PUSH0 REVERT JUMPDEST POP PUSH2 0x1B9 DUP1 PUSH2 0x1F PUSH0 CODECOPY PUSH0 RETURN INVALID PUSH1 0x80 PUSH1 0x40 MSTORE CALLVALUE DUP1 ISZERO PUSH2 0xF JUMPI PUSH0 PUSH0 REVERT JUMPDEST POP PUSH1 0x4 CALLDATASIZE LT PUSH2 0x3F JUMPI PUSH0 CALLDATALOAD PUSH1 0xE0 SHR DUP1 PUSH4 0x29C9C002 EQ PUSH2 0x43 JUMPI DUP1 PUSH4 0x6E76A585 EQ PUSH2 0x4D JUMPI DUP1 PUSH4 0xFF125A1E EQ PUSH2 0x6B JUMPI JUMPDEST PUSH0 PUSH0 REVERT JUMPDEST PUSH2 0x4B PUSH2 0x75 JUMP JUMPDEST STOP JUMPDEST PUSH2 0x55 PUSH2 0x8A JUMP JUMPDEST PUSH1 0x40 MLOAD PUSH2 0x62 SWAP2 SWAP1 PUSH2 0xBC JUMP JUMPDEST PUSH1 0x40 MLOAD DUP1 SWAP2 SUB SWAP1 RETURN JUMPDEST PUSH2 0x73 PUSH2 0x8F JUMP JUMPDEST STOP JUMPDEST PUSH1 0x1 PUSH0 SLOAD PUSH2 0x83 SWAP2 SWAP1 PUSH2 0x102 JUMP JUMPDEST PUSH0 DUP2 SWAP1 SSTORE POP JUMP JUMPDEST PUSH0 SLOAD DUP2 JUMP JUMPDEST PUSH1 0x1 PUSH0 SLOAD PUSH2 0x9D SWAP2 SWAP1 PUSH2 0x142 JUMP JUMPDEST PUSH0 DUP2 SWAP1 SSTORE POP JUMP JUMPDEST PUSH0 DUP2 SWAP1 POP SWAP2 SWAP1 POP JUMP JUMPDEST PUSH2 0xB6 DUP2 PUSH2 0xA4 JUMP JUMPDEST DUP3 MSTORE POP POP JUMP JUMPDEST PUSH0 PUSH1 0x20 DUP3 ADD SWAP1 POP PUSH2 0xCF PUSH0 DUP4 ADD DUP5 PUSH2 0xAD JUMP JUMPDEST SWAP3 SWAP2 POP POP JUMP JUMPDEST PUSH32 0x4E487B7100000000000000000000000000000000000000000000000000000000 PUSH0 MSTORE PUSH1 0x11 PUSH1 0x4 MSTORE PUSH1 0x24 PUSH0 REVERT JUMPDEST PUSH0 PUSH2 0x10C DUP3 PUSH2 0xA4 JUMP JUMPDEST SWAP2 POP PUSH2 0x117 DUP4 PUSH2 0xA4 JUMP JUMPDEST SWAP3 POP DUP3 DUP3 SUB SWAP1 POP DUP2 DUP2 SLT PUSH0 DUP5 SLT AND DUP3 DUP3 SGT PUSH0 DUP6 SLT ISZERO AND OR ISZERO PUSH2 0x13C JUMPI PUSH2 0x13B PUSH2 0xD5 JUMP JUMPDEST JUMPDEST SWAP3 SWAP2 POP POP JUMP JUMPDEST PUSH0 PUSH2 0x14C DUP3 PUSH2 0xA4 JUMP JUMPDEST SWAP2 POP PUSH2 0x157 DUP4 PUSH2 0xA4 JUMP JUMPDEST SWAP3 POP DUP3 DUP3 ADD SWAP1 POP DUP3 DUP2 SLT ISZERO PUSH0 DUP4 SLT AND DUP4 DUP3 SLT PUSH0 DUP5 SLT ISZERO AND OR ISZERO PUSH2 0x17D JUMPI PUSH2 0x17C PUSH2 0xD5 JUMP JUMPDEST JUMPDEST SWAP3 SWAP2 POP POP JUMP INVALID LOG2 PUSH5 0x6970667358 0x22 SLT KECCAK256 EXTDELEGATECALL CALLDATALOAD SWAP2 SWAP13 0xBB 0xB8 0xDD GASPRICE MLOAD PUSH8 0x5A86A025708A990D 0x2A RETURNDATACOPY SWAP7 JUMPDEST 0x2F PC 0xC6 BLOCKHASH SIGNEXTEND TIMESTAMP 0xAD PUSH30 0x412A64736F6C634300081E00330000000000000000000000000000000000 "
		},
		"gasEstimates": {
			"creation": {
				"codeDepositCost": "88200",
				"executionCost": "5137",
				"totalCost": "93337"
			},
			"external": {
				"clickCount()": "2424",
				"clickCountDown()": "infinite",
				"clickCountUp()": "infinite"
			}
		},
		"methodIdentifiers": {
			"clickCount()": "6e76a585",
			"clickCountDown()": "29c9c002",
			"clickCountUp()": "ff125a1e"
		}
	},
	"abi": [
		{
			"inputs": [],
			"name": "clickCount",
			"outputs": [
				{
					"internalType": "int256",
					"name": "",
					"type": "int256"
				}
			],
			"stateMutability": "view",
			"type": "function"
		},
		{
			"inputs": [],
			"name": "clickCountDown",
			"outputs": [],
			"stateMutability": "nonpayable",
			"type": "function"
		},
		{
			"inputs": [],
			"name": "clickCountUp",
			"outputs": [],
			"stateMutability": "nonpayable",
			"type": "function"
		}
	]
}