{
	"Day 6/EtherPiggyBank.sol": {
		"PiggyBank": {
			"abi": [
				{
					"inputs": [],
					"stateMutability": "nonpayable",
					"type": "constructor"
				},
				{
					"inputs": [],
					"name": "addRealEth",
					"outputs": [],
					"stateMutability": "payable",
					"type": "function"
				},
				{
					"inputs": [],
					"name": "bankManager",
					"outputs": [
						{
							"internalType": "address",
							"name": "",
							"type": "address"
						}
					],
					"stateMutability": "view",
					"type": "function"
				},
				{
					"inputs": [],
					"name": "getBalance",
					"outputs": [
						{
							"internalType": "uint256",
							"name": "",
							"type": "uint256"
						}
					],
					"stateMutability": "view",
					"type": "function"
				},
				{
					"inputs": [
						{
							"internalType": "address",
							"name": "_user",
							"type": "address"
						}
					],
					"name": "registerUser",
					"outputs": [],
					"stateMutability": "nonpayable",
					"type": "function"
				},
				{
					"inputs": [
						{
							"internalType": "uint256",
							"name": "",
							"type": "uint256"
						}
					],
					"name": "users",
					"outputs": [
						{
							"internalType": "address",
							"name": "",
							"type": "address"
						}
					],
					"stateMutability": "view",
					"type": "function"
				},
				{
					"inputs": [],
					"name": "withdrawRealEth",
					"outputs": [],
					"stateMutability": "payable",
					"type": "function"
				}
			],
			"devdoc": {
				"kind": "dev",
				"methods": {},
				"version": 1
			},
			"evm": {
				"assembly": "    /* \"Day 6/EtherPiggyBank.sol\":62:1635  contract PiggyBank{... */\n  mstore(0x40, 0x80)\n    /* \"Day 6/EtherPiggyBank.sol\":246:302  constructor(){... */\n  callvalue\n  dup1\n  iszero\n  tag_1\n  jumpi\n  revert(0x00, 0x00)\ntag_1:\n  pop\n    /* \"Day 6/EtherPiggyBank.sol\":284:294  msg.sender */\n  caller\n    /* \"Day 6/EtherPiggyBank.sol\":270:281  bankManager */\n  0x00\n  0x00\n    /* \"Day 6/EtherPiggyBank.sol\":270:294  bankManager = msg.sender */\n  0x0100\n  exp\n  dup2\n  sload\n  dup2\n  0xffffffffffffffffffffffffffffffffffffffff\n  mul\n  not\n  and\n  swap1\n  dup4\n  0xffffffffffffffffffffffffffffffffffffffff\n  and\n  mul\n  or\n  swap1\n  sstore\n  pop\n    /* \"Day 6/EtherPiggyBank.sol\":62:1635  contract PiggyBank{... */\n  dataSize(sub_0)\n  dup1\n  dataOffset(sub_0)\n  0x00\n  codecopy\n  0x00\n  return\nstop\n\nsub_0: assembly {\n        /* \"Day 6/EtherPiggyBank.sol\":62:1635  contract PiggyBank{... */\n      mstore(0x40, 0x80)\n      jumpi(tag_1, lt(calldatasize, 0x04))\n      shr(0xe0, calldataload(0x00))\n      dup1\n      0x12065fe0\n      eq\n      tag_2\n      jumpi\n      dup1\n      0x1804fa65\n      eq\n      tag_3\n      jumpi\n      dup1\n      0x2199d5cd\n      eq\n      tag_4\n      jumpi\n      dup1\n      0x2d3397f1\n      eq\n      tag_5\n      jumpi\n      dup1\n      0x365b98b2\n      eq\n      tag_6\n      jumpi\n      dup1\n      0xe9e2990e\n      eq\n      tag_7\n      jumpi\n    tag_1:\n      revert(0x00, 0x00)\n        /* \"Day 6/EtherPiggyBank.sol\":1533:1629  function getBalance() public view returns(uint){... */\n    tag_2:\n      callvalue\n      dup1\n      iszero\n      tag_8\n      jumpi\n      revert(0x00, 0x00)\n    tag_8:\n      pop\n      tag_9\n      tag_10\n      jump\t// in\n    tag_9:\n      mload(0x40)\n      tag_11\n      swap2\n      swap1\n      tag_12\n      jump\t// in\n    tag_11:\n      mload(0x40)\n      dup1\n      swap2\n      sub\n      swap1\n      return\n        /* \"Day 6/EtherPiggyBank.sol\":872:1029  function addRealEth() public payable registeredUser{... */\n    tag_3:\n      tag_13\n      tag_14\n      jump\t// in\n    tag_13:\n      stop\n        /* \"Day 6/EtherPiggyBank.sol\":526:689  function registerUser(address _user) public onlyManager{... */\n    tag_4:\n      callvalue\n      dup1\n      iszero\n      tag_15\n      jumpi\n      revert(0x00, 0x00)\n    tag_15:\n      pop\n      tag_16\n      0x04\n      dup1\n      calldatasize\n      sub\n      dup2\n      add\n      swap1\n      tag_17\n      swap2\n      swap1\n      tag_18\n      jump\t// in\n    tag_17:\n      tag_19\n      jump\t// in\n    tag_16:\n      stop\n        /* \"Day 6/EtherPiggyBank.sol\":1283:1525  function withdrawRealEth() public payable registeredUser{... */\n    tag_5:\n      tag_20\n      tag_21\n      jump\t// in\n    tag_20:\n      stop\n        /* \"Day 6/EtherPiggyBank.sol\":120:142  address[] public users */\n    tag_6:\n      callvalue\n      dup1\n      iszero\n      tag_22\n      jumpi\n      revert(0x00, 0x00)\n    tag_22:\n      pop\n      tag_23\n      0x04\n      dup1\n      calldatasize\n      sub\n      dup2\n      add\n      swap1\n      tag_24\n      swap2\n      swap1\n      tag_25\n      jump\t// in\n    tag_24:\n      tag_26\n      jump\t// in\n    tag_23:\n      mload(0x40)\n      tag_27\n      swap2\n      swap1\n      tag_28\n      jump\t// in\n    tag_27:\n      mload(0x40)\n      dup1\n      swap2\n      sub\n      swap1\n      return\n        /* \"Day 6/EtherPiggyBank.sol\":87:113  address public bankManager */\n    tag_7:\n      callvalue\n      dup1\n      iszero\n      tag_29\n      jumpi\n      revert(0x00, 0x00)\n    tag_29:\n      pop\n      tag_30\n      tag_31\n      jump\t// in\n    tag_30:\n      mload(0x40)\n      tag_32\n      swap2\n      swap1\n      tag_28\n      jump\t// in\n    tag_32:\n      mload(0x40)\n      dup1\n      swap2\n      sub\n      swap1\n      return\n        /* \"Day 6/EtherPiggyBank.sol\":1533:1629  function getBalance() public view returns(uint){... */\n    tag_10:\n        /* \"Day 6/EtherPiggyBank.sol\":1575:1579  uint */\n      0x00\n        /* \"Day 6/EtherPiggyBank.sol\":1598:1609  bankBalance */\n      0x03\n        /* \"Day 6/EtherPiggyBank.sol\":1598:1621  bankBalance[msg.sender] */\n      0x00\n        /* \"Day 6/EtherPiggyBank.sol\":1610:1620  msg.sender */\n      caller\n        /* \"Day 6/EtherPiggyBank.sol\":1598:1621  bankBalance[msg.sender] */\n      0xffffffffffffffffffffffffffffffffffffffff\n      and\n      0xffffffffffffffffffffffffffffffffffffffff\n      and\n      dup2\n      mstore\n      0x20\n      add\n      swap1\n      dup2\n      mstore\n      0x20\n      add\n      0x00\n      keccak256\n      sload\n        /* \"Day 6/EtherPiggyBank.sol\":1591:1621  return bankBalance[msg.sender] */\n      swap1\n      pop\n        /* \"Day 6/EtherPiggyBank.sol\":1533:1629  function getBalance() public view returns(uint){... */\n      swap1\n      jump\t// out\n        /* \"Day 6/EtherPiggyBank.sol\":872:1029  function addRealEth() public payable registeredUser{... */\n    tag_14:\n        /* \"Day 6/EtherPiggyBank.sol\":446:458  isRegistered */\n      0x02\n        /* \"Day 6/EtherPiggyBank.sol\":446:470  isRegistered[msg.sender] */\n      0x00\n        /* \"Day 6/EtherPiggyBank.sol\":459:469  msg.sender */\n      caller\n        /* \"Day 6/EtherPiggyBank.sol\":446:470  isRegistered[msg.sender] */\n      0xffffffffffffffffffffffffffffffffffffffff\n      and\n      0xffffffffffffffffffffffffffffffffffffffff\n      and\n      dup2\n      mstore\n      0x20\n      add\n      swap1\n      dup2\n      mstore\n      0x20\n      add\n      0x00\n      keccak256\n      0x00\n      swap1\n      sload\n      swap1\n      0x0100\n      exp\n      swap1\n      div\n      0xff\n      and\n        /* \"Day 6/EtherPiggyBank.sol\":438:498  require(isRegistered[msg.sender], \"You are not registered!\") */\n      tag_35\n      jumpi\n      mload(0x40)\n      0x08c379a000000000000000000000000000000000000000000000000000000000\n      dup2\n      mstore\n      0x04\n      add\n      tag_36\n      swap1\n      tag_37\n      jump\t// in\n    tag_36:\n      mload(0x40)\n      dup1\n      swap2\n      sub\n      swap1\n      revert\n    tag_35:\n        /* \"Day 6/EtherPiggyBank.sol\":954:955  0 */\n      0x00\n        /* \"Day 6/EtherPiggyBank.sol\":942:951  msg.value */\n      callvalue\n        /* \"Day 6/EtherPiggyBank.sol\":942:955  msg.value > 0 */\n      gt\n        /* \"Day 6/EtherPiggyBank.sol\":934:974  require(msg.value > 0, \"Invalid Amount\") */\n      tag_39\n      jumpi\n      mload(0x40)\n      0x08c379a000000000000000000000000000000000000000000000000000000000\n      dup2\n      mstore\n      0x04\n      add\n      tag_40\n      swap1\n      tag_41\n      jump\t// in\n    tag_40:\n      mload(0x40)\n      dup1\n      swap2\n      sub\n      swap1\n      revert\n    tag_39:\n        /* \"Day 6/EtherPiggyBank.sol\":1012:1021  msg.value */\n      callvalue\n        /* \"Day 6/EtherPiggyBank.sol\":985:996  bankBalance */\n      0x03\n        /* \"Day 6/EtherPiggyBank.sol\":985:1008  bankBalance[msg.sender] */\n      0x00\n        /* \"Day 6/EtherPiggyBank.sol\":997:1007  msg.sender */\n      caller\n        /* \"Day 6/EtherPiggyBank.sol\":985:1008  bankBalance[msg.sender] */\n      0xffffffffffffffffffffffffffffffffffffffff\n      and\n      0xffffffffffffffffffffffffffffffffffffffff\n      and\n      dup2\n      mstore\n      0x20\n      add\n      swap1\n      dup2\n      mstore\n      0x20\n      add\n      0x00\n      keccak256\n      0x00\n        /* \"Day 6/EtherPiggyBank.sol\":985:1021  bankBalance[msg.sender] += msg.value */\n      dup3\n      dup3\n      sload\n      tag_42\n      swap2\n      swap1\n      tag_43\n      jump\t// in\n    tag_42:\n      swap3\n      pop\n      pop\n      dup2\n      swap1\n      sstore\n      pop\n        /* \"Day 6/EtherPiggyBank.sol\":872:1029  function addRealEth() public payable registeredUser{... */\n      jump\t// out\n        /* \"Day 6/EtherPiggyBank.sol\":526:689  function registerUser(address _user) public onlyManager{... */\n    tag_19:\n        /* \"Day 6/EtherPiggyBank.sol\":365:375  msg.sender */\n      caller\n        /* \"Day 6/EtherPiggyBank.sol\":350:375  bankManager == msg.sender */\n      0xffffffffffffffffffffffffffffffffffffffff\n      and\n        /* \"Day 6/EtherPiggyBank.sol\":350:361  bankManager */\n      0x00\n      0x00\n      swap1\n      sload\n      swap1\n      0x0100\n      exp\n      swap1\n      div\n      0xffffffffffffffffffffffffffffffffffffffff\n      and\n        /* \"Day 6/EtherPiggyBank.sol\":350:375  bankManager == msg.sender */\n      0xffffffffffffffffffffffffffffffffffffffff\n      and\n      eq\n        /* \"Day 6/EtherPiggyBank.sol\":342:376  require(bankManager == msg.sender) */\n      tag_45\n      jumpi\n      revert(0x00, 0x00)\n    tag_45:\n        /* \"Day 6/EtherPiggyBank.sol\":592:597  users */\n      0x01\n        /* \"Day 6/EtherPiggyBank.sol\":603:608  _user */\n      dup2\n        /* \"Day 6/EtherPiggyBank.sol\":592:609  users.push(_user) */\n      swap1\n      dup1\n      0x01\n      dup2\n      sload\n      add\n      dup1\n      dup3\n      sstore\n      dup1\n      swap2\n      pop\n      pop\n      0x01\n      swap1\n      sub\n      swap1\n      0x00\n      mstore\n      keccak256(0x00, 0x20)\n      add\n      0x00\n      swap1\n      swap2\n      swap1\n      swap2\n      swap1\n      swap2\n      0x0100\n      exp\n      dup2\n      sload\n      dup2\n      0xffffffffffffffffffffffffffffffffffffffff\n      mul\n      not\n      and\n      swap1\n      dup4\n      0xffffffffffffffffffffffffffffffffffffffff\n      and\n      mul\n      or\n      swap1\n      sstore\n      pop\n        /* \"Day 6/EtherPiggyBank.sol\":642:646  true */\n      0x01\n        /* \"Day 6/EtherPiggyBank.sol\":620:632  isRegistered */\n      0x02\n        /* \"Day 6/EtherPiggyBank.sol\":620:639  isRegistered[_user] */\n      0x00\n        /* \"Day 6/EtherPiggyBank.sol\":633:638  _user */\n      dup4\n        /* \"Day 6/EtherPiggyBank.sol\":620:639  isRegistered[_user] */\n      0xffffffffffffffffffffffffffffffffffffffff\n      and\n      0xffffffffffffffffffffffffffffffffffffffff\n      and\n      dup2\n      mstore\n      0x20\n      add\n      swap1\n      dup2\n      mstore\n      0x20\n      add\n      0x00\n      keccak256\n      0x00\n        /* \"Day 6/EtherPiggyBank.sol\":620:646  isRegistered[_user] = true */\n      0x0100\n      exp\n      dup2\n      sload\n      dup2\n      0xff\n      mul\n      not\n      and\n      swap1\n      dup4\n      iszero\n      iszero\n      mul\n      or\n      swap1\n      sstore\n      pop\n        /* \"Day 6/EtherPiggyBank.sol\":678:679  0 */\n      0x00\n        /* \"Day 6/EtherPiggyBank.sol\":657:668  bankBalance */\n      0x03\n        /* \"Day 6/EtherPiggyBank.sol\":657:675  bankBalance[_user] */\n      0x00\n        /* \"Day 6/EtherPiggyBank.sol\":669:674  _user */\n      dup4\n        /* \"Day 6/EtherPiggyBank.sol\":657:675  bankBalance[_user] */\n      0xffffffffffffffffffffffffffffffffffffffff\n      and\n      0xffffffffffffffffffffffffffffffffffffffff\n      and\n      dup2\n      mstore\n      0x20\n      add\n      swap1\n      dup2\n      mstore\n      0x20\n      add\n      0x00\n      keccak256\n        /* \"Day 6/EtherPiggyBank.sol\":657:679  bankBalance[_user] = 0 */\n      dup2\n      swap1\n      sstore\n      pop\n        /* \"Day 6/EtherPiggyBank.sol\":526:689  function registerUser(address _user) public onlyManager{... */\n      pop\n      jump\t// out\n        /* \"Day 6/EtherPiggyBank.sol\":1283:1525  function withdrawRealEth() public payable registeredUser{... */\n    tag_21:\n        /* \"Day 6/EtherPiggyBank.sol\":446:458  isRegistered */\n      0x02\n        /* \"Day 6/EtherPiggyBank.sol\":446:470  isRegistered[msg.sender] */\n      0x00\n        /* \"Day 6/EtherPiggyBank.sol\":459:469  msg.sender */\n      caller\n        /* \"Day 6/EtherPiggyBank.sol\":446:470  isRegistered[msg.sender] */\n      0xffffffffffffffffffffffffffffffffffffffff\n      and\n      0xffffffffffffffffffffffffffffffffffffffff\n      and\n      dup2\n      mstore\n      0x20\n      add\n      swap1\n      dup2\n      mstore\n      0x20\n      add\n      0x00\n      keccak256\n      0x00\n      swap1\n      sload\n      swap1\n      0x0100\n      exp\n      swap1\n      div\n      0xff\n      and\n        /* \"Day 6/EtherPiggyBank.sol\":438:498  require(isRegistered[msg.sender], \"You are not registered!\") */\n      tag_49\n      jumpi\n      mload(0x40)\n      0x08c379a000000000000000000000000000000000000000000000000000000000\n      dup2\n      mstore\n      0x04\n      add\n      tag_50\n      swap1\n      tag_37\n      jump\t// in\n    tag_50:\n      mload(0x40)\n      dup1\n      swap2\n      sub\n      swap1\n      revert\n    tag_49:\n        /* \"Day 6/EtherPiggyBank.sol\":1370:1371  0 */\n      0x00\n        /* \"Day 6/EtherPiggyBank.sol\":1358:1367  msg.value */\n      callvalue\n        /* \"Day 6/EtherPiggyBank.sol\":1358:1371  msg.value > 0 */\n      gt\n        /* \"Day 6/EtherPiggyBank.sol\":1350:1390  require(msg.value > 0, \"Invalid Amount\") */\n      tag_52\n      jumpi\n      mload(0x40)\n      0x08c379a000000000000000000000000000000000000000000000000000000000\n      dup2\n      mstore\n      0x04\n      add\n      tag_53\n      swap1\n      tag_41\n      jump\t// in\n    tag_53:\n      mload(0x40)\n      dup1\n      swap2\n      sub\n      swap1\n      revert\n    tag_52:\n        /* \"Day 6/EtherPiggyBank.sol\":1436:1445  msg.value */\n      callvalue\n        /* \"Day 6/EtherPiggyBank.sol\":1409:1420  bankBalance */\n      0x03\n        /* \"Day 6/EtherPiggyBank.sol\":1409:1432  bankBalance[msg.sender] */\n      0x00\n        /* \"Day 6/EtherPiggyBank.sol\":1421:1431  msg.sender */\n      caller\n        /* \"Day 6/EtherPiggyBank.sol\":1409:1432  bankBalance[msg.sender] */\n      0xffffffffffffffffffffffffffffffffffffffff\n      and\n      0xffffffffffffffffffffffffffffffffffffffff\n      and\n      dup2\n      mstore\n      0x20\n      add\n      swap1\n      dup2\n      mstore\n      0x20\n      add\n      0x00\n      keccak256\n      sload\n        /* \"Day 6/EtherPiggyBank.sol\":1409:1445  bankBalance[msg.sender] >= msg.value */\n      lt\n      iszero\n        /* \"Day 6/EtherPiggyBank.sol\":1401:1470  require(bankBalance[msg.sender] >= msg.value, \"Insufficient Balance\") */\n      tag_54\n      jumpi\n      mload(0x40)\n      0x08c379a000000000000000000000000000000000000000000000000000000000\n      dup2\n      mstore\n      0x04\n      add\n      tag_55\n      swap1\n      tag_56\n      jump\t// in\n    tag_55:\n      mload(0x40)\n      dup1\n      swap2\n      sub\n      swap1\n      revert\n    tag_54:\n        /* \"Day 6/EtherPiggyBank.sol\":1508:1517  msg.value */\n      callvalue\n        /* \"Day 6/EtherPiggyBank.sol\":1481:1492  bankBalance */\n      0x03\n        /* \"Day 6/EtherPiggyBank.sol\":1481:1504  bankBalance[msg.sender] */\n      0x00\n        /* \"Day 6/EtherPiggyBank.sol\":1493:1503  msg.sender */\n      caller\n        /* \"Day 6/EtherPiggyBank.sol\":1481:1504  bankBalance[msg.sender] */\n      0xffffffffffffffffffffffffffffffffffffffff\n      and\n      0xffffffffffffffffffffffffffffffffffffffff\n      and\n      dup2\n      mstore\n      0x20\n      add\n      swap1\n      dup2\n      mstore\n      0x20\n      add\n      0x00\n      keccak256\n      0x00\n        /* \"Day 6/EtherPiggyBank.sol\":1481:1517  bankBalance[msg.sender] -= msg.value */\n      dup3\n      dup3\n      sload\n      tag_57\n      swap2\n      swap1\n      tag_58\n      jump\t// in\n    tag_57:\n      swap3\n      pop\n      pop\n      dup2\n      swap1\n      sstore\n      pop\n        /* \"Day 6/EtherPiggyBank.sol\":1283:1525  function withdrawRealEth() public payable registeredUser{... */\n      jump\t// out\n        /* \"Day 6/EtherPiggyBank.sol\":120:142  address[] public users */\n    tag_26:\n      0x01\n      dup2\n      dup2\n      sload\n      dup2\n      lt\n      tag_59\n      jumpi\n      0x00\n      dup1\n      revert\n    tag_59:\n      swap1\n      0x00\n      mstore\n      keccak256(0x00, 0x20)\n      add\n      0x00\n      swap2\n      pop\n      sload\n      swap1\n      0x0100\n      exp\n      swap1\n      div\n      0xffffffffffffffffffffffffffffffffffffffff\n      and\n      dup2\n      jump\t// out\n        /* \"Day 6/EtherPiggyBank.sol\":87:113  address public bankManager */\n    tag_31:\n      0x00\n      0x00\n      swap1\n      sload\n      swap1\n      0x0100\n      exp\n      swap1\n      div\n      0xffffffffffffffffffffffffffffffffffffffff\n      and\n      dup2\n      jump\t// out\n        /* \"#utility.yul\":7:84   */\n    tag_61:\n        /* \"#utility.yul\":44:51   */\n      0x00\n        /* \"#utility.yul\":73:78   */\n      dup2\n        /* \"#utility.yul\":62:78   */\n      swap1\n      pop\n        /* \"#utility.yul\":7:84   */\n      swap2\n      swap1\n      pop\n      jump\t// out\n        /* \"#utility.yul\":90:208   */\n    tag_62:\n        /* \"#utility.yul\":177:201   */\n      tag_84\n        /* \"#utility.yul\":195:200   */\n      dup2\n        /* \"#utility.yul\":177:201   */\n      tag_61\n      jump\t// in\n    tag_84:\n        /* \"#utility.yul\":172:175   */\n      dup3\n        /* \"#utility.yul\":165:202   */\n      mstore\n        /* \"#utility.yul\":90:208   */\n      pop\n      pop\n      jump\t// out\n        /* \"#utility.yul\":214:436   */\n    tag_12:\n        /* \"#utility.yul\":307:311   */\n      0x00\n        /* \"#utility.yul\":345:347   */\n      0x20\n        /* \"#utility.yul\":334:343   */\n      dup3\n        /* \"#utility.yul\":330:348   */\n      add\n        /* \"#utility.yul\":322:348   */\n      swap1\n      pop\n        /* \"#utility.yul\":358:429   */\n      tag_86\n        /* \"#utility.yul\":426:427   */\n      0x00\n        /* \"#utility.yul\":415:424   */\n      dup4\n        /* \"#utility.yul\":411:428   */\n      add\n        /* \"#utility.yul\":402:408   */\n      dup5\n        /* \"#utility.yul\":358:429   */\n      tag_62\n      jump\t// in\n    tag_86:\n        /* \"#utility.yul\":214:436   */\n      swap3\n      swap2\n      pop\n      pop\n      jump\t// out\n        /* \"#utility.yul\":523:640   */\n    tag_64:\n        /* \"#utility.yul\":632:633   */\n      0x00\n        /* \"#utility.yul\":629:630   */\n      0x00\n        /* \"#utility.yul\":622:634   */\n      revert\n        /* \"#utility.yul\":769:895   */\n    tag_66:\n        /* \"#utility.yul\":806:813   */\n      0x00\n        /* \"#utility.yul\":846:888   */\n      0xffffffffffffffffffffffffffffffffffffffff\n        /* \"#utility.yul\":839:844   */\n      dup3\n        /* \"#utility.yul\":835:889   */\n      and\n        /* \"#utility.yul\":824:889   */\n      swap1\n      pop\n        /* \"#utility.yul\":769:895   */\n      swap2\n      swap1\n      pop\n      jump\t// out\n        /* \"#utility.yul\":901:997   */\n    tag_67:\n        /* \"#utility.yul\":938:945   */\n      0x00\n        /* \"#utility.yul\":967:991   */\n      tag_92\n        /* \"#utility.yul\":985:990   */\n      dup3\n        /* \"#utility.yul\":967:991   */\n      tag_66\n      jump\t// in\n    tag_92:\n        /* \"#utility.yul\":956:991   */\n      swap1\n      pop\n        /* \"#utility.yul\":901:997   */\n      swap2\n      swap1\n      pop\n      jump\t// out\n        /* \"#utility.yul\":1003:1125   */\n    tag_68:\n        /* \"#utility.yul\":1076:1100   */\n      tag_94\n        /* \"#utility.yul\":1094:1099   */\n      dup2\n        /* \"#utility.yul\":1076:1100   */\n      tag_67\n      jump\t// in\n    tag_94:\n        /* \"#utility.yul\":1069:1074   */\n      dup2\n        /* \"#utility.yul\":1066:1101   */\n      eq\n        /* \"#utility.yul\":1056:1119   */\n      tag_95\n      jumpi\n        /* \"#utility.yul\":1115:1116   */\n      0x00\n        /* \"#utility.yul\":1112:1113   */\n      0x00\n        /* \"#utility.yul\":1105:1117   */\n      revert\n        /* \"#utility.yul\":1056:1119   */\n    tag_95:\n        /* \"#utility.yul\":1003:1125   */\n      pop\n      jump\t// out\n        /* \"#utility.yul\":1131:1270   */\n    tag_69:\n        /* \"#utility.yul\":1177:1182   */\n      0x00\n        /* \"#utility.yul\":1215:1221   */\n      dup2\n        /* \"#utility.yul\":1202:1222   */\n      calldataload\n        /* \"#utility.yul\":1193:1222   */\n      swap1\n      pop\n        /* \"#utility.yul\":1231:1264   */\n      tag_97\n        /* \"#utility.yul\":1258:1263   */\n      dup2\n        /* \"#utility.yul\":1231:1264   */\n      tag_68\n      jump\t// in\n    tag_97:\n        /* \"#utility.yul\":1131:1270   */\n      swap3\n      swap2\n      pop\n      pop\n      jump\t// out\n        /* \"#utility.yul\":1276:1605   */\n    tag_18:\n        /* \"#utility.yul\":1335:1341   */\n      0x00\n        /* \"#utility.yul\":1384:1386   */\n      0x20\n        /* \"#utility.yul\":1372:1381   */\n      dup3\n        /* \"#utility.yul\":1363:1370   */\n      dup5\n        /* \"#utility.yul\":1359:1382   */\n      sub\n        /* \"#utility.yul\":1355:1387   */\n      slt\n        /* \"#utility.yul\":1352:1471   */\n      iszero\n      tag_99\n      jumpi\n        /* \"#utility.yul\":1390:1469   */\n      tag_100\n      tag_64\n      jump\t// in\n    tag_100:\n        /* \"#utility.yul\":1352:1471   */\n    tag_99:\n        /* \"#utility.yul\":1510:1511   */\n      0x00\n        /* \"#utility.yul\":1535:1588   */\n      tag_101\n        /* \"#utility.yul\":1580:1587   */\n      dup5\n        /* \"#utility.yul\":1571:1577   */\n      dup3\n        /* \"#utility.yul\":1560:1569   */\n      dup6\n        /* \"#utility.yul\":1556:1578   */\n      add\n        /* \"#utility.yul\":1535:1588   */\n      tag_69\n      jump\t// in\n    tag_101:\n        /* \"#utility.yul\":1525:1588   */\n      swap2\n      pop\n        /* \"#utility.yul\":1481:1598   */\n      pop\n        /* \"#utility.yul\":1276:1605   */\n      swap3\n      swap2\n      pop\n      pop\n      jump\t// out\n        /* \"#utility.yul\":1611:1733   */\n    tag_70:\n        /* \"#utility.yul\":1684:1708   */\n      tag_103\n        /* \"#utility.yul\":1702:1707   */\n      dup2\n        /* \"#utility.yul\":1684:1708   */\n      tag_61\n      jump\t// in\n    tag_103:\n        /* \"#utility.yul\":1677:1682   */\n      dup2\n        /* \"#utility.yul\":1674:1709   */\n      eq\n        /* \"#utility.yul\":1664:1727   */\n      tag_104\n      jumpi\n        /* \"#utility.yul\":1723:1724   */\n      0x00\n        /* \"#utility.yul\":1720:1721   */\n      0x00\n        /* \"#utility.yul\":1713:1725   */\n      revert\n        /* \"#utility.yul\":1664:1727   */\n    tag_104:\n        /* \"#utility.yul\":1611:1733   */\n      pop\n      jump\t// out\n        /* \"#utility.yul\":1739:1878   */\n    tag_71:\n        /* \"#utility.yul\":1785:1790   */\n      0x00\n        /* \"#utility.yul\":1823:1829   */\n      dup2\n        /* \"#utility.yul\":1810:1830   */\n      calldataload\n        /* \"#utility.yul\":1801:1830   */\n      swap1\n      pop\n        /* \"#utility.yul\":1839:1872   */\n      tag_106\n        /* \"#utility.yul\":1866:1871   */\n      dup2\n        /* \"#utility.yul\":1839:1872   */\n      tag_70\n      jump\t// in\n    tag_106:\n        /* \"#utility.yul\":1739:1878   */\n      swap3\n      swap2\n      pop\n      pop\n      jump\t// out\n        /* \"#utility.yul\":1884:2213   */\n    tag_25:\n        /* \"#utility.yul\":1943:1949   */\n      0x00\n        /* \"#utility.yul\":1992:1994   */\n      0x20\n        /* \"#utility.yul\":1980:1989   */\n      dup3\n        /* \"#utility.yul\":1971:1978   */\n      dup5\n        /* \"#utility.yul\":1967:1990   */\n      sub\n        /* \"#utility.yul\":1963:1995   */\n      slt\n        /* \"#utility.yul\":1960:2079   */\n      iszero\n      tag_108\n      jumpi\n        /* \"#utility.yul\":1998:2077   */\n      tag_109\n      tag_64\n      jump\t// in\n    tag_109:\n        /* \"#utility.yul\":1960:2079   */\n    tag_108:\n        /* \"#utility.yul\":2118:2119   */\n      0x00\n        /* \"#utility.yul\":2143:2196   */\n      tag_110\n        /* \"#utility.yul\":2188:2195   */\n      dup5\n        /* \"#utility.yul\":2179:2185   */\n      dup3\n        /* \"#utility.yul\":2168:2177   */\n      dup6\n        /* \"#utility.yul\":2164:2186   */\n      add\n        /* \"#utility.yul\":2143:2196   */\n      tag_71\n      jump\t// in\n    tag_110:\n        /* \"#utility.yul\":2133:2196   */\n      swap2\n      pop\n        /* \"#utility.yul\":2089:2206   */\n      pop\n        /* \"#utility.yul\":1884:2213   */\n      swap3\n      swap2\n      pop\n      pop\n      jump\t// out\n        /* \"#utility.yul\":2219:2337   */\n    tag_72:\n        /* \"#utility.yul\":2306:2330   */\n      tag_112\n        /* \"#utility.yul\":2324:2329   */\n      dup2\n        /* \"#utility.yul\":2306:2330   */\n      tag_67\n      jump\t// in\n    tag_112:\n        /* \"#utility.yul\":2301:2304   */\n      dup3\n        /* \"#utility.yul\":2294:2331   */\n      mstore\n        /* \"#utility.yul\":2219:2337   */\n      pop\n      pop\n      jump\t// out\n        /* \"#utility.yul\":2343:2565   */\n    tag_28:\n        /* \"#utility.yul\":2436:2440   */\n      0x00\n        /* \"#utility.yul\":2474:2476   */\n      0x20\n        /* \"#utility.yul\":2463:2472   */\n      dup3\n        /* \"#utility.yul\":2459:2477   */\n      add\n        /* \"#utility.yul\":2451:2477   */\n      swap1\n      pop\n        /* \"#utility.yul\":2487:2558   */\n      tag_114\n        /* \"#utility.yul\":2555:2556   */\n      0x00\n        /* \"#utility.yul\":2544:2553   */\n      dup4\n        /* \"#utility.yul\":2540:2557   */\n      add\n        /* \"#utility.yul\":2531:2537   */\n      dup5\n        /* \"#utility.yul\":2487:2558   */\n      tag_72\n      jump\t// in\n    tag_114:\n        /* \"#utility.yul\":2343:2565   */\n      swap3\n      swap2\n      pop\n      pop\n      jump\t// out\n        /* \"#utility.yul\":2571:2740   */\n    tag_73:\n        /* \"#utility.yul\":2655:2666   */\n      0x00\n        /* \"#utility.yul\":2689:2695   */\n      dup3\n        /* \"#utility.yul\":2684:2687   */\n      dup3\n        /* \"#utility.yul\":2677:2696   */\n      mstore\n        /* \"#utility.yul\":2729:2733   */\n      0x20\n        /* \"#utility.yul\":2724:2727   */\n      dup3\n        /* \"#utility.yul\":2720:2734   */\n      add\n        /* \"#utility.yul\":2705:2734   */\n      swap1\n      pop\n        /* \"#utility.yul\":2571:2740   */\n      swap3\n      swap2\n      pop\n      pop\n      jump\t// out\n        /* \"#utility.yul\":2746:2919   */\n    tag_74:\n        /* \"#utility.yul\":2886:2911   */\n      0x596f7520617265206e6f74207265676973746572656421000000000000000000\n        /* \"#utility.yul\":2882:2883   */\n      0x00\n        /* \"#utility.yul\":2874:2880   */\n      dup3\n        /* \"#utility.yul\":2870:2884   */\n      add\n        /* \"#utility.yul\":2863:2912   */\n      mstore\n        /* \"#utility.yul\":2746:2919   */\n      pop\n      jump\t// out\n        /* \"#utility.yul\":2925:3291   */\n    tag_75:\n        /* \"#utility.yul\":3067:3070   */\n      0x00\n        /* \"#utility.yul\":3088:3155   */\n      tag_118\n        /* \"#utility.yul\":3152:3154   */\n      0x17\n        /* \"#utility.yul\":3147:3150   */\n      dup4\n        /* \"#utility.yul\":3088:3155   */\n      tag_73\n      jump\t// in\n    tag_118:\n        /* \"#utility.yul\":3081:3155   */\n      swap2\n      pop\n        /* \"#utility.yul\":3164:3257   */\n      tag_119\n        /* \"#utility.yul\":3253:3256   */\n      dup3\n        /* \"#utility.yul\":3164:3257   */\n      tag_74\n      jump\t// in\n    tag_119:\n        /* \"#utility.yul\":3282:3284   */\n      0x20\n        /* \"#utility.yul\":3277:3280   */\n      dup3\n        /* \"#utility.yul\":3273:3285   */\n      add\n        /* \"#utility.yul\":3266:3285   */\n      swap1\n      pop\n        /* \"#utility.yul\":2925:3291   */\n      swap2\n      swap1\n      pop\n      jump\t// out\n        /* \"#utility.yul\":3297:3716   */\n    tag_37:\n        /* \"#utility.yul\":3463:3467   */\n      0x00\n        /* \"#utility.yul\":3501:3503   */\n      0x20\n        /* \"#utility.yul\":3490:3499   */\n      dup3\n        /* \"#utility.yul\":3486:3504   */\n      add\n        /* \"#utility.yul\":3478:3504   */\n      swap1\n      pop\n        /* \"#utility.yul\":3550:3559   */\n      dup2\n        /* \"#utility.yul\":3544:3548   */\n      dup2\n        /* \"#utility.yul\":3540:3560   */\n      sub\n        /* \"#utility.yul\":3536:3537   */\n      0x00\n        /* \"#utility.yul\":3525:3534   */\n      dup4\n        /* \"#utility.yul\":3521:3538   */\n      add\n        /* \"#utility.yul\":3514:3561   */\n      mstore\n        /* \"#utility.yul\":3578:3709   */\n      tag_121\n        /* \"#utility.yul\":3704:3708   */\n      dup2\n        /* \"#utility.yul\":3578:3709   */\n      tag_75\n      jump\t// in\n    tag_121:\n        /* \"#utility.yul\":3570:3709   */\n      swap1\n      pop\n        /* \"#utility.yul\":3297:3716   */\n      swap2\n      swap1\n      pop\n      jump\t// out\n        /* \"#utility.yul\":3722:3886   */\n    tag_76:\n        /* \"#utility.yul\":3862:3878   */\n      0x496e76616c696420416d6f756e74000000000000000000000000000000000000\n        /* \"#utility.yul\":3858:3859   */\n      0x00\n        /* \"#utility.yul\":3850:3856   */\n      dup3\n        /* \"#utility.yul\":3846:3860   */\n      add\n        /* \"#utility.yul\":3839:3879   */\n      mstore\n        /* \"#utility.yul\":3722:3886   */\n      pop\n      jump\t// out\n        /* \"#utility.yul\":3892:4258   */\n    tag_77:\n        /* \"#utility.yul\":4034:4037   */\n      0x00\n        /* \"#utility.yul\":4055:4122   */\n      tag_124\n        /* \"#utility.yul\":4119:4121   */\n      0x0e\n        /* \"#utility.yul\":4114:4117   */\n      dup4\n        /* \"#utility.yul\":4055:4122   */\n      tag_73\n      jump\t// in\n    tag_124:\n        /* \"#utility.yul\":4048:4122   */\n      swap2\n      pop\n        /* \"#utility.yul\":4131:4224   */\n      tag_125\n        /* \"#utility.yul\":4220:4223   */\n      dup3\n        /* \"#utility.yul\":4131:4224   */\n      tag_76\n      jump\t// in\n    tag_125:\n        /* \"#utility.yul\":4249:4251   */\n      0x20\n        /* \"#utility.yul\":4244:4247   */\n      dup3\n        /* \"#utility.yul\":4240:4252   */\n      add\n        /* \"#utility.yul\":4233:4252   */\n      swap1\n      pop\n        /* \"#utility.yul\":3892:4258   */\n      swap2\n      swap1\n      pop\n      jump\t// out\n        /* \"#utility.yul\":4264:4683   */\n    tag_41:\n        /* \"#utility.yul\":4430:4434   */\n      0x00\n        /* \"#utility.yul\":4468:4470   */\n      0x20\n        /* \"#utility.yul\":4457:4466   */\n      dup3\n        /* \"#utility.yul\":4453:4471   */\n      add\n        /* \"#utility.yul\":4445:4471   */\n      swap1\n      pop\n        /* \"#utility.yul\":4517:4526   */\n      dup2\n        /* \"#utility.yul\":4511:4515   */\n      dup2\n        /* \"#utility.yul\":4507:4527   */\n      sub\n        /* \"#utility.yul\":4503:4504   */\n      0x00\n        /* \"#utility.yul\":4492:4501   */\n      dup4\n        /* \"#utility.yul\":4488:4505   */\n      add\n        /* \"#utility.yul\":4481:4528   */\n      mstore\n        /* \"#utility.yul\":4545:4676   */\n      tag_127\n        /* \"#utility.yul\":4671:4675   */\n      dup2\n        /* \"#utility.yul\":4545:4676   */\n      tag_77\n      jump\t// in\n    tag_127:\n        /* \"#utility.yul\":4537:4676   */\n      swap1\n      pop\n        /* \"#utility.yul\":4264:4683   */\n      swap2\n      swap1\n      pop\n      jump\t// out\n        /* \"#utility.yul\":4689:4869   */\n    tag_78:\n        /* \"#utility.yul\":4737:4814   */\n      0x4e487b7100000000000000000000000000000000000000000000000000000000\n        /* \"#utility.yul\":4734:4735   */\n      0x00\n        /* \"#utility.yul\":4727:4815   */\n      mstore\n        /* \"#utility.yul\":4834:4838   */\n      0x11\n        /* \"#utility.yul\":4831:4832   */\n      0x04\n        /* \"#utility.yul\":4824:4839   */\n      mstore\n        /* \"#utility.yul\":4858:4862   */\n      0x24\n        /* \"#utility.yul\":4855:4856   */\n      0x00\n        /* \"#utility.yul\":4848:4863   */\n      revert\n        /* \"#utility.yul\":4875:5066   */\n    tag_43:\n        /* \"#utility.yul\":4915:4918   */\n      0x00\n        /* \"#utility.yul\":4934:4954   */\n      tag_130\n        /* \"#utility.yul\":4952:4953   */\n      dup3\n        /* \"#utility.yul\":4934:4954   */\n      tag_61\n      jump\t// in\n    tag_130:\n        /* \"#utility.yul\":4929:4954   */\n      swap2\n      pop\n        /* \"#utility.yul\":4968:4988   */\n      tag_131\n        /* \"#utility.yul\":4986:4987   */\n      dup4\n        /* \"#utility.yul\":4968:4988   */\n      tag_61\n      jump\t// in\n    tag_131:\n        /* \"#utility.yul\":4963:4988   */\n      swap3\n      pop\n        /* \"#utility.yul\":5011:5012   */\n      dup3\n        /* \"#utility.yul\":5008:5009   */\n      dup3\n        /* \"#utility.yul\":5004:5013   */\n      add\n        /* \"#utility.yul\":4997:5013   */\n      swap1\n      pop\n        /* \"#utility.yul\":5032:5035   */\n      dup1\n        /* \"#utility.yul\":5029:5030   */\n      dup3\n        /* \"#utility.yul\":5026:5036   */\n      gt\n        /* \"#utility.yul\":5023:5059   */\n      iszero\n      tag_132\n      jumpi\n        /* \"#utility.yul\":5039:5057   */\n      tag_133\n      tag_78\n      jump\t// in\n    tag_133:\n        /* \"#utility.yul\":5023:5059   */\n    tag_132:\n        /* \"#utility.yul\":4875:5066   */\n      swap3\n      swap2\n      pop\n      pop\n      jump\t// out\n        /* \"#utility.yul\":5072:5242   */\n    tag_79:\n        /* \"#utility.yul\":5212:5234   */\n      0x496e73756666696369656e742042616c616e6365000000000000000000000000\n        /* \"#utility.yul\":5208:5209   */\n      0x00\n        /* \"#utility.yul\":5200:5206   */\n      dup3\n        /* \"#utility.yul\":5196:5210   */\n      add\n        /* \"#utility.yul\":5189:5235   */\n      mstore\n        /* \"#utility.yul\":5072:5242   */\n      pop\n      jump\t// out\n        /* \"#utility.yul\":5248:5614   */\n    tag_80:\n        /* \"#utility.yul\":5390:5393   */\n      0x00\n        /* \"#utility.yul\":5411:5478   */\n      tag_136\n        /* \"#utility.yul\":5475:5477   */\n      0x14\n        /* \"#utility.yul\":5470:5473   */\n      dup4\n        /* \"#utility.yul\":5411:5478   */\n      tag_73\n      jump\t// in\n    tag_136:\n        /* \"#utility.yul\":5404:5478   */\n      swap2\n      pop\n        /* \"#utility.yul\":5487:5580   */\n      tag_137\n        /* \"#utility.yul\":5576:5579   */\n      dup3\n        /* \"#utility.yul\":5487:5580   */\n      tag_79\n      jump\t// in\n    tag_137:\n        /* \"#utility.yul\":5605:5607   */\n      0x20\n        /* \"#utility.yul\":5600:5603   */\n      dup3\n        /* \"#utility.yul\":5596:5608   */\n      add\n        /* \"#utility.yul\":5589:5608   */\n      swap1\n      pop\n        /* \"#utility.yul\":5248:5614   */\n      swap2\n      swap1\n      pop\n      jump\t// out\n        /* \"#utility.yul\":5620:6039   */\n    tag_56:\n        /* \"#utility.yul\":5786:5790   */\n      0x00\n        /* \"#utility.yul\":5824:5826   */\n      0x20\n        /* \"#utility.yul\":5813:5822   */\n      dup3\n        /* \"#utility.yul\":5809:5827   */\n      add\n        /* \"#utility.yul\":5801:5827   */\n      swap1\n      pop\n        /* \"#utility.yul\":5873:5882   */\n      dup2\n        /* \"#utility.yul\":5867:5871   */\n      dup2\n        /* \"#utility.yul\":5863:5883   */\n      sub\n        /* \"#utility.yul\":5859:5860   */\n      0x00\n        /* \"#utility.yul\":5848:5857   */\n      dup4\n        /* \"#utility.yul\":5844:5861   */\n      add\n        /* \"#utility.yul\":5837:5884   */\n      mstore\n        /* \"#utility.yul\":5901:6032   */\n      tag_139\n        /* \"#utility.yul\":6027:6031   */\n      dup2\n        /* \"#utility.yul\":5901:6032   */\n      tag_80\n      jump\t// in\n    tag_139:\n        /* \"#utility.yul\":5893:6032   */\n      swap1\n      pop\n        /* \"#utility.yul\":5620:6039   */\n      swap2\n      swap1\n      pop\n      jump\t// out\n        /* \"#utility.yul\":6045:6239   */\n    tag_58:\n        /* \"#utility.yul\":6085:6089   */\n      0x00\n        /* \"#utility.yul\":6105:6125   */\n      tag_141\n        /* \"#utility.yul\":6123:6124   */\n      dup3\n        /* \"#utility.yul\":6105:6125   */\n      tag_61\n      jump\t// in\n    tag_141:\n        /* \"#utility.yul\":6100:6125   */\n      swap2\n      pop\n        /* \"#utility.yul\":6139:6159   */\n      tag_142\n        /* \"#utility.yul\":6157:6158   */\n      dup4\n        /* \"#utility.yul\":6139:6159   */\n      tag_61\n      jump\t// in\n    tag_142:\n        /* \"#utility.yul\":6134:6159   */\n      swap3\n      pop\n        /* \"#utility.yul\":6183:6184   */\n      dup3\n        /* \"#utility.yul\":6180:6181   */\n      dup3\n        /* \"#utility.yul\":6176:6185   */\n      sub\n        /* \"#utility.yul\":6168:6185   */\n      swap1\n      pop\n        /* \"#utility.yul\":6207:6208   */\n      dup2\n        /* \"#utility.yul\":6201:6205   */\n      dup2\n        /* \"#utility.yul\":6198:6209   */\n      gt\n        /* \"#utility.yul\":6195:6232   */\n      iszero\n      tag_143\n      jumpi\n        /* \"#utility.yul\":6212:6230   */\n      tag_144\n      tag_78\n      jump\t// in\n    tag_144:\n        /* \"#utility.yul\":6195:6232   */\n    tag_143:\n        /* \"#utility.yul\":6045:6239   */\n      swap3\n      swap2\n      pop\n      pop\n      jump\t// out\n\n    auxdata: 0xa2646970667358221220318274dece901e7809bae7adbd57999b55355e24f605b9092ca152c9eae094ae64736f6c634300081e0033\n}\n",
				"bytecode": {
					"linkReferences": {},
					"object": "6080604052348015600e575f5ffd5b50335f5f6101000a81548173ffffffffffffffffffffffffffffffffffffffff021916908373ffffffffffffffffffffffffffffffffffffffff1602179055506109208061005b5f395ff3fe608060405260043610610054575f3560e01c806312065fe0146100585780631804fa65146100825780632199d5cd1461008c5780632d3397f1146100b4578063365b98b2146100be578063e9e2990e146100fa575b5f5ffd5b348015610063575f5ffd5b5061006c610124565b60405161007991906105f0565b60405180910390f35b61008a610168565b005b348015610097575f5ffd5b506100b260048036038101906100ad9190610667565b610288565b005b6100bc6103d9565b005b3480156100c9575f5ffd5b506100e460048036038101906100df91906106bc565b610579565b6040516100f191906106f6565b60405180910390f35b348015610105575f5ffd5b5061010e6105b4565b60405161011b91906106f6565b60405180910390f35b5f60035f3373ffffffffffffffffffffffffffffffffffffffff1673ffffffffffffffffffffffffffffffffffffffff1681526020019081526020015f2054905090565b60025f3373ffffffffffffffffffffffffffffffffffffffff1673ffffffffffffffffffffffffffffffffffffffff1681526020019081526020015f205f9054906101000a900460ff166101f1576040517f08c379a00000000000000000000000000000000000000000000000000000000081526004016101e890610769565b60405180910390fd5b5f3411610233576040517f08c379a000000000000000000000000000000000000000000000000000000000815260040161022a906107d1565b60405180910390fd5b3460035f3373ffffffffffffffffffffffffffffffffffffffff1673ffffffffffffffffffffffffffffffffffffffff1681526020019081526020015f205f82825461027f919061081c565b92505081905550565b3373ffffffffffffffffffffffffffffffffffffffff165f5f9054906101000a900473ffffffffffffffffffffffffffffffffffffffff1673ffffffffffffffffffffffffffffffffffffffff16146102df575f5ffd5b600181908060018154018082558091505060019003905f5260205f20015f9091909190916101000a81548173ffffffffffffffffffffffffffffffffffffffff021916908373ffffffffffffffffffffffffffffffffffffffff160217905550600160025f8373ffffffffffffffffffffffffffffffffffffffff1673ffffffffffffffffffffffffffffffffffffffff1681526020019081526020015f205f6101000a81548160ff0219169083151502179055505f60035f8373ffffffffffffffffffffffffffffffffffffffff1673ffffffffffffffffffffffffffffffffffffffff1681526020019081526020015f208190555050565b60025f3373ffffffffffffffffffffffffffffffffffffffff1673ffffffffffffffffffffffffffffffffffffffff1681526020019081526020015f205f9054906101000a900460ff16610462576040517f08c379a000000000000000000000000000000000000000000000000000000000815260040161045990610769565b60405180910390fd5b5f34116104a4576040517f08c379a000000000000000000000000000000000000000000000000000000000815260040161049b906107d1565b60405180910390fd5b3460035f3373ffffffffffffffffffffffffffffffffffffffff1673ffffffffffffffffffffffffffffffffffffffff1681526020019081526020015f20541015610524576040517f08c379a000000000000000000000000000000000000000000000000000000000815260040161051b90610899565b60405180910390fd5b3460035f3373ffffffffffffffffffffffffffffffffffffffff1673ffffffffffffffffffffffffffffffffffffffff1681526020019081526020015f205f82825461057091906108b7565b92505081905550565b60018181548110610588575f80fd5b905f5260205f20015f915054906101000a900473ffffffffffffffffffffffffffffffffffffffff1681565b5f5f9054906101000a900473ffffffffffffffffffffffffffffffffffffffff1681565b5f819050919050565b6105ea816105d8565b82525050565b5f6020820190506106035f8301846105e1565b92915050565b5f5ffd5b5f73ffffffffffffffffffffffffffffffffffffffff82169050919050565b5f6106368261060d565b9050919050565b6106468161062c565b8114610650575f5ffd5b50565b5f813590506106618161063d565b92915050565b5f6020828403121561067c5761067b610609565b5b5f61068984828501610653565b91505092915050565b61069b816105d8565b81146106a5575f5ffd5b50565b5f813590506106b681610692565b92915050565b5f602082840312156106d1576106d0610609565b5b5f6106de848285016106a8565b91505092915050565b6106f08161062c565b82525050565b5f6020820190506107095f8301846106e7565b92915050565b5f82825260208201905092915050565b7f596f7520617265206e6f742072656769737465726564210000000000000000005f82015250565b5f61075360178361070f565b915061075e8261071f565b602082019050919050565b5f6020820190508181035f83015261078081610747565b9050919050565b7f496e76616c696420416d6f756e740000000000000000000000000000000000005f82015250565b5f6107bb600e8361070f565b91506107c682610787565b602082019050919050565b5f6020820190508181035f8301526107e8816107af565b9050919050565b7f4e487b71000000000000000000000000000000000000000000000000000000005f52601160045260245ffd5b5f610826826105d8565b9150610831836105d8565b9250828201905080821115610849576108486107ef565b5b92915050565b7f496e73756666696369656e742042616c616e63650000000000000000000000005f82015250565b5f61088360148361070f565b915061088e8261084f565b602082019050919050565b5f6020820190508181035f8301526108b081610877565b9050919050565b5f6108c1826105d8565b91506108cc836105d8565b92508282039050818111156108e4576108e36107ef565b5b9291505056fea2646970667358221220318274dece901e7809bae7adbd57999b55355e24f605b9092ca152c9eae094ae64736f6c634300081e0033",
					"opcodes": "PUSH1 0x80 PUSH1 0x40 MSTORE CALLVALUE DUP1 ISZERO PUSH1 0xE JUMPI PUSH0 PUSH0 REVERT JUMPDEST POP CALLER PUSH0 PUSH0 PUSH2 0x100 EXP DUP2 SLOAD DUP2 PUSH20 0xFFFFFFFFFFFFFFFFFFFFFFFFFFFFFFFFFFFFFFFF MUL NOT AND SWAP1 DUP4 PUSH20 0xFFFFFFFFFFFFFFFFFFFFFFFFFFFFFFFFFFFFFFFF AND MUL OR SWAP1 SSTORE POP PUSH2 0x920 DUP1 PUSH2 0x5B PUSH0 CODECOPY PUSH0 RETURN INVALID PUSH1 0x80 PUSH1 0x40 MSTORE PUSH1 0x4 CALLDATASIZE LT PUSH2 0x54 JUMPI PUSH0 CALLDATALOAD PUSH1 0xE0 SHR DUP1 PUSH4 0x12065FE0 EQ PUSH2 0x58 JUMPI DUP1 PUSH4 0x1804FA65 EQ PUSH2 0x82 JUMPI DUP1 PUSH4 0x2199D5CD EQ PUSH2 0x8C JUMPI DUP1 PUSH4 0x2D3397F1 EQ PUSH2 0xB4 JUMPI DUP1 PUSH4 0x365B98B2 EQ PUSH2 0xBE JUMPI DUP1 PUSH4 0xE9E2990E EQ PUSH2 0xFA JUMPI JUMPDEST PUSH0 PUSH0 REVERT JUMPDEST CALLVALUE DUP1 ISZERO PUSH2 0x63 JUMPI PUSH0 PUSH0 REVERT JUMPDEST POP PUSH2 0x6C PUSH2 0x124 JUMP JUMPDEST PUSH1 0x40 MLOAD PUSH2 0x79 SWAP2 SWAP1 PUSH2 0x5F0 JUMP JUMPDEST PUSH1 0x40 MLOAD DUP1 SWAP2 SUB SWAP1 RETURN JUMPDEST PUSH2 0x8A PUSH2 0x168 JUMP JUMPDEST STOP JUMPDEST CALLVALUE DUP1 ISZERO PUSH2 0x97 JUMPI PUSH0 PUSH0 REVERT JUMPDEST POP PUSH2 0xB2 PUSH1 0x4 DUP1 CALLDATASIZE SUB DUP2 ADD SWAP1 PUSH2 0xAD SWAP2 SWAP1 PUSH2 0x667 JUMP JUMPDEST PUSH2 0x288 JUMP JUMPDEST STOP JUMPDEST PUSH2 0xBC PUSH2 0x3D9 JUMP JUMPDEST STOP JUMPDEST CALLVALUE DUP1 ISZERO PUSH2 0xC9 JUMPI PUSH0 PUSH0 REVERT JUMPDEST POP PUSH2 0xE4 PUSH1 0x4 DUP1 CALLDATASIZE SUB DUP2 ADD SWAP1 PUSH2 0xDF SWAP2 SWAP1 PUSH2 0x6BC JUMP JUMPDEST PUSH2 0x579 JUMP JUMPDEST PUSH1 0x40 MLOAD PUSH2 0xF1 SWAP2 SWAP1 PUSH2 0x6F6 JUMP JUMPDEST PUSH1 0x40 MLOAD DUP1 SWAP2 SUB SWAP1 RETURN JUMPDEST CALLVALUE DUP1 ISZERO PUSH2 0x105 JUMPI PUSH0 PUSH0 REVERT JUMPDEST POP PUSH2 0x10E PUSH2 0x5B4 JUMP JUMPDEST PUSH1 0x40 MLOAD PUSH2 0x11B SWAP2 SWAP1 PUSH2 0x6F6 JUMP JUMPDEST PUSH1 0x40 MLOAD DUP1 SWAP2 SUB SWAP1 RETURN JUMPDEST PUSH0 PUSH1 0x3 PUSH0 CALLER PUSH20 0xFFFFFFFFFFFFFFFFFFFFFFFFFFFFFFFFFFFFFFFF AND PUSH20 0xFFFFFFFFFFFFFFFFFFFFFFFFFFFFFFFFFFFFFFFF AND DUP2 MSTORE PUSH1 0x20 ADD SWAP1 DUP2 MSTORE PUSH1 0x20 ADD PUSH0 KECCAK256 SLOAD SWAP1 POP SWAP1 JUMP JUMPDEST PUSH1 0x2 PUSH0 CALLER PUSH20 0xFFFFFFFFFFFFFFFFFFFFFFFFFFFFFFFFFFFFFFFF AND PUSH20 0xFFFFFFFFFFFFFFFFFFFFFFFFFFFFFFFFFFFFFFFF AND DUP2 MSTORE PUSH1 0x20 ADD SWAP1 DUP2 MSTORE PUSH1 0x20 ADD PUSH0 KECCAK256 PUSH0 SWAP1 SLOAD SWAP1 PUSH2 0x100 EXP SWAP1 DIV PUSH1 0xFF AND PUSH2 0x1F1 JUMPI PUSH1 0x40 MLOAD PUSH32 0x8C379A000000000000000000000000000000000000000000000000000000000 DUP2 MSTORE PUSH1 0x4 ADD PUSH2 0x1E8 SWAP1 PUSH2 0x769 JUMP JUMPDEST PUSH1 0x40 MLOAD DUP1 SWAP2 SUB SWAP1 REVERT JUMPDEST PUSH0 CALLVALUE GT PUSH2 0x233 JUMPI PUSH1 0x40 MLOAD PUSH32 0x8C379A000000000000000000000000000000000000000000000000000000000 DUP2 MSTORE PUSH1 0x4 ADD PUSH2 0x22A SWAP1 PUSH2 0x7D1 JUMP JUMPDEST PUSH1 0x40 MLOAD DUP1 SWAP2 SUB SWAP1 REVERT JUMPDEST CALLVALUE PUSH1 0x3 PUSH0 CALLER PUSH20 0xFFFFFFFFFFFFFFFFFFFFFFFFFFFFFFFFFFFFFFFF AND PUSH20 0xFFFFFFFFFFFFFFFFFFFFFFFFFFFFFFFFFFFFFFFF AND DUP2 MSTORE PUSH1 0x20 ADD SWAP1 DUP2 MSTORE PUSH1 0x20 ADD PUSH0 KECCAK256 PUSH0 DUP3 DUP3 SLOAD PUSH2 0x27F SWAP2 SWAP1 PUSH2 0x81C JUMP JUMPDEST SWAP3 POP POP DUP2 SWAP1 SSTORE POP JUMP JUMPDEST CALLER PUSH20 0xFFFFFFFFFFFFFFFFFFFFFFFFFFFFFFFFFFFFFFFF AND PUSH0 PUSH0 SWAP1 SLOAD SWAP1 PUSH2 0x100 EXP SWAP1 DIV PUSH20 0xFFFFFFFFFFFFFFFFFFFFFFFFFFFFFFFFFFFFFFFF AND PUSH20 0xFFFFFFFFFFFFFFFFFFFFFFFFFFFFFFFFFFFFFFFF AND EQ PUSH2 0x2DF JUMPI PUSH0 PUSH0 REVERT JUMPDEST PUSH1 0x1 DUP2 SWAP1 DUP1 PUSH1 0x1 DUP2 SLOAD ADD DUP1 DUP3 SSTORE DUP1 SWAP2 POP POP PUSH1 0x1 SWAP1 SUB SWAP1 PUSH0 MSTORE PUSH1 0x20 PUSH0 KECCAK256 ADD PUSH0 SWAP1 SWAP2 SWAP1 SWAP2 SWAP1 SWAP2 PUSH2 0x100 EXP DUP2 SLOAD DUP2 PUSH20 0xFFFFFFFFFFFFFFFFFFFFFFFFFFFFFFFFFFFFFFFF MUL NOT AND SWAP1 DUP4 PUSH20 0xFFFFFFFFFFFFFFFFFFFFFFFFFFFFFFFFFFFFFFFF AND MUL OR SWAP1 SSTORE POP PUSH1 0x1 PUSH1 0x2 PUSH0 DUP4 PUSH20 0xFFFFFFFFFFFFFFFFFFFFFFFFFFFFFFFFFFFFFFFF AND PUSH20 0xFFFFFFFFFFFFFFFFFFFFFFFFFFFFFFFFFFFFFFFF AND DUP2 MSTORE PUSH1 0x20 ADD SWAP1 DUP2 MSTORE PUSH1 0x20 ADD PUSH0 KECCAK256 PUSH0 PUSH2 0x100 EXP DUP2 SLOAD DUP2 PUSH1 0xFF MUL NOT AND SWAP1 DUP4 ISZERO ISZERO MUL OR SWAP1 SSTORE POP PUSH0 PUSH1 0x3 PUSH0 DUP4 PUSH20 0xFFFFFFFFFFFFFFFFFFFFFFFFFFFFFFFFFFFFFFFF AND PUSH20 0xFFFFFFFFFFFFFFFFFFFFFFFFFFFFFFFFFFFFFFFF AND DUP2 MSTORE PUSH1 0x20 ADD SWAP1 DUP2 MSTORE PUSH1 0x20 ADD PUSH0 KECCAK256 DUP2 SWAP1 SSTORE POP POP JUMP JUMPDEST PUSH1 0x2 PUSH0 CALLER PUSH20 0xFFFFFFFFFFFFFFFFFFFFFFFFFFFFFFFFFFFFFFFF AND PUSH20 0xFFFFFFFFFFFFFFFFFFFFFFFFFFFFFFFFFFFFFFFF AND DUP2 MSTORE PUSH1 0x20 ADD SWAP1 DUP2 MSTORE PUSH1 0x20 ADD PUSH0 KECCAK256 PUSH0 SWAP1 SLOAD SWAP1 PUSH2 0x100 EXP SWAP1 DIV PUSH1 0xFF AND PUSH2 0x462 JUMPI PUSH1 0x40 MLOAD PUSH32 0x8C379A000000000000000000000000000000000000000000000000000000000 DUP2 MSTORE PUSH1 0x4 ADD PUSH2 0x459 SWAP1 PUSH2 0x769 JUMP JUMPDEST PUSH1 0x40 MLOAD DUP1 SWAP2 SUB SWAP1 REVERT JUMPDEST PUSH0 CALLVALUE GT PUSH2 0x4A4 JUMPI PUSH1 0x40 MLOAD PUSH32 0x8C379A000000000000000000000000000000000000000000000000000000000 DUP2 MSTORE PUSH1 0x4 ADD PUSH2 0x49B SWAP1 PUSH2 0x7D1 JUMP JUMPDEST PUSH1 0x40 MLOAD DUP1 SWAP2 SUB SWAP1 REVERT JUMPDEST CALLVALUE PUSH1 0x3 PUSH0 CALLER PUSH20 0xFFFFFFFFFFFFFFFFFFFFFFFFFFFFFFFFFFFFFFFF AND PUSH20 0xFFFFFFFFFFFFFFFFFFFFFFFFFFFFFFFFFFFFFFFF AND DUP2 MSTORE PUSH1 0x20 ADD SWAP1 DUP2 MSTORE PUSH1 0x20 ADD PUSH0 KECCAK256 SLOAD LT ISZERO PUSH2 0x524 JUMPI PUSH1 0x40 MLOAD PUSH32 0x8C379A000000000000000000000000000000000000000000000000000000000 DUP2 MSTORE PUSH1 0x4 ADD PUSH2 0x51B SWAP1 PUSH2 0x899 JUMP JUMPDEST PUSH1 0x40 MLOAD DUP1 SWAP2 SUB SWAP1 REVERT JUMPDEST CALLVALUE PUSH1 0x3 PUSH0 CALLER PUSH20 0xFFFFFFFFFFFFFFFFFFFFFFFFFFFFFFFFFFFFFFFF AND PUSH20 0xFFFFFFFFFFFFFFFFFFFFFFFFFFFFFFFFFFFFFFFF AND DUP2 MSTORE PUSH1 0x20 ADD SWAP1 DUP2 MSTORE PUSH1 0x20 ADD PUSH0 KECCAK256 PUSH0 DUP3 DUP3 SLOAD PUSH2 0x570 SWAP2 SWAP1 PUSH2 0x8B7 JUMP JUMPDEST SWAP3 POP POP DUP2 SWAP1 SSTORE POP JUMP JUMPDEST PUSH1 0x1 DUP2 DUP2 SLOAD DUP2 LT PUSH2 0x588 JUMPI PUSH0 DUP1 REVERT JUMPDEST SWAP1 PUSH0 MSTORE PUSH1 0x20 PUSH0 KECCAK256 ADD PUSH0 SWAP2 POP SLOAD SWAP1 PUSH2 0x100 EXP SWAP1 DIV PUSH20 0xFFFFFFFFFFFFFFFFFFFFFFFFFFFFFFFFFFFFFFFF AND DUP2 JUMP JUMPDEST PUSH0 PUSH0 SWAP1 SLOAD SWAP1 PUSH2 0x100 EXP SWAP1 DIV PUSH20 0xFFFFFFFFFFFFFFFFFFFFFFFFFFFFFFFFFFFFFFFF AND DUP2 JUMP JUMPDEST PUSH0 DUP2 SWAP1 POP SWAP2 SWAP1 POP JUMP JUMPDEST PUSH2 0x5EA DUP2 PUSH2 0x5D8 JUMP JUMPDEST DUP3 MSTORE POP POP JUMP JUMPDEST PUSH0 PUSH1 0x20 DUP3 ADD SWAP1 POP PUSH2 0x603 PUSH0 DUP4 ADD DUP5 PUSH2 0x5E1 JUMP JUMPDEST SWAP3 SWAP2 POP POP JUMP JUMPDEST PUSH0 PUSH0 REVERT JUMPDEST PUSH0 PUSH20 0xFFFFFFFFFFFFFFFFFFFFFFFFFFFFFFFFFFFFFFFF DUP3 AND SWAP1 POP SWAP2 SWAP1 POP JUMP JUMPDEST PUSH0 PUSH2 0x636 DUP3 PUSH2 0x60D JUMP JUMPDEST SWAP1 POP SWAP2 SWAP1 POP JUMP JUMPDEST PUSH2 0x646 DUP2 PUSH2 0x62C JUMP JUMPDEST DUP2 EQ PUSH2 0x650 JUMPI PUSH0 PUSH0 REVERT JUMPDEST POP JUMP JUMPDEST PUSH0 DUP2 CALLDATALOAD SWAP1 POP PUSH2 0x661 DUP2 PUSH2 0x63D JUMP JUMPDEST SWAP3 SWAP2 POP POP JUMP JUMPDEST PUSH0 PUSH1 0x20 DUP3 DUP5 SUB SLT ISZERO PUSH2 0x67C JUMPI PUSH2 0x67B PUSH2 0x609 JUMP JUMPDEST JUMPDEST PUSH0 PUSH2 0x689 DUP5 DUP3 DUP6 ADD PUSH2 0x653 JUMP JUMPDEST SWAP2 POP POP SWAP3 SWAP2 POP POP JUMP JUMPDEST PUSH2 0x69B DUP2 PUSH2 0x5D8 JUMP JUMPDEST DUP2 EQ PUSH2 0x6A5 JUMPI PUSH0 PUSH0 REVERT JUMPDEST POP JUMP JUMPDEST PUSH0 DUP2 CALLDATALOAD SWAP1 POP PUSH2 0x6B6 DUP2 PUSH2 0x692 JUMP JUMPDEST SWAP3 SWAP2 POP POP JUMP JUMPDEST PUSH0 PUSH1 0x20 DUP3 DUP5 SUB SLT ISZERO PUSH2 0x6D1 JUMPI PUSH2 0x6D0 PUSH2 0x609 JUMP JUMPDEST JUMPDEST PUSH0 PUSH2 0x6DE DUP5 DUP3 DUP6 ADD PUSH2 0x6A8 JUMP JUMPDEST SWAP2 POP POP SWAP3 SWAP2 POP POP JUMP JUMPDEST PUSH2 0x6F0 DUP2 PUSH2 0x62C JUMP JUMPDEST DUP3 MSTORE POP POP JUMP JUMPDEST PUSH0 PUSH1 0x20 DUP3 ADD SWAP1 POP PUSH2 0x709 PUSH0 DUP4 ADD DUP5 PUSH2 0x6E7 JUMP JUMPDEST SWAP3 SWAP2 POP POP JUMP JUMPDEST PUSH0 DUP3 DUP3 MSTORE PUSH1 0x20 DUP3 ADD SWAP1 POP SWAP3 SWAP2 POP POP JUMP JUMPDEST PUSH32 0x596F7520617265206E6F74207265676973746572656421000000000000000000 PUSH0 DUP3 ADD MSTORE POP JUMP JUMPDEST PUSH0 PUSH2 0x753 PUSH1 0x17 DUP4 PUSH2 0x70F JUMP JUMPDEST SWAP2 POP PUSH2 0x75E DUP3 PUSH2 0x71F JUMP JUMPDEST PUSH1 0x20 DUP3 ADD SWAP1 POP SWAP2 SWAP1 POP JUMP JUMPDEST PUSH0 PUSH1 0x20 DUP3 ADD SWAP1 POP DUP2 DUP2 SUB PUSH0 DUP4 ADD MSTORE PUSH2 0x780 DUP2 PUSH2 0x747 JUMP JUMPDEST SWAP1 POP SWAP2 SWAP1 POP JUMP JUMPDEST PUSH32 0x496E76616C696420416D6F756E74000000000000000000000000000000000000 PUSH0 DUP3 ADD MSTORE POP JUMP JUMPDEST PUSH0 PUSH2 0x7BB PUSH1 0xE DUP4 PUSH2 0x70F JUMP JUMPDEST SWAP2 POP PUSH2 0x7C6 DUP3 PUSH2 0x787 JUMP JUMPDEST PUSH1 0x20 DUP3 ADD SWAP1 POP SWAP2 SWAP1 POP JUMP JUMPDEST PUSH0 PUSH1 0x20 DUP3 ADD SWAP1 POP DUP2 DUP2 SUB PUSH0 DUP4 ADD MSTORE PUSH2 0x7E8 DUP2 PUSH2 0x7AF JUMP JUMPDEST SWAP1 POP SWAP2 SWAP1 POP JUMP JUMPDEST PUSH32 0x4E487B7100000000000000000000000000000000000000000000000000000000 PUSH0 MSTORE PUSH1 0x11 PUSH1 0x4 MSTORE PUSH1 0x24 PUSH0 REVERT JUMPDEST PUSH0 PUSH2 0x826 DUP3 PUSH2 0x5D8 JUMP JUMPDEST SWAP2 POP PUSH2 0x831 DUP4 PUSH2 0x5D8 JUMP JUMPDEST SWAP3 POP DUP3 DUP3 ADD SWAP1 POP DUP1 DUP3 GT ISZERO PUSH2 0x849 JUMPI PUSH2 0x848 PUSH2 0x7EF JUMP JUMPDEST JUMPDEST SWAP3 SWAP2 POP POP JUMP JUMPDEST PUSH32 0x496E73756666696369656E742042616C616E6365000000000000000000000000 PUSH0 DUP3 ADD MSTORE POP JUMP JUMPDEST PUSH0 PUSH2 0x883 PUSH1 0x14 DUP4 PUSH2 0x70F JUMP JUMPDEST SWAP2 POP PUSH2 0x88E DUP3 PUSH2 0x84F JUMP JUMPDEST PUSH1 0x20 DUP3 ADD SWAP1 POP SWAP2 SWAP1 POP JUMP JUMPDEST PUSH0 PUSH1 0x20 DUP3 ADD SWAP1 POP DUP2 DUP2 SUB PUSH0 DUP4 ADD MSTORE PUSH2 0x8B0 DUP2 PUSH2 0x877 JUMP JUMPDEST SWAP1 POP SWAP2 SWAP1 POP JUMP JUMPDEST PUSH0 PUSH2 0x8C1 DUP3 PUSH2 0x5D8 JUMP JUMPDEST SWAP2 POP PUSH2 0x8CC DUP4 PUSH2 0x5D8 JUMP JUMPDEST SWAP3 POP DUP3 DUP3 SUB SWAP1 POP DUP2 DUP2 GT ISZERO PUSH2 0x8E4 JUMPI PUSH2 0x8E3 PUSH2 0x7EF JUMP JUMPDEST JUMPDEST SWAP3 SWAP2 POP POP JUMP INVALID LOG2 PUSH5 0x6970667358 0x22 SLT KECCAK256 BALANCE DUP3 PUSH21 0xDECE901E7809BAE7ADBD57999B55355E24F605B909 0x2C LOG1 MSTORE 0xC9 0xEA RJUMP 0x94AE PUSH5 0x736F6C6343 STOP ADDMOD 0x1E STOP CALLER "
				},
				"gasEstimates": {
					"creation": {
						"codeDepositCost": "467200",
						"executionCost": "24761",
						"totalCost": "491961"
					},
					"external": {
						"addRealEth()": "infinite",
						"bankManager()": "2595",
						"getBalance()": "2497",
						"registerUser(address)": "80670",
						"users(uint256)": "5010",
						"withdrawRealEth()": "infinite"
					}
				},
				"methodIdentifiers": {
					"addRealEth()": "1804fa65",
					"bankManager()": "e9e2990e",
					"getBalance()": "12065fe0",
					"registerUser(address)": "2199d5cd",
					"users(uint256)": "365b98b2",
					"withdrawRealEth()": "2d3397f1"
				}
			},
			"storageLayout": {
				"storage": [
					{
						"astId": 3,
						"contract": "Day 6/EtherPiggyBank.sol:PiggyBank",
						"label": "bankManager",
						"offset": 0,
						"slot": "0",
						"type": "t_address"
					},
					{
						"astId": 6,
						"contract": "Day 6/EtherPiggyBank.sol:PiggyBank",
						"label": "users",
						"offset": 0,
						"slot": "1",
						"type": "t_array(t_address)dyn_storage"
					},
					{
						"astId": 10,
						"contract": "Day 6/EtherPiggyBank.sol:PiggyBank",
						"label": "isRegistered",
						"offset": 0,
						"slot": "2",
						"type": "t_mapping(t_address,t_bool)"
					},
					{
						"astId": 14,
						"contract": "Day 6/EtherPiggyBank.sol:PiggyBank",
						"label": "bankBalance",
						"offset": 0,
						"slot": "3",
						"type": "t_mapping(t_address,t_uint256)"
					}
				],
				"types": {
					"t_address": {
						"encoding": "inplace",
						"label": "address",
						"numberOfBytes": "20"
					},
					"t_array(t_address)dyn_storage": {
						"base": "t_address",
						"encoding": "dynamic_array",
						"label": "address[]",
						"numberOfBytes": "32"
					},
					"t_bool": {
						"encoding": "inplace",
						"label": "bool",
						"numberOfBytes": "1"
					},
					"t_mapping(t_address,t_bool)": {
						"encoding": "mapping",
						"key": "t_address",
						"label": "mapping(address => bool)",
						"numberOfBytes": "32",
						"value": "t_bool"
					},
					"t_mapping(t_address,t_uint256)": {
						"encoding": "mapping",
						"key": "t_address",
						"label": "mapping(address => uint256)",
						"numberOfBytes": "32",
						"value": "t_uint256"
					},
					"t_uint256": {
						"encoding": "inplace",
						"label": "uint256",
						"numberOfBytes": "32"
					}
				}
			},
			"userdoc": {
				"kind": "user",
				"methods": {},
				"version": 1
			}
		}
	}
}